:02000002B0004C
:1040000000400B00B2980B00000006000C000502F7
:084010000401B41400000000DB
:04401800488D0B00C4
:1040200081F0004102E000BF83F0004330B54FEA69
:1040300041044FEA430594EA050F08BF90EA020FD6
:104040001FBF54EA000C55EA020C7FEA645C7FEA69
:10405000655C00F0E2804FEA5454D4EB5555B8BF8C
:104060006D420CDD2C4480EA020281EA030382EAFD
:10407000000083EA010180EA020281EA0303362D8F
:1040800088BF30BD11F0004F4FEA01314FF4801C62
:104090004CEA113102D0404261EB410113F0004F74
:1040A0004FEA03334CEA133302D0524263EB43032B
:1040B00094EA050F00F0A780A4F10104D5F1200EC9
:1040C0000DDB02FA0EFC22FA05F2801841F1000124
:1040D00003FA0EF2801843FA05F359410EE0A5F1F8
:1040E00020050EF1200E012A03FA0EFC28BF4CF029
:1040F000020C43FA05F3C01851EBE37101F00045DF
:1041000007D54FF0000EDCF1000C7EEB00006EEBEB
:104110000101B1F5801F1BD3B1F5001F0CD3490875
:104120005FEA30004FEA3C0C04F101044FEA4452CC
:1041300012F5800F80F09A80BCF1004F08BF5FEA53
:10414000500C50F1000041EB045141EA050130BD33
:104150005FEA4C0C404141EB0101013C28BFB1F545
:10416000801FE9D291F0000F04BF01460020B1FA90
:1041700081F308BF2033A3F10B03B3F120020CDA63
:104180000C3208DD02F1140CC2F10C0201FA0CF041
:1041900021FA02F10CE002F11402D8BFC2F1200CA6
:1041A00001FA02F120FA0CFCDCBF41EA0C0190405C
:1041B000E41AA2BF01EB0451294330BD6FEA0404A5
:1041C0001F3C1CDA0C340EDC04F11404C4F1200290
:1041D00020FA04F001FA02F340EA030021FA04F3A2
:1041E00045EA030130BDC4F10C04C4F1200220FAF9
:1041F00002F001FA04F340EA0300294630BD21FA37
:1042000004F0294630BD94F0000F83F4801306BFFC
:1042100081F480110134013D4EE77FEA645C18BFF0
:104220007FEA655C29D094EA050F08BF90EA020F87
:1042300005D054EA000C04BF1946104630BD91EA7F
:10424000030F1EBF0021002030BD5FEA545C05D182
:104250004000494128BF41F0004130BD14F58004C1
:104260003CBF01F5801130BD01F0004545F0FE4135
:1042700041F470014FF0000030BD7FEA645C1ABF6A
:10428000194610467FEA655C1CBF0B46024650EAA1
:10429000013406BF52EA033591EA030F41F40021CD
:1042A00030BD00BF90F0000F04BF0021704730B553
:1042B0004FF4806404F132044FF000054FF0000128
:1042C00050E700BF90F0000F04BF0021704730B5E9
:1042D0004FF4806404F1320410F0004548BF4042BE
:1042E0004FF000013EE700BF42004FEAE2014FEA13
:1042F00031014FEA02701FBF12F07F4393F07F4FEE
:1043000081F06051704732F07F4208BF704793F0F0
:104310007F4F04BF41F40021704730B54FF4607403
:1043200001F0004521F000411CE700BF50EA010206
:1043300008BF704730B54FF000050AE050EA0102AF
:1043400008BF704730B511F0004502D5404261EB1F
:1043500041014FF4806404F132045FEA915C3FF460
:10436000D8AE4FF003025FEADC0C18BF03325FEAFD
:10437000DC0C18BF033202EBDC02C2F1200300FAAE
:1043800003FC20FA02F001FA03FE40EA0E0021FAD3
:1043900002F11444BDE600BF70B54FF0FF0C4CF4C1
:1043A000E06C1CEA11541DBF1CEA135594EA0C0F73
:1043B00095EA0C0F00F0DEF82C4481EA030621EAAE
:1043C0004C5123EA4C5350EA013518BF52EA0335E9
:1043D00041F4801143F4801338D0A0FB02CE4FF09B
:1043E0000005E1FB02E506F00042E0FB03E54FF0CB
:1043F0000006E1FB03569CF0000F18BF4EF0010EC3
:10440000A4F1FF04B6F5007F64F5407404D25FEABE
:104410004E0E6D4146EB060642EAC62141EA555171
:104420004FEAC52040EA5E504FEACE2EB4F1FD0CB3
:1044300088BFBCF5E06F1ED8BEF1004F08BF5FEA31
:10444000500E50F1000041EB045170BD06F00046E3
:1044500046EA010140EA020081EA0301B4EB5C0490
:10446000C2BFD4EB0C0541EA045170BD41F4801188
:104470004FF0000E013C00F3AB8014F1360FDEBFAD
:10448000002001F0004170BDC4F10004203C35DA89
:104490000C341BDC04F11404C4F1200500FA05F30C
:1044A00020FA04F001FA05F240EA020001F00042AD
:1044B00021F0004110EBD37021FA04F642EB060123
:1044C0005EEA430E08BF20EAD37070BDC4F10C044D
:1044D000C4F1200500FA04F320FA05F001FA04F211
:1044E00040EA020001F0004110EBD37041F10001FD
:1044F0005EEA430E08BF20EAD37070BDC4F1200508
:1045000000FA05F24EEA020E20FA04F301FA05F26F
:1045100043EA020321FA04F001F0004121FA04F217
:1045200020EA020000EBD3705EEA430E08BF20EAE7
:10453000D37070BD94F0000F0FD101F00046400021
:1045400041EB010111F4801F08BF013CF7D041EAA3
:10455000060195F0000F18BF704703F000465200A7
:1045600043EB030313F4801F08BF013DF7D043EA78
:104570000603704794EA0C0F0CEA135518BF95EA2E
:104580000C0F0CD050EA410618BF52EA4306D1D1B5
:1045900081EA030101F000414FF0000070BD50EAD4
:1045A000410606BF1046194652EA430619D094EA5E
:1045B0000C0F02D150EA013613D195EA0C0F05D148
:1045C00052EA03361CBF104619460AD181EA03019C
:1045D00001F0004141F0FE4141F470014FF0000054
:1045E00070BD41F0FE4141F4780170BD70B54FF0EF
:1045F000FF0C4CF4E06C1CEA11541DBF1CEA13556F
:1046000094EA0C0F95EA0C0F00F0A7F8A4EB050450
:1046100081EA030E52EA03354FEA013100F0888047
:104620004FEA03334FF0805545EA131343EA126310
:104630004FEA022245EA111545EA10654FEA0026C5
:104640000EF000419D4208BF964244F1FD0404F57E
:10465000407402D25B084FEA3202B61A65EB0305DA
:104660005B084FEA32024FF480104FF4002CB6EB97
:10467000020E75EB030E22BFB61A754640EA0C0017
:104680005B084FEA3202B6EB020E75EB030E22BF57
:10469000B61A754640EA5C005B084FEA3202B6EB98
:1046A000020E75EB030E22BFB61A754640EA9C0057
:1046B0005B084FEA3202B6EB020E75EB030E22BF27
:1046C000B61A754640EADC0055EA060E18D04FEAE5
:1046D000051545EA16754FEA06164FEAC30343EA85
:1046E00052734FEAC2025FEA1C1CC0D111F4801F52
:1046F0000BD141EA00014FF000004FF0004CB6E74B
:1047000011F4801F04BF01430020B4F1FD0C88BFE9
:10471000BCF5E06F3FF6AFAEB5EB030C04BFB6EBF4
:10472000020C5FEA500C50F1000041EB045170BDE7
:104730000EF0004E4EEA113114EB5C04C2BFD4EB14
:104740000C0541EA045170BD41F480114FF0000E98
:10475000013C90E645EA060E8DE60CEA135594EA14
:104760000C0F08BF95EA0C0F3FF43BAF94EA0C0F17
:104770000AD150EA01347FF434AF95EA0C0F7FF48C
:1047800025AF104619462CE795EA0C0F06D152EAE0
:1047900003353FF4FDAE1046194622E750EA4106C4
:1047A00018BF52EA43067FF4C5AE50EA41047FF4D5
:1047B0000DAF52EA43057FF4EBAE12E74FF0FF3C3A
:1047C00006E000BF4FF0010C02E000BF4FF0010C0B
:1047D0004DF804CD4FEA410C7FEA6C5C4FEA430C84
:1047E00018BF7FEA6C5C1BD001B050EA410C0CBFD3
:1047F00052EA430C91EA030F02BF90EA020F002035
:10480000704710F1000F91EA030F58BF994208BF9B
:1048100090422CBFD8176FEAE37040F00100704758
:104820004FEA410C7FEA6C5C02D150EA013C07D1AF
:104830004FEA430C7FEA6C5CD6D152EA033CD3D0FA
:104840005DF8040B704700BF8446104662468C46F4
:104850001946634600E000BF01B5FFF7B7FF002827
:1048600048BF10F1000F01BD4DF808EDFFF7F4FF50
:104870000CBF012000205DF808FB00BF4DF808EDDB
:10488000FFF7EAFF34BF012000205DF808FB00BFFE
:104890004DF808EDFFF7E0FF94BF012000205DF820
:1048A00008FB00BF4DF808EDFFF7CEFF94BF0120D5
:1048B00000205DF808FB00BF4DF808EDFFF7C4FFCE
:1048C00034BF012000205DF808FB00BF4FEA410C17
:1048D0007FEA6C5C02D150EA013C0AD14FEA430CFA
:1048E0007FEA6C5C02D152EA033C02D14FF0000037
:1048F00070474FF0010070474FEA410212F5001275
:1049000015D211D56FF47873B3EB625212D94FEA16
:10491000C12343F0004343EA505311F0004F23FA00
:1049200002F018BF404270474FF00000704750EA55
:10493000013005D111F0004008BF6FF00040704712
:104940004FF00000704700BF4A0011D212F500126C
:1049500011D20DD56FF47873B3EB62520ED44FEAD7
:10496000C12343F0004343EA505323FA02F0704757
:104970004FF00000704750EA013002D14FF0FF3095
:1049800070474FF00000704710F8012B11F8013B01
:10499000012A28BF9A42F7D0D01A7047034613F86D
:1049A000012B002AFBD1181A0138704709480A491F
:1049B000884208B505D0094A824202D0121A04F092
:1049C00069F80748074A0021121A04F071F80148F3
:1049D00008BD00BFF8E3032000980B007CE403202F
:1049E00080E40320F8E7032070B5074E074C03F07E
:1049F000C5FDA41BA4080025AC4200D170BD56F82B
:104A0000043B98470135F7E7B8970B00DC970B009C
:104A100001F0D2B908B500F0D7FCBDE8084003F0BA
:104A200065BD02F07DBB02F07BBB02F081BB02F0F2
:104A30007FBB000008B5034A03490C2002F0BCFA12
:104A4000FEE700BF696C0B005C8D0B000078B0FACC
:104A500080F04009704701230370704770470000E1
:104A6000014B01221A707047FDE30320014B002225
:104A70001A70704718E60320014B01221A70704724
:104A800038E6032098B502F1080323F0070300AFCE
:104A9000ADEB030D1446684603F0FCFF00236846A7
:104AA0000DF8043003F0EEFF034B003818BF01206F
:104AB0001870BD4698BD00BF10E5032010B5102149
:104AC0000446FFF7B4FF204610BD436913B1836964
:104AD0000C301847704713B500210446084602F011
:104AE0006BF80023204601A9019302F07DF8019C98
:104AF0000CB1012323710021012002F05DF82CB1DB
:104B0000236820469B6898470023237102B010BD9C
:104B1000012A02D1016000207047022A04BF0B68FD
:104B20000360F8E70368184737B5044680680D4608
:104B300030B10023CDE900331A46022102F05CF8BF
:104B4000A06830B10023CDE900531A46194602F09F
:104B500053F803B030BD000008B502F08DF8034BE8
:104B60001860BDE8084002F063BA00BF30E70320D8
:104B70000EB403B503AB002153F8042B019302F0EC
:104B80002EFE02B05DF804EB03B0704773B5044627
:104B900008462279A36832B1A3B90B4902B0BDE837
:104BA000704002F00DBD094A267B094D0949647B1E
:104BB000012E18BF2946CDE900140749FFF7D8FF99
:104BC00002B070BD054AEFE7828D0B00798D0B00B6
:104BD0007E8D0B007A8D0B00988D0B00718D0B0074
:104BE00010B58368044613B1032201469847204656
:104BF00010BD000037B5134B036004468068C8B190
:104C000000256FF00043CDE9003502212B462A46EE
:104C100001F0F2FFA068294602F016F8237903F0AC
:104C2000FF0513B101F0C0FFF8E7A068294601F0C5
:104C3000D3FFA56004F10C00FFF7D2FF204603B0BC
:104C400030BD00BF748E0B0010B50446FFF7D2FFD5
:104C500020461C21FFF7EBFE204610BDF0B58C4628
:104C600000251449057104468560016092E803003F
:104C700085B002AF04F10C0687E8030096E8030054
:104C800082E8030097E8030086E803009168A069C2
:104C90006161D1689560D060A161CDE90035064AB7
:104CA0002346614604F1080001F08EFF204605B05E
:104CB000F0BD00BF748E0B00D74A0B0003682BB108
:104CC0004268934202D2184603F0DCBE00207047CF
:104CD00038B50568044645B143689D4205D228466B
:104CE000FFF75CFE013005442560204638BDF8B56D
:104CF000044647680D4621B903687A1C4260D955BD
:104D0000F8BD0846FFF74AFEA368461CF2199A420E
:104D1000F6D8206832462946384403F0BBFE606866
:104D200030446060ECE7000038B504460B46D0E93B
:104D300001012568044A091A284402F009FA636847
:104D400001300344636038BDB58D0B0038B50446AF
:104D50000B46D0E901012568044A091A284402F0EB
:104D6000F7F9636801300344636038BDB88D0B0008
:104D700038B50D46C0F1FF010320144603F0C2FC14
:104D8000C5F1FF01042003F0BDFCC4F1FF010520C3
:104D9000BDE8384003F0B6BC08B50023437700688F
:104DA00003F0BAF9BDE8084001F0E8BE2DE9F04390
:104DB00001EB02098FB04945CDE9051980460D4642
:104DC000164680F0928005A80F88FFF781FF0368E0
:104DD0004B4580F08A8005A8FFF770FF47F27623E5
:104DE0009F42C4B200F0A98027D847F261239F42B6
:104DF0007ED047F264239F4242D046F670539F42D2
:104E000028D1634E634FDFF8A081059B99456CD98B
:104E100005A8FFF753FFC4B205A8FFF759FF059D8A
:104E200031462846FFF7B0FD0146E0B9204603F0C1
:104E300015FC05A8FFF74CFFE7E747F264739F42B4
:104E40003FD047F276739F4200F0878047F261734C
:104E50009F425FD00023CDE9013302220092B8F8CF
:104E60001A20194629E039462846FFF78DFD28B15A
:104E700041462846FFF788FD0028DAD10121D5E711
:104E80000AAB4549079307A810230025CDE908532D
:104E9000FFF72DFF07A82146FFF746FF204603F046
:104EA00007FC014607A8FFF751FF089BCDE9015514
:104EB000013B0093079B2A461421404600F01AFE4E
:104EC00013E005A8FFF704FF036899450DD9A4B2C4
:104ED0000121204603F0C2FB05A8FFF7EFFE011EEB
:104EE00018BF0121204603F0CAFB0FB0BDE8F083D4
:104EF0000AAB079307A8102328490025CDE90853DA
:104F0000FFF7F5FE07A82146FFF70EFF204603F046
:104F1000E2FBC6E705A8FFF7DBFE03689945E4D985
:104F2000A4B20121204603F099FB05A8FFF7C6FEB5
:104F30000146204603F0E6FBD7E720468DF82840DF
:104F400001F01EFE03460AA823B1154A934201D080
:104F50009847CAE701F010FEC7E705A8FFF7B8FEBB
:104F6000059B8DF81C405D1B751B2046CDE90A355D
:104F70000C9501F00FFE03460AA907A823B1094AC0
:104F8000934201D09847B0E701F0F7FDADE700BFCD
:104F9000BC8D0B00BF8D0B00C78D0B00CA8D0B00A5
:104FA000796B0B007B6B0B00C38D0B002DE9F0417F
:104FB0008CB004AF044605220068391D02F00DFDD7
:104FC000A8B3052804D000202037BD46BDE8F081F5
:104FD000B7F8050001F0E8FEA7F80500B7F80700EC
:104FE00001F0E2FEB7F80530A7F807008046002B75
:104FF000E9D03B7923BB01F0BDFD0246E060607F54
:10500000B7F80730C0B9B7F80510012914D1092B3A
:105010000FD0C82B01D0042BD6D1012562612046C8
:10502000657700F017FEFFF797FD01F0A7FD01205F
:10503000CAE703236377C7E7581F18BF0120C3E7F8
:10504000B0F5806F03D92046FFF7A6FEEFE700F129
:10505000080323F007036E46ADEB030D04AD0246D3
:105060002946206802F0B9FC80454FF000007FD14E
:10507000B7F80730E85401F07DFD3B79E060142B70
:1050800000F0A68048D80F2B00F0A28007D8022B92
:1050900048D0062B51D02046FFF77EFE58E0112B5A
:1050A000F9D100233B70B7F807302B449D42C7E984
:1050B00003534DD207F10C00D5F80080FFF708FE2E
:1050C000FB68B7F807105D1B4D1BC7E905357B680A
:1050D000FD61C3F30F236383644B984500F0BF80E9
:1050E00000F28C80A3F57F236FF40072134498457F
:1050F00000F09D8079D8A3F50033063B984500F079
:105100009C8003F50033033398456BD107F11401FC
:10511000384601F032FD65E0292B1BD0372B17D024
:105120001D2BB8D1637F43B901236377204600F07C
:1051300091FDFFF711FD01F021FD0023C821B7F813
:1051400005200091CDE901331946204600F0D2FC3C
:1051500001200DE0A3681BB9402001F0E1FFA06031
:10516000B7F80780A8444545C7E9055802D3002091
:10517000B54629E729464022A06803F0D7FCA3687A
:10518000002583F83F5007F11400FFF7A1FD0368E5
:1051900098451BD9786920B1BB69984214D203F0B5
:1051A00075FC85B2206802F0B7FF2368A2685A63D5
:1051B0001D870023637701F0DDFCA0F59C500838C3
:1051C000C4E903006061C3E72846EAE75025E9E740
:1051D0007B68B7F80720C3F30F2363832946204673
:1051E000FFF7E4FD00236383B2E7214B9845F9D133
:1051F00007F11401384601F0C0FCF3E71D4B984558
:1052000021D003F19F6303F5003303F580739845C4
:105210001FD003F16E4303F5302303F586739845E1
:10522000E0D107F11401384601F0A7FCDAE707F1F5
:105230001401384601F0A1FCD4E707F11401384607
:1052400001F09BFCCEE707F11401384601F095FC14
:10525000C8E707F11401384601F08FFCC2E707F1F7
:105260001401384601F089FCBCE700BF7666730084
:105270006462670061636F6E2DE9F04104468CB093
:105280000D46FFF769FC637F022B1ED0237F628BE4
:105290000133DBB22377AAB9022B13D8206802F0BE
:1052A00003FEA8B125B9206802F0DCFE00280FDD5E
:1052B0002046FFF77BFE0028F5D1206802F02CFF86
:1052C00001F05CFC237F013B23770CB0BDE8F0814B
:1052D00001F050FC0546206802F0E6FD677F012FD3
:1052E000064624D120B965612046FFF755FDE9E760
:1052F000E3684FF21862EB1A9342F5D84AF6C87287
:10530000934203D82369EB1A9342DBD9636941F2D4
:105310007072EB1A9342D5D90023CDE90133009383
:105320001A460621204600F0E5FB6561CAE7002F1A
:10533000C8D16369EB1A40B141F270729342C1D98E
:10534000206802F0E9FE6777BCE741F288329342B9
:10535000B8D9206802F0E0FED4F800C0DCF834E0F0
:10536000BCF83880BEF1000F1BD033464246714670
:10537000604602F01BFD0128D7D163680593012523
:1053800018462583FFF70AFB0022CDE90122059B81
:1053900000902A461D21204600F0ACFB2369636182
:1053A00090E7084B06930CF120070FCF07AE0FC60E
:1053B0003B6833704246734606A9604602F0D6FD4C
:1053C000D9E700BFB4930B002DE9F04F2DED048B0E
:1053D000BF488BB001F0AAF8002800F08E82BC48CC
:1053E00001F07BFABB480021FFF746FFBA4B1B7860
:1053F000002B00F07683B94D2B78002B31D0B849C3
:1054000002A802F08AFBB74902A802F0D5FBB64910
:1054100002F0D2FBB54902F0CFFBB54B1978B54B82
:105420001B7804460BB9B44B1B7801EB43010A22ED
:1054300006A802F097FB06A9204602F0BDFBAF4C80
:105440000146204602F05AFB06A802F0DBFA02A849
:1054500002F0D8FA2268AA499D4801F0E2F9002337
:105460002B70DFF8D082A748A74FA84C414600F028
:10547000B7FE002800F0C18026460FCE3D460FC57E
:1054800096E8030085E80300B8F90000FEF71AFF6C
:105490009F4B0022FEF780FF9E4B0022FEF77CFF11
:1054A0000022002382468B46FFF7FCF99A4B00222C
:1054B000002800F0318250465946FEF7B7FDFFF74D
:1054C0001BFAFEF7FFFE934B0022FFF78FF8C4E9AB
:1054D0000001B8F90200FEF7F5FE8D4B0022FEF741
:1054E0005BFF8C4B0022FEF757FF00220023824611
:1054F0008B46FFF7D7F9884B0022002800F0118275
:1055000050465946FEF792FDFFF7F6F9FEF7DAFE30
:10551000804B0022FFF76AF8C4E90201B8F90400E1
:10552000FEF7D0FE7A4B0022FEF736FF794B0022C1
:10553000FEF732FF0022002380468946FFF7B2F9CA
:10554000754B0022002800F0F18140464946FEF7E5
:105550006DFDFFF7D1F9FEF7B5FE6E4B0022FFF7A8
:1055600045F8C4E9040102F0EFFE94ED020B0221BC
:1055700002F02AF9D4E90289D7E9022340464946D4
:10558000FEF752FD50A3D3E900230F4621F000415E
:105590000646FFF791F9F8B1604D2B78E3B1554B12
:1055A0001B7813B9544B1B78B3B15D4ADFF888A15F
:1055B00092F800B00123BBF1000F40F0BC811370E2
:1055C0003046544B00223946FEF7E6FEFFF794F9C9
:1055D00085F800B0CAF80000002200234046494682
:1055E000FFF742F948B14D4B01221A704D4B1A7822
:1055F0001AB14B4900220A701A70434F434EDFF82C
:105600003CB1DFF83CA10325B7EC027BDBE9008964
:10561000B0EE478AF0EE678AB6EC027B42464B4614
:1056200051EC180BB0EE479AF0EE679AFEF7FCFCCF
:1056300053EC192BFFF736F970B942464B4651EC43
:10564000180BFEF7F3FC02460B4651EC190BFFF763
:1056500029F9002800F084809AF8001000297FD1F1
:10566000314A1368013313605A4203F0030802F011
:10567000030358BFC3F10008B8F1020F00F06281C4
:10568000B8F1030F00F06481B8F1010F0CD1184B91
:105690000320197802F0F3FF4146042002F0EFFFE7
:1056A0000121052002F0EBFF20484FF001086FF0C8
:1056B00000418AF80080FFF737FA1D4B98680028F0
:1056C00049D03FE0AFF300809A9999999999B93FF1
:1056D0003CE503208CE4032010E5032038E603209A
:1056E000B8E60320A8E6032088E6032098E6032016
:1056F000C5E5032038E5032039E50320ACE50320A8
:10570000DA8D0B00E8E4032000E60320E8E503203F
:105710000000103F000024400000E03FFCE30320B5
:10572000C4E50320C6E50320C8E60320C8E503203E
:1057300058E6032074E60320C0E5032008E40320B4
:1057400018E603206FF000420023CDE90023414614
:105750001A4601F051FAAE486FF00041FFF7E4F944
:10576000013D7FF451AFAB4E3378002B00F0B9818F
:1057700002F0EAFD94ED020B022102F025F8A648A2
:1057800035706FF00041FFF7CFF9A44B1B78002B69
:1057900000F01981D4E90201A14BDFF8B8820022A0
:1057A000FEF7FAFD0646D8F800000F46FEF78AFD20
:1057B00002460B4630463946FEF738FCFFF79CF8A8
:1057C00040F2F963C8F80000802200936FF07F0177
:1057D0002B4601F0E5FC934B934E18608246FEF792
:1057E00071FD89A3D3E9002380468946FEF71CFC9E
:1057F000024621F0004384A1D1E90001FEF714FC28
:10580000FFF77AF8894B3060002249460746404648
:10581000FEF70AFC21F0004302467BA1D1E900011A
:10582000FEF702FCFFF768F8AAF5FF73002BB8BF7C
:105830005B42DFF82482DFF82492C8F80000FF3BC7
:10584000FF2B40F38F80FF23C9F80030FF2F40F378
:105850009080FF233360FF2840F39080FF23C8F837
:1058600000303168D8F80020D9F80000704DFFF7FB
:105870007FFA0A22D9F8001006A802F073F906A9E7
:105880006B4802F055F906A802F0BCF80A2231680C
:10589000684E06A802F066F906A9674802F048F9C2
:1058A00006A802F0AFF80A22D8F8001006A802F005
:1058B00059F906A9614802F03BF906A802F0A2F8DE
:1058C000AB68032B5FD15C4D5A4EAB68032B6AD19A
:1058D0005A4D584EAB68032B75D0314606A802F0DE
:1058E000DCF8294606A802F067F90146284602F0CE
:1058F00005F906A802F086F8ECE706A801F0A0FB7F
:1059000006994F4800F002FF06A802F07BF84D49C7
:105910004B4801F02AF965E550465946FEF784FBED
:10592000CDE550465946FEF77FFBEDE5404649463A
:10593000FEF77AFB0DE6444A13700023CAF80030E4
:105940002B7049E6042002F09AFE01210320A5E60F
:10595000052002F094FE0121042002F090FE0121B6
:1059600040469FE615EA230538BF1D46C9F800509A
:105970006CE7002FBFF66FAF00236BE70028BFF680
:1059800070AF00236BE7314606A802F086F829467F
:1059900006A802F011F90146284602F0AFF806A861
:1059A00002F030F88CE7314606A802F076F8294676
:1059B00006A802F001F90146284602F09FF806A861
:1059C00002F020F881E7214B1B78002B00F0898042
:1059D000134B0022D4E90201FEF7DEFC1C4C064604
:1059E00020680F46FEF76EFC02460B4630463946ED
:1059F000FEF71CFBFEF780FF10F1400F30DA6FF06E
:105A00003F0323602FE000BF0000000000E8774064
:105A100058E60320FDE303203CE6032039E503209C
:105A200000002440E4E50320BCE5032000EC8340B3
:105A3000B8E60320568E0B00A8E6032088E6032074
:105A40003CE50320CD8D0B00C6E5032038E503209F
:105A5000F8E303209CE5032014E5032000E4032081
:105A600040282ADC2060FF230093402200236FF0AF
:105A70003F0120681D4D1E4E01F092FB0A22014697
:105A800006A802F06FF806A9184802F051F806A817
:105A900001F0B8FFAB68032B11D0314606A801F026
:105AA000FCFF294606A802F087F80146284602F0C6
:105AB00025F806A801F0A6FFECE74023A1E7FF23A5
:105AC00000932068002340226FF03F0101F068FB43
:105AD000014606200BB0BDEC048BBDE8F04F02F090
:105AE00011BE0BB0BDEC048BBDE8F08F98E603202F
:105AF000568E0B002DE9F04F83B000AF04460068CE
:105B00003D6B884616469946EB4602F0CDF90028D3
:105B100000F08180B8F11D0F04D84D4B23FA08F333
:105B2000DB0702D4637F012B75D146B9668B36B98A
:105B3000238B01339BB2002B72D02383268BA8F1D9
:105B40000C03082B16D8D4E90323934238BF13461D
:105B500003F1420A01F00EF8AAEB0000002861DB15
:105B600000212046FFF788FB01F004F8AAEB0000B3
:105B70000028F5DAB9F1000F5BD06B1D7A6B002AB3
:105B8000BA6B08BF002203EB020A0AF1070323F0F5
:105B90000703ADEB030D30468DF80080C7F804D045
:105BA00001F00AF9BB6BADF80100E81880B201F012
:105BB00003F9ADF80300B9F1000F3CD0002D3AD045
:105BC0002A4649460DF1050002F064FF681D7B6B13
:105BD0003BB1BB6B2BB11A467B68796B184402F062
:105BE00059FF002555452AD2AAEB05027B6820689B
:105BF000B2F5806F28BF4FF48062591902F007F8A0
:105C00000646002000F0B4FFBEB9206802F084FA16
:105C1000667700F0B3FF0C37DD46BD46BDE8F08F78
:105C200001238AE7217F0029A4D12046FFF724FB26
:105C3000A0E70523A2E70520C9E73544D2E703D052
:105C40002046FFF7A9F8E6E700F094FF2061E2E7BD
:105C50004500002030B599B008AB044605930025F7
:105C6000402305A80B49CDE90653FFF740F805A8E6
:105C70000949FFF73CF8069B0293059B01936523B6
:105C800000932A46054B11212046FFF733FF19B038
:105C900030BD00BFE68D0B00EB8D0B00888E0B0036
:105CA00030B5ADF2244D08AB00240546059305A898
:105CB0004FF480630968CDE90643FFF718F8069BA7
:105CC000013B0093CDE90144059B22464021284633
:105CD000FFF710FF0DF2244D30BD000038B52B4CFE
:105CE0002B4D2278002A45D12B68594201F003013F
:105CF00003F0030358BF4B42032B1CD8DFE803F02B
:105D00002A021E2A234C244B24491A702378244843
:105D100083F0010301EB03112370FFF7C1FF21782A
:105D2000032002F0ACFC0121042002F0A8FC0121B8
:105D3000052002F0A4FC00232B6038BD164B1A701E
:105D400001232370174B1A60174B00221A605A6008
:105D50009A60F0E70021052002F091FC0121042067
:105D600002F08DFC0121032002F089FC0A4B012284
:105D70001A70E0E70D4B1A680D4B19680D4B186847
:105D8000FEF7F6FF00232370D5E700BF39E50320B7
:105D9000C8E60320C5E5032038E5032018E5032005
:105DA0008CE403209CE503207CE6032014E503201B
:105DB000BCE5032000E40320F7B502F0C5FA4FF478
:105DC000165102F0B5FA50213548364C00F0CFF9A3
:105DD0003349354800F02EFA0121032002F03EFC41
:105DE0000121042002F03AFC0121052002F036FCDA
:105DF0000121062002F032FCFF232C4800934022B0
:105E000000236FF03F01006801F0CAF90146062047
:105E100002F078FC0121032002F031FC0121042072
:105E200002F02DFC0121052002F029FC6FF0004159
:105E30001F48FEF779FE40F6B83000F099FE1D4B82
:105E4000636000F097FEA0F59C5023681A4A5A63DD
:105E50000838C4E90300502260611A87002644F222
:105E60004F67206802F058F9667700F083FE054618
:105E7000637F012B0CD000F07DFE401BB84204D89C
:105E800000212046FFF7F8F9F2E7637F012BE8D104
:105E90000A490B4803B0BDE8F04000F066BE00BF01
:105EA000A0E503208CE40320E8E40320F8E30320CA
:105EB0001CE60320F98D0B001A8E0B00CD8D0B0014
:105EC0003CE5032070B5514D88B0284602F06EF9CC
:105ED00005F11C0001F03EFA4D4B0024C3E90054CB
:105EE000C3E90244C3E904449C619C836C632C872E
:105EF0002146012001F080F846494748474D01F00E
:105F0000CCFD4749474801F0C8FD474B474900943D
:105F100040F25B72464C474800F02CFA464800F0CD
:105F200019F90821204600F02DF9444B2360297807
:105F3000BFF35B8F11F001010BD128460391FEF7EF
:105F400085FD039928B13E4801F086FC2846FEF7FE
:105F500082FD3B4BE360022323613A4BA3613A4B42
:105F6000236200260123394A394DA38426752677FA
:105F70000492384C3848079504AA4FF4FA710694F5
:105F8000FEF76CFE04A8FEF72BFE344A04920123B0
:105F900004AA4FF4FA713248CDE90645FEF75EFED9
:105FA00004A8FEF71DFE2F4A0492012304AA4FF411
:105FB0007A712D48CDE90645FEF750FE04A8FEF79C
:105FC0000FFE2A4B049304AA33464FF4FA61284883
:105FD000CDE90645FEF742FE04A8FEF701FE25497D
:105FE000254801F05AFD2549254801F056FD234971
:105FF000244801F052FD1F49234801F04EFD23497A
:10600000234808B0BDE8704001F047BDACE4032070
:106010008CE40320268E0B0018E5032080E4032087
:106020002E8E0B0028E50320854A0B00378E0B00CF
:10603000E8E403203CE50320A0E50320248F0B00C7
:1060400084E40320608E0B0080969800614A0B0068
:10605000254B0B00114B0B003CE603206D4A0B0057
:10606000C8E50320DD5C0B0058E60320794A0B00ED
:106070001CE60320468E0B00B8E60320548E0B006E
:10608000A8E6032088E6032098E603204A8E0B004A
:10609000ACE50320704710B528210446FEF7C7FC85
:1060A000204610BD10B5044600F11801C06801F08B
:1060B0000BFC208A0021BDE8104002F0E0BA10B5C8
:1060C00004460121008A02F0DAFAE068BDE81040D7
:1060D00001F0E0BBF8B51E4603685B690F46144645
:1060E00005469847012E88BF47F04007E86847F00B
:1060F000800101F057FC2644B44206D0E868002134
:1061000001F050FC04F8010BF6E72B6828469B6968
:1061100098470120F8BDF8B51E4603685B690F4635
:10612000144605469847012E88BF47F04007E868A7
:10613000394601F037FC2644B44205D014F8011B5F
:10614000E86801F02FFCF7E72B6828469B69984721
:106150000120F8BD0022027042708270C27002718C
:1061600042718271C2710272427282727047002261
:1061700041F007010170027182704270C271427277
:1061800070470000024AC0E90021002202727047F5
:10619000088F0B0013B5036801AADC680123A04730
:1061A0009DF8040002B010BD38B505460A240F2141
:1061B0002846FFF7EFFF33284FF0010004D000F02E
:1061C000FBFF013CF3D1204638BD10B50446018ADF
:1061D000C06801F04BFB2046BDE81040FFF7E4BF6C
:1061E000F7B50C4627210546FFF7D4FF00F008005D
:1061F000002814BF012600260FD02B686A46DF68EE
:10620000282106232846B847BDF800302380BDF872
:1062100002306380BDF80430A380304603B0F0BD87
:1062200013B503688DF804201C6901AA0123A04757
:1062300002B010BD70B503689B6804460D469847D0
:10624000064630B902F080F8274901F0CCF9304613
:1062500070BD2A7820212046FFF7E2FF6A782121CD
:106260002046FFF7DDFFAA7822212046FFF7D8FF5E
:10627000EA7823212046FFF7D3FF2A7924212046FC
:10628000FFF7CEFF6A7925212046FFF7C9FFAB79DA
:106290001BB126212046FFF77DFFAA7A2E2120463A
:1062A000FFF7BEFFAB785B06D1D5EA7932212046F5
:1062B000FFF7B6FF2A7A33212046FFF7B1FF636864
:1062C000002B0ADB6A7A227220463021FFF7A8FFF2
:1062D00031212046FFF75EFFB9E70022227230210C
:1062E0002046FFF79DFFB2E7EF8E0B0091F85C3080
:1062F00010B50446016013B1886D00F08DFC204696
:1063000010BD10B5036893F85C20044612B1986D77
:1063100000F08AFC204610BDF8B51F469DF82430D9
:1063200004460D4616462BB1012380F85C305830E8
:1063300000F06AFC089B23630023636306B1A66434
:1063400025B1294604F1380001F0FAFB069B2365CC
:10635000079BE069A4F84C70FF2BB8BFFF23A4F89B
:10636000543008B1FEF761FBB4F85400FEF75BFB54
:10637000E061F8BD2DE9FF41044600251746984627
:106380000E4601F013FF0D49E56104F1380001F0FC
:1063900084FB9DF82830A564CDE90283FF220F23FA
:1063A000CDE90032204684F85C503B462A4631460F
:1063B000FFF7B2FF204604B0BDE8F081798D0B00F5
:1063C00010B50446204601F04DFE0028FAD02046C4
:1063D00001F032FCC0B210BD2DE9F04705468846F9
:1063E000FFF7EEFFEB691870EB6993F800A04FF030
:1063F00001090AF0F00A00274C462846FFF7E0FFA3
:106400002646EB69985500F07F0313FB09F31F4400
:1064100001340306A4B2BFB24FEAC919EDD4631E1A
:10642000BAF1300F88F800301ED12846FFF7C8FFB8
:10643000EB6918552846FFF7C3FFF41C0236B6B2C5
:10644000EB69A4B298550226B6B2BE420ED22846D7
:10645000FFF7B6FFB5F85430A34284BFEB69185577
:106460000134A4B20136EFE70026EDE7B5F8543069
:10647000A3422CBF20460020BDE8F0872DE9F34160
:1064800015461E461A4607460023964602A802F005
:106490007F0CBEF17F0F03F10104034488BF4CF071
:1064A000800CBEF17F0F4FEAD212E4B203F804CCA5
:1064B0001ED8C4F10403C4F10500E954224601A921
:1064C000284405EB030802F0E5FA721C2244414619
:1064D000384601F09CFB054600F0CEFB621C78625A
:1064E0003244A8B2131A5842584102B0BDE8F081B4
:1064F0002346CAE70233F0B5054698B20023CE5CC6
:106500009CB256B1B5F854C0844503F1010704D9D3
:10651000441C16543B46A0B2F1E799B2411A0A4412
:10652000210A02F8021C02F8013CF0BD38B504460D
:1065300001F0BAFC002814BF0125002502D1204635
:1065400001F0EAFD284638BD2DE9F04788B0044641
:10655000DDF840809DF850A0894617461E46FFF79B
:10656000E5FF0546002840F0CD80214601A8FFF751
:10657000BDFEA16C002940F08880B4F84C20A16BCE
:106580002B46204601F012FC00287AD001232384F8
:106590009DF85430E269042B5B4B40F08180186811
:1065A00099889B79ADF80C108DF80E300290C2F8E6
:1065B00005009DF80E30BDF80C10A2F80910D3723A
:1065C0000C23B8F1000F00F081809DF848009DF881
:1065D0004420400140EAC20040F00600C0B2BAF1D7
:1065E000000F01D100F0FD001FB1002E70D140F06E
:1065F0008000E269D054226DE169581C12120A54DD
:106600009A1CE169206D88540333E26949462046AB
:10661000FFF770FF0346B8F1000F0BD0E269414667
:106620002046FFF767FFE269139903462046FFF70C
:1066300061FF034667B1E26939462046FFF75AFF1A
:1066400003462EB1E26931462046FFF753FF034669
:10665000053BE2699BB210212046FFF70FFF00F0D7
:106660000BFBC4E909004FF47A76204601F0FAFCEE
:1066700088BB00F001FBA36AC01A236D73439842E4
:10668000F3D9204601F048FD35E002A800F0A6FE4F
:10669000B4F84C202B4602A9204601F067FC73E7B2
:1066A000D3F80700D3F80B10DB7B0DF1080CACE836
:1066B00003008CF8003002AB03CBC2F80500C2F82F
:1066C00009109CF8003053730E237AE7022086E706
:1066D00040F0C0008DE702A92046FFF77DFE0428A8
:1066E000CFD1E369DE78002ECBD100F0C5FA0125C9
:1066F000A06284F82C6001A8FFF703FE284608B0CA
:10670000BDE8F0870025F9E7388D0B007FB5012340
:106710000422CDE904320023CDE90233CDE9003370
:106720001A46FFF711FF07B05DF804FB2DE9F74F9C
:10673000DDF83C809DF834509DF8389004468B4637
:1067400016461F46FFF7F2FE8246002851D021462A
:1067500001A8FFF7CBFDB4F85420E069002102F056
:10676000A7F90523E26959462046FFF7C3FE6B1ED1
:10677000012B15D8218CE369013189B22184090AE2
:106780001954421CE369218C92B20230995480B2B0
:10679000B8F1000F04D0238C5A1C2284A8F80030D2
:1067A00000210B188F42E2699BB20AD9B4F854C099
:1067B0009C4506D916F801C002F803C0013189B220
:1067C000EFE79DF8301000290CBF30213121B9F1DD
:1067D000000F01D041F00801022D0ED141F004015B
:1067E000053B9BB22046FFF749FE824601A8FFF712
:1067F00088FD504603B0BDE8F08F012D08BF41F081
:106800000201EDE71FB5089C0394002402949DF853
:106810001C4001949DF818400094FFF787FF04B0D6
:1068200010BD30B587B00446104605910492FEF7BE
:10683000B5F800250346CDE90155DDE904210095B1
:106840002046FFF7DFFF07B030BD73B504460E46A4
:10685000FFF76CFE0546C8B1214601A8FFF746FDCB
:10686000E36962221A70E36902225A70E369320A0C
:106870009A70E369DE70E1690422204601F0C7F9ED
:10688000051E01A818BF0125FFF73BFD284602B0F1
:1068900070BD73B504460E46FFF748FE0546C8B105
:1068A000214601A8FFF722FDE36972221A70E3690D
:1068B00002225A70E369320A9A70E369DE70E16974
:1068C0000422204601F0A3F9051E01A818BF0125E6
:1068D000FFF717FD284602B070BD2DE9F04F2DEDF2
:1068E000028B87B000AF0446FFF720FE8146F8B167
:1068F000214607F11400FFF7F9FC00F0BDF9236D04
:106900004FF47A725343A26A821A9A42064603D817
:10691000626A821A934221D294F82C307BB12046CD
:1069200001F0FAFB4FF0000907F11400FFF7E9FC52
:1069300048461C37BD46BDEC028BBDE8F08FE269CE
:10694000C0211170E2695370E1690222204601F012
:106950005EF9C4E90966012384F82C30204601F071
:1069600081FB0028E0D007F113012046FFF734FD3A
:1069700083460028D8D0E369A662197801F0F002B6
:10698000302A7FD1D4F830A0BAF1000FCCD097F8DC
:1069900013C06A4608EE102A03EB0C025178957872
:1069A00005EB0125ADB205F108026946D208A1EB5D
:1069B000C20295460CF10302FA6003EB020E0DEBE6
:1069C00005026846C7F808D07A60D7E901218A42F3
:1069D00006D00A461EF8018B02F8018BBA60F4E774
:1069E0000022425593F80080F96808F00608ABEBE6
:1069F0000C02033AB8F1020FA2EB0502294425D19B
:106A000013F801E01944023A91F801B00CF10501C4
:106A1000294419440BEB0E2BD047E36940221A702E
:106A2000E3691FFA8BFB83F80180E3694FEA1B22BD
:106A30009A70E36983F803B0E1690422204601F00B
:106A4000E6F8666218EE103A9D466DE7B8F1040F5D
:106A500015D113F801E01944023A91F801B00CF194
:106A60000501294419440BEB0E2BD047E369502252
:106A70001A70E36902221FFA8BFB5A70D5E719449A
:106A8000D047DFE7502A08D19A78D97801EB022164
:106A900089B22046FFF7D9FE46E7402A12D1626B41
:106AA000002A3FF441AFBBF1040F7FF43DAF11F07A
:106AB000060F7FF439AF9978D87800EB012080B2C7
:106AC000904731E7602A08D19A78D97801EB022102
:106AD00089B22046FFF7DDFE26E7702ADFD0902A34
:106AE0003FF422AFC02A0AD1D0221A70E3690022F3
:106AF0005A70E1690222204601F089F814E7D02A91
:106B000004BF002384F82C300EE7F7B504460F4687
:106B10001646FFF70BFD054610B3214601A8FFF707
:106B2000E5FB238C01339BB2EBB12384238CE26918
:106B30001B0A5371E369228C9A71E2690723394673
:106B40002046FFF7D7FCE3691E54043883B2E2699C
:106B500082212046FFF792FC054601A8FFF7D1FBF2
:106B6000284603B0F0BD0123DFE70022FFF7CDBFC9
:106B700000F022BB00F080B87047704770470000FB
:106B800003065ABF024B53F820000020704700BF95
:106B9000408F0B0003065ABF024B53F82000002021
:106BA000704700BF40910B0008B5024B1B68DB68C3
:106BB000019308BD4802030008B5024B1B68DB695E
:106BC000019308BD4802030008B5024B1B681B6A0D
:106BD000019308BD4802030008B5024B1B685B6ABD
:106BE000019308BD4802030008B5024B1B689B6A6D
:106BF000019308BD4802030008B5024B1B68DB6A1D
:106C0000019308BD4802030008B5024B1B681B6BCB
:106C1000019308BD4802030008B5024B1B689B6B3B
:106C2000019308BD4802030008B5024B1B681B6CAA
:106C3000019308BD4802030008B5024B1B685B6C5A
:106C4000019308BD4802030008B5024B1B681B6F87
:106C5000019308BD4802030008B5024B1B685B683E
:106C6000019308BD1802030008B5024B1B68DB68DE
:106C7000019308BD1802030008B5024B1B685B694D
:106C8000019308BD1802030008B5024B1B685B683E
:106C9000019308BD2C02030008B5024B1B689B68DA
:106CA000019308BD2C02030008B5024B1B68DB688A
:106CB000019308BD2C02030008B5024B1B681B6939
:106CC000019308BD2C02030008B5024B1B685B69E9
:106CD000019308BD2C02030008B5024B1B689B6A98
:106CE000019308BD2C02030008B5024B1B681B6B07
:106CF000019308BD2C02030008B5024B1B689B6F73
:106D0000019308BD2C02030008B5024B1B681B6AE7
:106D1000019308BD2802030008B5024B1B685B6A9B
:106D2000019308BD2802030008B5024B1B689B6A4B
:106D3000019308BD2802030008B5024B1B68DB6AFB
:106D4000019308BD2802030008B5024B1B681B6BAA
:106D5000019308BD2802030008B5024B1B685B6B5A
:106D6000019308BD2802030008B5024B1B681B6C89
:106D7000019308BD2802030008B5024B1B685B693C
:106D8000019308BD6C02030008B5024B1B685B69E8
:106D9000019308BD6402030008B5024B1B681B6A1F
:106DA000019308BD6402030008B5024B1B685B6ACF
:106DB000019308BD6402030008B5024B1B689B6A7F
:106DC000019308BD6402030008B5024B1B689B6871
:106DD000019308BD6802030008B5024B1B68DB681D
:106DE000019308BD6802030008B5024B1B689B694C
:106DF000019308BD3802030008B5024B1B68DB692C
:106E0000019308BD3802030008B5024B1B681B6ADA
:106E1000019308BD3802030008B5024B1B689B6A4A
:106E2000019308BD3802030008B5024B1B681B6BB9
:106E3000019308BD3802030008B5024B1B689B6B29
:106E4000019308BD3802030008B5024B1B681B689C
:106E5000019308BD3002030008B5024B1B685B6953
:106E6000019308BD3002030008B5024B1B68DB69C3
:106E7000019308BD3002030008B5024B1B681B6A72
:106E8000019308BD3002030008B5024B1B685B6A22
:106E9000019308BD3002030008B5024B1B68DB6B91
:106EA000019308BD3002030008B5024B1B681B6C40
:106EB000019308BD3002030008B5024B1B685B6CF0
:106EC000019308BD3002030008B5024B1B68DB6864
:106ED000019308BD3C02030008B5024B1B681B6907
:106EE000019308BD3C02030008B5024B1B685B69B7
:106EF000019308BD3C02030008B5024B1B689B6967
:106F0000019308BD3C02030008B5024B1B68DB6916
:106F1000019308BD3C02030008B5024B1B681B6AC5
:106F2000019308BD3C02030008B5024B1B689B6A35
:106F3000019308BD3C02030008B5024B1B681B6CA3
:106F4000019308BD3C02030008B5024B1B681B6897
:106F5000019308BD4C02030008B5024B1B685B6837
:106F6000019308BD4C02030008B5024B1B681B6966
:106F7000019308BD4C02030008B5024B1B685B6916
:106F8000019308BD4C02030008B5024B1B689B69C6
:106F9000019308BD4C02030008B5024B1B68DB6976
:106FA000019308BD4C02030008B5024B1B681B6A25
:106FB000019308BD4C02030008B5024B1B685B6BD4
:106FC000019308BD6002030008B5024B1B681B6DEE
:106FD000019308BD6002030008B5024B1B685B68A3
:106FE000019308BD2002030008B5024B1B685B69D2
:106FF000019308BD2002030008B5024B1B68DB6A41
:10700000019308BD2002030008B5034B1B68D3F8A9
:107010008830019308BD00002002030008B5034B2F
:107020001B68D3F89430019308BD000020020300D0
:1070300008B5024B1B689B68019308BD440203001E
:1070400008B5024B1B68DB69019308BD44020300CD
:1070500008B5024B1B68DB6B019308BD44020300BB
:1070600008B5024B1B685B68019308BD4002030032
:1070700008B5024B1B689B68019308BD40020300E2
:1070800008B5024B1B68DB68019308BD4002030092
:1070900008B5024B1B681B69019308BD4002030041
:1070A00008B5024B1B685B69019308BD40020300F1
:1070B00008B5024B1B689B69019308BD40020300A1
:1070C00008B5024B1B68DB69019308BD4002030051
:1070D00008B5024B1B681B6A019308BD4002030000
:1070E00008B5024B1B681B6B019308BD40020300EF
:1070F00008B5024B1B685B6B019308BD400203009F
:1071000008B5024B1B681B6C019308BD40020300CD
:1071100008B5024B1B685B6C019308BD400203007D
:1071200008B5024B1B681B68019308BD1C020300D5
:1071300008B5024B1B685B68019308BD1C02030085
:1071400008B5024B1B689B68019308BD1C02030035
:1071500008B5024B1B68DB69019308BD1C020300E4
:1071600008B5024B1B685B6A019308BD1C02030053
:1071700008B5024B1B68DB6B019308BD1C020300C2
:1071800008B5024B1B681B6C019308BD1C02030071
:1071900008B5024B1B685B6C019308BD1C02030021
:1071A0008A4210B507D0441A0298C01A4443501AB4
:1071B00094FBF0F0184410BD0021FFF715BF00004C
:1071C000024800230360FFF737BD00BFCCE6032071
:1071D000002240681146FFF77BBF0022406811463D
:1071E000FFF786BF40680022FFF77ABF40680022A1
:1071F00081F00101FFF764BF002340681A46194679
:10720000FFF756BF002340681A461946FFF748BFEC
:10721000002240681146FFF73BBF0022406811463C
:10722000FFF726BF406800220221FFF729BF002395
:1072300040681A46FFF714BF024B03225A60024A05
:107240001A607047D0E6032050930B007047F8B5E2
:10725000064615460C468F18BC4206D0336814F813
:10726000011B9B6830469847F6E72846F8BD007C2E
:107270000022FFF749BD007C0021FFF74DBD007CD7
:107280000021FFF751BD007C0021FFF755BD007CB8
:107290000021FFF759BD10B514210446FDF7C7FBC7
:1072A000204610BD38B5044615464FF47A730022C7
:1072B000C4E90123094B2174084623602946FFF7DE
:1072C00053FDBF3008D16B69DB0705D56868FFF750
:1072D0002FFFE868FFF72CFF204638BD8C930B008A
:1072E000704710B518210446FDF7A1FB204610BDDC
:1072F000F0B5037D062B8DB00E4600F104074FF06C
:10730000000412D000F1080515F8011D0A223046CC
:1073100000F073F9AF42044419D0002CF4D02E21B0
:10732000304600F051F90444EEE72F236A4639460F
:107330000A208DF80040FFF727FD6846FDF72EFB79
:1073400033680246DB686946304698470446204663
:107350000DB0F0BD10B5054B0446112240F8043BBA
:10736000002101F0A5FB204610BD00BFB4930B0027
:107370000346074A10B543F8042B01F1100251F8F7
:10738000044B43F8044B9142F9D10A781A7010BDAE
:10739000B4930B00037D042B04D14068003818BF60
:1073A00001207047062B07D143683BB983682BB98E
:1073B000C3681BB90069F1E70020704701207047DE
:1073C00010B59DF8084044EA032343EA024242EA2A
:1073D000016104234160037510BD000007B5064B31
:1073E0000360CB7800938B784A780978FFF7E8FF41
:1073F00003B05DF804FB00BFB4930B00014B024ADD
:107400001A607047D8E60320C0930B000023406841
:107410001A46FFF725BE406800220221FFF730BE62
:10742000002240681146FFF723BE00224068114643
:10743000FFF72EBE002340681A461946FFF730BEFC
:10744000002340681A461946FFF732BE4068002103
:10745000FFF756BE40680021FFF75ABE4068002281
:1074600081F00101FFF72CBE40680022FFF738BE13
:10747000002240681146FFF73BBE002240681146DB
:10748000FFF726BE2DE9F04395B014460D4607469A
:10749000FFF760FF00211C220DA8009101F008FBFE
:1074A00040230C9320466B460CAA0021FFF794FC66
:1074B000044600284BD1024601216868FFF7E8FD29
:1074C0000221804622466868FFF7E2FD009E814661
:1074D0002146002E3BD0002939D17368022B03D0FE
:1074E0000A2B11D0F669F4E7B8F1000FFAD07169F0
:1074F00006A8043107ADFFF771FF0FCD3C1D0FC487
:107500002B6823704146EDE7B9F1000FEAD07469AA
:10751000102201A801F0CCFA06238DF8143001AD39
:1075200004F108031834186859682A4603C208335E
:10753000A3421546F7D101A906A807ADFFF718FF2A
:107540000FCD3C1D0FC42B6823704946CAE7009835
:10755000FFF73AFC384615B0BDE8F083024B034A0A
:107560001A6000225A607047DCE60320CC930B00BF
:10757000F8B506460D468F180024BD420CD033687E
:1075800015F8011B9B6830469847031E01DB1C441D
:10759000F3E7002C08BF1C462046F8BD13B504468F
:1075A000084659B10191FDF7F9F923680199DB68A3
:1075B0000246204602B0BDE81040184702B010BD98
:1075C00008B5FFF7EBFF08BD03689B68184738B59F
:1075D0000D210546FFF7F8FF0A2104462846FFF76C
:1075E000F3FF204438BD38B50546FFF7D7FF044602
:1075F0002846FFF7ECFF204438BD30B58BB00023A0
:10760000012A8DF8243098BF0A2209AC0D46B1FB3F
:10761000F2F101FB125303F0FF03092B94BF303347
:107620003733DBB2AA4204F8013DEFD92146FFF718
:10763000B5FF0BB030BD00002DE9F74F55EC104BF6
:1076400006460F4610EE102A10EE100A2B46294669
:10765000FDF73CF940B153493046FFF79FFF8246A2
:10766000504603B0BDE8F08F25F000494E4B4FF077
:10767000FF3220464946FDF729F948B94A4B4FF0F9
:10768000FF3220464946FDF703F908B94749E3E7C9
:10769000474B4FF0604220462946FDF70DF908B1EF
:1076A0004449D9E7444B4FF0604220462946FDF754
:1076B000E5F80028F4D10022002320462946FDF7F2
:1076C000DDF8D0B12D213046FFF77EFF05F10043F4
:1076D00082461D463949DFF8EC904FF0000B002040
:1076E0004FF000085FFA8BF39F4208D942464B46A1
:1076F000FCF77CFF0BF1010BF4E78246EAE7224638
:107700002B46FCF793FC0D460446FDF71DF9804619
:10771000FCF7C8FD02460B4620462946FCF784FCD0
:107720000A2204460D4630464146FFF766FF824472
:10773000002F95D02249DFF88C903046FFF72EFFBE
:107740004FF000088244002F8AD042464B46204624
:107750002946FCF721FE04460D46FDF7CDF8B0F1B1
:10776000000B1CDA2D213046FFF72EFFCBF1000174
:1077700003460A2230460193FFF73FFF019B18445E
:1077800082445846FCF79EFD02460B462046294699
:10779000FCF74AFC013F04460D46FFB2D3E75946C9
:1077A0000023E6E700940B00FFFFEF7F04940B003B
:1077B000FFFFEF4108940B00FFFFEFC10000E03F27
:1077C0000C940B000000244038B5C9B20546FFF701
:1077D00033FF04462846FFF7FAFE204438BD2DE962
:1077E000F04186B000AF05460E46381D1421144600
:1077F0003B60FFF7B5FC13280ED8391D2846FFF76C
:10780000CDFE04461EB12846FFF7E1FE04442046A3
:107810001837BD46BDE8F08100F1080323F00703E7
:10782000E846ADEB030D2246411C3B686846FFF776
:1078300097FC69462846FFF7B1FE0446C546E1E7D6
:10784000014B00229A607047E4E603200021FFF715
:1078500033BB0021FFF728BB10B504460846217052
:10786000FFF702FB00236360204610BD13B50446FA
:1078700000780191FFF7EDFF019948B92078019058
:10788000FFF7E2FA019802B0BDE81040FFF7DEBF53
:1078900002B010BD0078FFF7D9BF0000400830B536
:1078A0001860002418688842E5B206D90134082C13
:1078B00002D040081860F5E70725024B5B5D1370A6
:1078C00030BD00BF0E940B002DE9F04306468FB08B
:1078D00000780C46FFF7BDFF00281BDB357814222B
:1078E000002109A801F0E4F80B23002209A9284689
:1078F000ADF82430FFF7C8FA9DF82D3013B19DF88C
:107900002C5055B10027B946B846012523795DB101
:10791000C3B100200FB0BDE8F083DDF830809DF8E2
:1079200034909DF83570F1E7002B35D1A3684345BD
:1079300008D18DF820908DF82170BDF82020A38902
:107940009A42E6D00023A1688DF80F300A9804AB64
:107950000DF10F02FFF7A2FF217985B989B9A3685C
:1079600043450ED38DF820908DF82170BDF820206E
:10797000A3899A4205D1049B434502D1C9E7002956
:10798000F9D100230193637B00939DF80F20237BA3
:107990003078FFF781FABCE7CDE900552B462A463F
:1079A0000121F5E708B50078FFF756FAC0B208BD27
:1079B00010B50446FFF760F9E060236820465B6974
:1079C0009847002808DAFFF757F9E368C01AA36858
:1079D0009842F2D34FF0FF3010BD2DE9F041074639
:1079E0000C468E180D46B542A5EB040807D0384664
:1079F000FFF7DEFF031E02DB05F8013BF3E740461D
:107A0000BDE8F08110B504460068FFF791FB204601
:107A100010BD10B50446006808B1FFF789FB0023CC
:107A2000C4E90133236010BD38B504460D46006833
:107A30000131FFF785FB10B1C4E90005012038BD15
:107A400010B50368044623B143688B4201D301207B
:107A500010BD2046FFF7E8FF0028F9D0A368002BEF
:107A6000F5D122681370F2E737B50D461146019241
:107A70000446FFF7E5FF019A28B92046FFF7C9FF42
:107A8000204603B030BDA2602946206801F002F80C
:107A90002268A3680021D154F2E7002313B5C0E99E
:107AA000003304468360037341B108460191FCF73B
:107AB00075FF019902462046FFF7D6FF204602B027
:107AC00010BD38B5054600680C4668B16A688B6819
:107AD0009A4207D3096801F021F8A368AB6000233C
:107AE000A36038BDFFF724FB23682B6063686B60DD
:107AF000A368AB600023C4E90033F1E7884210B506
:107B0000044605D00B682BB18A681946FFF7ACFF15
:107B1000204610BDFFF77DFFFAE710B500230446AD
:107B2000C0E9003383600373FFF7E8FF204610BD10
:107B3000884210B5044601D0FFF7C3FF204610BDB0
:107B400013B5044659B108460191FCF727FF019986
:107B500002462046FFF788FF204602B010BDFFF71F
:107B600058FFF9E710B504468AB00023C4E9003392
:107B7000A3602373084601A900F080FC01A92046F8
:107B8000FFF7DEFF20460AB010BD70B505460E4671
:107B900009B9002070BD6AB1846814442146FFF71A
:107BA0004FFF0028F5D02868AB683146184400F034
:107BB000B5FFAC600120EDE710B58A68096804469E
:107BC000FFF7E3FF10B92046FFF723FF204610BD63
:107BD000054B02221A60054B054A9A600020C3E952
:107BE0000000FFF7F9B900BF00E70320F4E6032027
:107BF0000000FFFF13B503688DF80710DC6B01224E
:107C00004FF0FF330DF10701A04702B010BD10B4D3
:107C10000368DC6B4FF0FF33A4465DF8044B60470C
:107C200013B5134602688DF80710D46B0DF10701E8
:107C30000122A04702B010BD10B54369B3F88620F9
:107C4000B3F884309A42044608D06369B3F88420BC
:107C5000511CA3F884101344187910BD03681B69E4
:107C600098470028F1D14FF0FF30F6E7704743699D
:107C70001868C043C00F704770470000064B994218
:107C800010B500F10C0405D0084600F0E3FD002813
:107C900008BF0024204610BD40930B0010B5AC2156
:107CA0000446FCF7C4FE204610BDAC21FCF7BFBE65
:107CB0002DE9F0414FF0000886B01C46C0F8048062
:107CC00005460E4617464146102202A800F0F0FE77
:107CD000631C09D04FF47A73B4FBF3F203FB124434
:107CE000CDE902285C43049468691023009300687E
:107CF00002AB41F2050240F6FF71FFF775F800286C
:107D000007DAFFF735FA03686B60002006B0BDE8BC
:107D1000F0816869002300683A463146FFF784F82D
:107D2000031EEEDB1846F1E738B584690A4B0360A1
:107D300005467CB16368013B63605BB923682046FC
:107D40009B689847A368013BA3601BB92368204642
:107D5000DB689847284638BD54940B0010B504469C
:107D6000FFF7E2FF20461C21FCF761FE204610BD14
:107D700030B587B0044601AD6846FFF72FFB0FCD45
:107D800004340FC42B68237007B030BD70B54D6943
:107D9000054B04468C3544F8043B06460FCD0FC412
:107DA0002B682370304670BDB4930B002DE9F0436F
:107DB0009846036893B00D460024DB6A06461746D2
:107DC000984728466B46224621460094FFF704F860
:107DD0000546002863D1009B002B4BD05B69002B2C
:107DE00048D006A8FFF7B6FA009B5C696378022BBF
:107DF00004D1211D06A8FFF7BBFF26E00A2B24D1E2
:107E00001122294601A800F053FEA368002B38D0A8
:107E100004F108030DF1040C18341868596862461F
:107E200003C20833A3429446F7D1062301A90CA844
:107E30008DF81430FFF79CFA0DF1340CBCE80F00FC
:107E400007AC0FC4DCF80030237006A8FFF7A2FAD5
:107E500080B1336807ADD3F82090124B0C930FCD4F
:107E60000DAC0FC42B6823703A4643460CA930462C
:107E7000C84705460098FEF7A7FF284613B0BDE89F
:107E8000F083E368002BC3D14FF6FF70D4F8109055
:107E9000FEF782FF8145BBD104F11401AAE7254614
:107EA000E8E700BFB4930B0038B543691A68002AAD
:107EB000054610DAB3F88620B3F884309A420AD126
:107EC00003681B699847044628B92B682846DB6A73
:107ED0009847204638BD0120FCE710B54369B3F848
:107EE0008620B3F884309A42044605D06369B3F81B
:107EF00084201344187910BD03681B699847002833
:107F0000F4D14FF0FF30F6E7F8B543691746B3F800
:107F10008620B3F884309A4205460E4616D0696929
:107F2000B1F88430B1F88640E41ABC4228BF3C4620
:107F3000043322461944304600F0ACFD6A69B2F8B9
:107F400084302344A2F884302046F8BD03681B69BE
:107F500098470028E3D14FF0FF34F5E7426900234A
:107F6000A2F884304269A2F8863070472DE9F041CA
:107F70001F4603680C46DB6A8AB0054616469847DA
:107F8000237DD5F81480042B0CBF02200A20062282
:107F90000121FEF751FFC8F800006B691B68002B38
:107FA00008DA2B682846DB6A0024984720460AB086
:107FB000BDE8F0812846FFF7D1FFB7B1002303A940
:107FC000F8B20393ADF81030FEF7D6FE0028E8D1E2
:107FD000686906230093006803AB41F20B0240F688
:107FE000FF71FEF701FF0028DBD11C22002103A84E
:107FF00000F05EFD237D042B1DD14FF40773304646
:10800000ADF80C30FEF7D8FEADF80E006068FEF754
:10801000C3FE04906B691C22186803A9FEF7F4FEE6
:108020000028BED104340FCC6D698C350FC5236890
:108030002B700124BAE740F61C233046ADF80C3013
:10804000FEF7BAFE05AEADF80E00231D04F11407CD
:1080500018685968324603C20833BB421646F7D146
:10806000D8E7000030B54269B2F886308BB00446DC
:108070002BB1B2F884209A4201D1FFF76FFF6169FA
:108080000868002818DBB1F886507F2D14D8043119
:108090000823C5F180022944FEF7BEFE002813DD47
:1080A0006369B3F886200AB9A3F884206369B3F83A
:1080B00086201044A3F886006369B3F88600B3F8FD
:1080C0008430C01A0BB030BDFFF752F803680B2B99
:1080D000F2D0FFF74DF803680B2BEDD020230025DD
:1080E000CDE90235FFF744F803680193084B0949CD
:1080F000009302AA2B463220FEF766FF63691868D8
:10810000FEF77AFE63694FF0FF321A60D4E700BFD2
:108110001D940B0016940B0010B5436904461868B3
:10812000002801DBFEF768FE63694FF0FF321A603A
:108130006069112200218C3000F0BAFC2046BDE8B5
:108140001040FFF70BBF10B5002304460160C0F8D4
:1081500084308830FFF7FEF8204610BD73B5002349
:108160004FF47A72C0E901320E4A03610260436142
:108170000446AC200191FCF754FC051E05F10C06E9
:1081800008D00123C5E90133074B01992B60304624
:10819000FFF7D9FF2046C4E90565FFF7DFFE02B00F
:1081A00070BD00BF54940B0038940B0010B54FF015
:1081B000FF310446FFF7D2FF204610BD10B504463C
:1081C0000068002801DBFEF717FE204610BD0C30CA
:1081D000FFF7F4BF024B1A68024B1A60704700BFEA
:1081E00010E4032004E7032070474174704708B58A
:1081F000007CFEF799FE20EAE07008BD08B5007C1F
:10820000FEF76AFE20EAE07008BD08B5007CFEF7C4
:1082100073FE40EAE07008BD08B5007CFEF764FE1E
:1082200040EAE07008BD007CFEF76EBE37B5457CC5
:1082300004462DB1207C03B0BDE83040FEF744BEBB
:10824000007C0191FEF770FE00280199F2DC2846BF
:1082500003B030BD10B514210446FCF7E8FB2046FE
:1082600010BD000010B54FF47A730446084611465D
:108270000022C4E90123044B2360012320746374AA
:10828000FEF75AFE204610BDBC940B0041747047A7
:108290007047704708B50021007CFEF775FE40EA84
:1082A000E07008BD08B50121007CFEF76DFE40EAD4
:1082B000E07008BD08B5007CFEF75EFE20EAE070C5
:1082C00008BD08B5007CFEF74FFE20EAE07008BD4F
:1082D00013B50446007C0191FEF74EFE002801997B
:1082E00001DC607C20B1207CFEF756FE20EAE070C5
:1082F00002B010BD007CFEF757BE10B51421044635
:10830000FCF795FB204610BD10B54FF47A73044678
:1083100008460021C4E90113044B236001232074A3
:1083200063741146FEF710FE204610BDEC940B005E
:10833000007C0022FEF710BE10B514220446002176
:1083400000F0B6FB204610BD10B50F4C88B003A856
:10835000FFF7F2FF2178BFF35B8F11F001010FD11E
:1083600020460191FCF772FB019948B103AA074826
:10837000FFF7CAFF2046FCF76EFB054800F07CFBC8
:10838000024808B010BD00BF08E703200CE7032037
:1083900091820B00002240681146FEF779BE002250
:1083A00040681146FEF794BE002240681146FEF771
:1083B0009FBE40680022FEF793BE4068002281F015
:1083C0000101FEF77DBE002340681A461946FEF7FC
:1083D0006FBE002340681A461946FEF761BE0022B0
:1083E00040681146FEF744BE406800220221FEF7B5
:1083F00047BE002340681A46FEF732BE024B0422F5
:108400005A60024A1A60704720E703201C950B004F
:1084100010B50446FCF7C2FA0138231820468342FF
:1084200006D90278197800F8011B03F80129F6E74C
:1084300010BD70B50C46911E22291DD8254630B9B5
:10844000234430229D4210D205F8012BFAE7B0FBFD
:10845000F2F602FB1600C1B2092894BF3031573141
:10846000C9B205F8011B3046E9E7002320462B700E
:10847000FFF7CEFF204670BD0020FCE738B5031E95
:108480000C4615460EDAB3F1004F4FF02D0214BF23
:108490005842184601230A702A461944FFF7C9FFBB
:1084A000204638BD0123F9E7014B1860704700BF33
:1084B00014E4032008B50B4B43B1FFF745FF0368F5
:1084C0001B699847002801DDAFF30080064B43B1DC
:1084D00000F09AF903681B699847002801DDAFF3A3
:1084E000008008BD000000000000000008B5FFF794
:1084F000E1FFFEF7C1FB014B186008BD30E7032028
:108500000548064A064908B5121A00F0C3FA054B99
:10851000054A1A6008BD00BF00F4032004F40320DC
:1085200084980B0000F403201E1C279A07B5002333
:1085300000931A466FF07701FEF770FD03B05DF807
:1085400004FB000007B543880A2B08D0502B0BD141
:10855000094B1B684BB103B05DF804EB1847FFF7FC
:10856000E5FF03B05DF804FB002300931A466FF0AB
:108570007701FEF753FDF4E72CE7032010B512480E
:108580000021FEF705FE114B1A68114B9A42114B60
:108590000CBF012200221A7001D0FFF7B1FFFEF7D5
:1085A0005BFB044600F08CFA0B4B13B12046AFF393
:1085B000008000210848FEF74BFDBDE81040074849
:1085C0000021FEF721BD00BFA9840B0000F40320A9
:1085D0001E1C279A28E703200000000045850B0099
:1085E000232813B502D9002002B010BDA0F10B035F
:1085F000022B1AD8174C2178BFF35B8F11F00101C1
:108600000BD120460191FCF721FA019928B11248BB
:10861000FFF722F92046FCF71EFA0F4B1878FEF7F9
:108620002BFC0028DFD10120DEE7012809D800F06B
:10863000ABF80021007CFEF78FFB80F00100C0B298
:10864000D2E709380128EED800F0DEF8007CFEF70A
:1086500063FCF2E780E4032084E40320232838B598
:1086600004460D460AD8FF2908D0FFF7B9FF28B104
:1086700029462046BDE83840FEF70EBB38BD38B568
:1086800004460D46FEF710FBFF2810D0062804D83C
:108690004D2323FA00F0C30709D42046FFF7A0FFBB
:1086A00028B129462046BDE83840FEF705BB38BD55
:1086B00010B50446FEF7F8FA031FDBB2012B08D908
:1086C0002046FFF78DFF20B12046BDE81040FEF7A1
:1086D000FBBA002010BD0D2810B504469CBF0E3417
:1086E000A4B22046FFF77CFF50B103212046FEF7DD
:1086F000CBFA032804D12046BDE81040FEF7F4BAB7
:10870000002010BD38B504460D46FFF769FFF0B1F3
:1087100004212046FEF7B8FA042805D1A9B2204664
:10872000BDE83840FEF7D8BA02212046FEF7ACFA81
:1087300002280CD12046FEF7B7FA012801D0042800
:1087400005D129462046BDE83840FEF7D5BA38BDE8
:108750007047000038B50A4B0360012304464361AB
:108760000849202000F074F8202560600549A560C4
:10877000284600F06DF8C4E90305204638BD00BF67
:108780001800010050950B0030B50E4D2978BFF34D
:108790005B8F11F0010487B011D12846FCF756F920
:1087A00068B16846FFF7D6FF6A4621460648FEF7DD
:1087B00079FD2846FCF74FF9044800F05DF90248BE
:1087C00007B030BD34E7032038E7032051870B00A2
:1087D0007047000038B5044614252A46002100F0F1
:1087E00067F925804025074925812846258200F024
:1087F0002FF804496060284600F02AF8E06020461F
:1088000038BD00BF50950B0030B50E4D2978BFF331
:108810005B8F11F0010487B011D12846FCF716F9DF
:1088200068B101A8FFF7D6FF01AA21460648FFF765
:1088300019FD2846FCF70FF9044800F01DF902481D
:1088400007B030BD4CE7032050E70320D1870B0071
:10885000FCF7E9B8014900F0F9B800BF6C950B00CE
:108860007FB500241023CDE90234036815469E69C4
:1088700012686B46CDE90044B0479DF8043003F020
:108880000603062B03BF009B2B600120204604B08B
:1088900070BD0098904214BF012006207047000070
:1088A00010B5034B0360044600F0CDF8204610BD20
:1088B000AC950B0010B50446FFF7F2FF20460821E7
:1088C000FCF7B5F8204610BD2DE9F0411F46DDE963
:1088D0000834DDF8188098450646154607D10799F3
:1088E00000F0B4F818B165710020BDE8F081394698
:1088F000304600F0ABF80028F6D00123C4F8008021
:108900002571A371F0E738B515461C4600F09EF8B6
:1089100020B10823E36006232560237138BD73B5B9
:1089200005460C4601921E4600F090F850B9032E01
:1089300008D82368019A5B692946204602B0BDE841
:108940007040184702B070BD10B5034B0360044679
:10895000FFF7A6FF204610BD0C960B0010B504468D
:10896000FFF7F2FF20460C21FCF761F8204610BD0E
:10897000F7B5089F974205460E4614460AD0A868E8
:1089800002680897156A31462246AC4603B0BDE836
:10899000F04060471946019300F058F8019B002809
:1089A000EDD0062003B0F0BD2DE9F14F0D4619467C
:1089B000DDE90A4BDDE90CA681461746984600F032
:1089C00045F890B1002D3460377109DB61198A4593
:1089D0000CBF06210121B171002001B0BDE8F08F6C
:1089E0000235F9D10123B371F6E7544506D1594652
:1089F000484600F02BF808B17771EDE7D9F8080088
:108A00000368CDE90CA6CDE90A4BDC693A4643463A
:108A10002946A44601B0BDE8F04F60472DE9F0417A
:108A200007460C4615461E46FFF76DFF48B9B86865
:108A300003689F692A4633462146BC46BDE8F0419B
:108A40006047BDE8F081704700207047814208B55B
:108A50000ED0406803782A2B0CD049680B782A2B5B
:108A600008BF0131FBF790FFB0FA80F0400908BD64
:108A70000120FCE70020FAE7002301461A461846C9
:108A800000F0F4B80A22002100F0E6B80A22002122
:108A900000F0E2B80A44914200F1FF3300D1704780
:108AA00010B511F8014B03F8014F9142F9D110BDF7
:108AB00002440346934200D1704703F8011BF9E7D3
:108AC00038B5104B1D68AB6B0446B3B91820FEF7E0
:108AD00027FB0246A86320B90B4B0C484221FEF746
:108AE0004FFB0B490B4BC0E900130B4B83600B236F
:108AF000838100210120C2E90401AB6B00221C61CB
:108B00005A6138BD14E4032045960B005C960B00B7
:108B10000E33CDAB34126DE6ECDE0500034611F8E2
:108B2000012B03F8012B002AF9D1704710B5013948
:108B3000034632B111F8014F03F8014B013A002C02
:108B4000F7D11A440021934200D110BD03F8011B54
:108B5000F9E70000012B2DE9F04701D0242B06D9BD
:108B6000FEF706FB162303600020BDE8F087DFF860
:108B7000E4C00D462E4615F8014B14F80C7017F0A2
:108B80000807F7D12D2C32D12C780127B51C002BEA
:108B90005BD0102B09D1302C07D12C7804F0DF04E6
:108BA000582C4DD16C781023023507F1004808F19C
:108BB000FF384FF0000CB8FBF3F9664603FB198A47
:108BC000A4F1300EBEF1090F16D87446A34224DD7D
:108BD000BCF1000F1EDBB1451CD301D1A24519DB4E
:108BE00006FB03464FF0010C15F8014BE8E72B2C70
:108BF00004BF2C78B51CCAE7A4F1410EBEF1190FD1
:108C000001D8373CE2E7A4F1610EBEF1190F04D898
:108C1000573CDBE74FF0FF3CE6E7BCF1000F05DA1D
:108C200022230360464642B930469EE707B17642AA
:108C3000002AF9D0BCF1000F00D0691E1160F3E7E3
:108C40003024002BB1D10823AFE7302CA5D00A2364
:108C5000ABE700BFB6960B0013460A460146024832
:108C60000068FFF777BF00BF14E403202DE9F84345
:108C7000DFF8B8800646D8F800001F460D4691463A
:108C800000F056F8254B1C6834B9254C1C60254B68
:108C900013B11B68C4F8883063681F2B07DDD8F850
:108CA000000000F047F84FF0FF30BDE8F8834EB306
:108CB000D4F8880088B91C4B23B9D8F8000000F01C
:108CC00038F8F0E74FF48470FEF72AFA0028F4D061
:108CD0000023C0E94033C4F88800636840F823905B
:108CE00001229A4000EB8301D0F800311343C0F811
:108CF0000031022EC1F8807002BFD0F80431134356
:108D0000C0F804316368D8F800005A1C023362606E
:108D100044F8235000F00EF80020C6E7F0E70320E7
:108D200064E703200000000021710B0078E40320B9
:108D3000704770477047000000044D5154540400C0
:108D4000064D514973647003AD490B00E9490B00AE
:108D5000114A0B00154A0B000000000043616C6CC7
:108D6000206F6E2070757265207669727475616C03
:108D70000064656661756C7420004D5342004C536D
:108D800042003C53504953657474696E67732064A4
:108D9000656661756C743E003C535049536574744C
:108DA000696E67732025732575202573204D4F4408
:108DB0004525753E00256900256C6900696E006FC8
:108DC00075740070776D0064770061770067657374
:108DD000747572654C616D7032006765737475727D
:108DE000654C616D7000746D706C00544D504C3268
:108DF000503878386365497400554C5645777A4742
:108E00004252714C3037354E4B4752454C51567A91
:108E10002D59704A61572D316E00626C796E6B2E40
:108E2000636C6F7564006C696768746F6E006C6961
:108E30006768746F6666006C61622E74686577633C
:108E40006C2E636F6D00323535003030303030308D
:108E500030303030303030000000000000000000C2
:108E60008D4B0B005D4A0B00BD4A0B00000000005B
:108E700000000000F54B0B00494C0B00CB4A0B00E7
:108E8000626C6E6B696E660076657200312E312EF3
:108E90003000682D62656174003435006275666665
:108EA0002D696E0031303234006465760050617295
:108EB0007469636C65204172676F6E0066772D740C
:108EC00079706500544D504C32503878386365499C
:108ED00074006275696C64004A756C20313220320E
:108EE0003032332031313A33383A303400000064C4
:108EF0006576696365206E6F7420666F756E6400B9
:108F00000000000000000000000000000000000061
:108F1000A9610B00354A0B00354A0B000000000028
:108F20000000000095600B0097600B00CB610B0008
:108F3000D5600B0017610B00A5600B00BF600B0034
:108F4000796B0B00796B0B00796B0B00796B0B0065
:108F5000796B0B00796B0B00796B0B00796B0B0055
:108F6000796B0B00796B0B00796B0B00796B0B0045
:108F7000796B0B00796B0B00796B0B00796B0B0035
:109350002F720B0025720B001B720B0011720B0099
:1093600005720B00F9710B004D740B0055740B0066
:10937000ED710B00E5710B00DB710B00D1710B007F
:1093800085740B0000000000000000004D720B000F
:1093900097720B006F720B004F720B0077720B000D
:1093A0007F720B0087720B008F720B0000000000B1
:1093B00000000000F1720B00E1720B00E3720B0081
:1093C0006170700000000000000000000D740B00D0
:1093D00017740B0021740B002B740B0035740B00F9
:1093E00041740B004D740B0055740B005D740B0041
:1093F00069740B0071740B007B740B0085740B0097
:109400006E616E00696E66006F7666002E00000861
:10941000101820283038776972696E6700726563AA
:1094200076206572726F72203D2025640000000076
:109430000000000000000000797C0B009D7C0B0008
:10944000CF810B00AB7C0B007D7C0B00000000008B
:1094500000000000297D0B005D7D0B00F57B0B00FB
:109460000F7C0B0065800B00397C0B00DB7E0B0052
:109470006D7C0B006D7F0B00AD7D0B00097F0B0039
:1094800019810B00A97E0B006F7C0B00217C0B0067
:10949000B17C0B008D7D0B0025592D256D2D25648C
:1094A0005425483A254D3A2553257A006173637453
:1094B000696D65000000000000000000E9810B00FC
:1094C00055820B002D820B0071750B00FD810B0086
:1094D00019820B000B820B0027820B00EB810B0023
:1094E000EF810B00000000000000000093820B00E1
:1094F000FB820B00D1820B0071750B00C3820B0045
:1095000095820B00A5820B00F5820B00B5820B0043
:109510008D820B000000000000000000F3830B00B0
:10952000E9830B00DF830B0095830B00D3830B00D3
:10953000C7830B004D740B0055740B00BB830B00ED
:10954000B3830B00A9830B009F830B0085740B0072
:1095500000537431395F53705F6D616B655F736881
:10956000617265645F74616700000000AC950B0078
:1095700051950B000C960B0080950B0030960B005C
:109580004E31305F5F637878616269763131375F81
:109590005F636C6173735F747970655F696E666F2A
:1095A000450000000000000074950B00A1880B002E
:1095B000B5880B00498A0B00498A0B001F890B00F4
:1095C00061880B0007890B00C9880B0093880B008A
:1095D0000C960B00DC950B0074950B004E31305F40
:1095E0005F637878616269763132305F5F73695F9B
:1095F000636C6173735F747970655F696E666F45E4
:109600000000000000000000D0950B0049890B000D
:109610005D890B00498A0B00498A0B001F890B00EA
:1096200061880B001D8A0B00A9890B0071890B0052
:10963000AC950B0038960B00537439747970655FE4
:10964000696E666F005245454E54206D616C6C6FBB
:109650006320737563636565646564002F746D7062
:109660002F6A656E6B696E732D4743432D31302D24
:10967000706970656C696E652D34385F32303230D8
:10968000313132345F313630363138303633392F7C
:109690007372632F6E65776C69622F6E65776C6984
:1096A000622F6C6962632F7374646C69622F7261DC
:1096B0006E642E63000020202020202020202028FF
:1096C000282828282020202020202020202020207A
:1096D00020202020202088101010101010101010B2
:1096E00010101010101004040404040404040404F2
:1096F0001010101010101041414141414101010171
:109700000101010101010101010101010101010149
:109710000110101010101042424242424202020256
:109720000202020202020202020202020202020219
:1097300002101010102000000000000000000000C7
:109740000000000000000000000000000000000019
:109750000000000000000000000000000000000009
:1097600000000000000000000000000000000000F9
:1097700000000000000000000000000000000000E9
:1097800000000000000000000000000000000000D9
:1097900000000000000000000000000000000000C9
:1097A00000000000000000000000000000000000B9
:1097B0000000000000000000C55E0B00C1710B003E
:1097C00039720B00FD730B005D750B0041780B00C7
:0C97D000D17B0B00D5810B00FD830B004A
:1097DC00040000001400000003000000474E550078
:1097EC008D355B460B8CC356617F20AD92EB04F23A
:0497FC004352D344BD
:109800004000000001010000FF0000000000000017
:10981000333333333333E33FAC940B0018E403208A
:109820000000000000000000000000000000000038
:109830000000000000000000000000000000000028
:109840000000000000000000000000000000000018
:109850000000000000000000000000000000000008
:1098600000000000000000000000000000000000F8
:1098700000000000000000000000000000000000E8
:04988000F4E70320E6
:0498840000000000E0
:10988E0000000102030405060708090A0B0C0D0E61
:10989E000F101112131415161718191A1B1C1D1E52
:0498AE001F2028004F
:0498B200785634129E
:04000003B0004020E9
:00000001FF
