:02000002B0004C
:1040000000400B0006860B00000006000C000502B5
:084010000401B41400000000DB
:04401800807F0B009A
:1040200081F0004102E000BF83F0004330B54FEA69
:1040300041044FEA430594EA050F08BF90EA020FD6
:104040001FBF54EA000C55EA020C7FEA645C7FEA69
:10405000655C00F0E2804FEA5454D4EB5555B8BF8C
:104060006D420CDD2C4480EA020281EA030382EAFD
:10407000000083EA010180EA020281EA0303362D8F
:1040800088BF30BD11F0004F4FEA01314FF4801C62
:104090004CEA113102D0404261EB410113F0004F74
:1040A0004FEA03334CEA133302D0524263EB43032B
:1040B00094EA050F00F0A780A4F10104D5F1200EC9
:1040C0000DDB02FA0EFC22FA05F2801841F1000124
:1040D00003FA0EF2801843FA05F359410EE0A5F1F8
:1040E00020050EF1200E012A03FA0EFC28BF4CF029
:1040F000020C43FA05F3C01851EBE37101F00045DF
:1041000007D54FF0000EDCF1000C7EEB00006EEBEB
:104110000101B1F5801F1BD3B1F5001F0CD3490875
:104120005FEA30004FEA3C0C04F101044FEA4452CC
:1041300012F5800F80F09A80BCF1004F08BF5FEA53
:10414000500C50F1000041EB045141EA050130BD33
:104150005FEA4C0C404141EB0101013C28BFB1F545
:10416000801FE9D291F0000F04BF01460020B1FA90
:1041700081F308BF2033A3F10B03B3F120020CDA63
:104180000C3208DD02F1140CC2F10C0201FA0CF041
:1041900021FA02F10CE002F11402D8BFC2F1200CA6
:1041A00001FA02F120FA0CFCDCBF41EA0C0190405C
:1041B000E41AA2BF01EB0451294330BD6FEA0404A5
:1041C0001F3C1CDA0C340EDC04F11404C4F1200290
:1041D00020FA04F001FA02F340EA030021FA04F3A2
:1041E00045EA030130BDC4F10C04C4F1200220FAF9
:1041F00002F001FA04F340EA0300294630BD21FA37
:1042000004F0294630BD94F0000F83F4801306BFFC
:1042100081F480110134013D4EE77FEA645C18BFF0
:104220007FEA655C29D094EA050F08BF90EA020F87
:1042300005D054EA000C04BF1946104630BD91EA7F
:10424000030F1EBF0021002030BD5FEA545C05D182
:104250004000494128BF41F0004130BD14F58004C1
:104260003CBF01F5801130BD01F0004545F0FE4135
:1042700041F470014FF0000030BD7FEA645C1ABF6A
:10428000194610467FEA655C1CBF0B46024650EAA1
:10429000013406BF52EA033591EA030F41F40021CD
:1042A00030BD00BF90F0000F04BF0021704730B553
:1042B0004FF4806404F132044FF000054FF0000128
:1042C00050E700BF90F0000F04BF0021704730B5E9
:1042D0004FF4806404F1320410F0004548BF4042BE
:1042E0004FF000013EE700BF42004FEAE2014FEA13
:1042F00031014FEA02701FBF12F07F4393F07F4FEE
:1043000081F06051704732F07F4208BF704793F0F0
:104310007F4F04BF41F40021704730B54FF4607403
:1043200001F0004521F000411CE700BF50EA010206
:1043300008BF704730B54FF000050AE050EA0102AF
:1043400008BF704730B511F0004502D5404261EB1F
:1043500041014FF4806404F132045FEA915C3FF460
:10436000D8AE4FF003025FEADC0C18BF03325FEAFD
:10437000DC0C18BF033202EBDC02C2F1200300FAAE
:1043800003FC20FA02F001FA03FE40EA0E0021FAD3
:1043900002F11444BDE600BF70B54FF0FF0C4CF4C1
:1043A000E06C1CEA11541DBF1CEA135594EA0C0F73
:1043B00095EA0C0F00F0DEF82C4481EA030621EAAE
:1043C0004C5123EA4C5350EA013518BF52EA0335E9
:1043D00041F4801143F4801338D0A0FB02CE4FF09B
:1043E0000005E1FB02E506F00042E0FB03E54FF0CB
:1043F0000006E1FB03569CF0000F18BF4EF0010EC3
:10440000A4F1FF04B6F5007F64F5407404D25FEABE
:104410004E0E6D4146EB060642EAC62141EA555171
:104420004FEAC52040EA5E504FEACE2EB4F1FD0CB3
:1044300088BFBCF5E06F1ED8BEF1004F08BF5FEA31
:10444000500E50F1000041EB045170BD06F00046E3
:1044500046EA010140EA020081EA0301B4EB5C0490
:10446000C2BFD4EB0C0541EA045170BD41F4801188
:104470004FF0000E013C00F3AB8014F1360FDEBFAD
:10448000002001F0004170BDC4F10004203C35DA89
:104490000C341BDC04F11404C4F1200500FA05F30C
:1044A00020FA04F001FA05F240EA020001F00042AD
:1044B00021F0004110EBD37021FA04F642EB060123
:1044C0005EEA430E08BF20EAD37070BDC4F10C044D
:1044D000C4F1200500FA04F320FA05F001FA04F211
:1044E00040EA020001F0004110EBD37041F10001FD
:1044F0005EEA430E08BF20EAD37070BDC4F1200508
:1045000000FA05F24EEA020E20FA04F301FA05F26F
:1045100043EA020321FA04F001F0004121FA04F217
:1045200020EA020000EBD3705EEA430E08BF20EAE7
:10453000D37070BD94F0000F0FD101F00046400021
:1045400041EB010111F4801F08BF013CF7D041EAA3
:10455000060195F0000F18BF704703F000465200A7
:1045600043EB030313F4801F08BF013DF7D043EA78
:104570000603704794EA0C0F0CEA135518BF95EA2E
:104580000C0F0CD050EA410618BF52EA4306D1D1B5
:1045900081EA030101F000414FF0000070BD50EAD4
:1045A000410606BF1046194652EA430619D094EA5E
:1045B0000C0F02D150EA013613D195EA0C0F05D148
:1045C00052EA03361CBF104619460AD181EA03019C
:1045D00001F0004141F0FE4141F470014FF0000054
:1045E00070BD41F0FE4141F4780170BD70B54FF0EF
:1045F000FF0C4CF4E06C1CEA11541DBF1CEA13556F
:1046000094EA0C0F95EA0C0F00F0A7F8A4EB050450
:1046100081EA030E52EA03354FEA013100F0888047
:104620004FEA03334FF0805545EA131343EA126310
:104630004FEA022245EA111545EA10654FEA0026C5
:104640000EF000419D4208BF964244F1FD0404F57E
:10465000407402D25B084FEA3202B61A65EB0305DA
:104660005B084FEA32024FF480104FF4002CB6EB97
:10467000020E75EB030E22BFB61A754640EA0C0017
:104680005B084FEA3202B6EB020E75EB030E22BF57
:10469000B61A754640EA5C005B084FEA3202B6EB98
:1046A000020E75EB030E22BFB61A754640EA9C0057
:1046B0005B084FEA3202B6EB020E75EB030E22BF27
:1046C000B61A754640EADC0055EA060E18D04FEAE5
:1046D000051545EA16754FEA06164FEAC30343EA85
:1046E00052734FEAC2025FEA1C1CC0D111F4801F52
:1046F0000BD141EA00014FF000004FF0004CB6E74B
:1047000011F4801F04BF01430020B4F1FD0C88BFE9
:10471000BCF5E06F3FF6AFAEB5EB030C04BFB6EBF4
:10472000020C5FEA500C50F1000041EB045170BDE7
:104730000EF0004E4EEA113114EB5C04C2BFD4EB14
:104740000C0541EA045170BD41F480114FF0000E98
:10475000013C90E645EA060E8DE60CEA135594EA14
:104760000C0F08BF95EA0C0F3FF43BAF94EA0C0F17
:104770000AD150EA01347FF434AF95EA0C0F7FF48C
:1047800025AF104619462CE795EA0C0F06D152EAE0
:1047900003353FF4FDAE1046194622E750EA4106C4
:1047A00018BF52EA43067FF4C5AE50EA41047FF4D5
:1047B0000DAF52EA43057FF4EBAE12E74FF0FF3C3A
:1047C00006E000BF4FF0010C02E000BF4FF0010C0B
:1047D0004DF804CD4FEA410C7FEA6C5C4FEA430C84
:1047E00018BF7FEA6C5C1BD001B050EA410C0CBFD3
:1047F00052EA430C91EA030F02BF90EA020F002035
:10480000704710F1000F91EA030F58BF994208BF9B
:1048100090422CBFD8176FEAE37040F00100704758
:104820004FEA410C7FEA6C5C02D150EA013C07D1AF
:104830004FEA430C7FEA6C5CD6D152EA033CD3D0FA
:104840005DF8040B704700BF8446104662468C46F4
:104850001946634600E000BF01B5FFF7B7FF002827
:1048600048BF10F1000F01BD4DF808EDFFF7F4FF50
:104870000CBF012000205DF808FB00BF4DF808EDDB
:10488000FFF7EAFF34BF012000205DF808FB00BFFE
:104890004DF808EDFFF7E0FF94BF012000205DF820
:1048A00008FB00BF4DF808EDFFF7CEFF94BF0120D5
:1048B00000205DF808FB00BF4DF808EDFFF7C4FFCE
:1048C00034BF012000205DF808FB00BF4FEA410221
:1048D00012F5001215D211D56FF47873B3EB625252
:1048E00012D94FEAC12343F0004343EA505311F079
:1048F000004F23FA02F018BF404270474FF000000B
:10490000704750EA013005D111F0004008BF6FF048
:10491000004070474FF00000704700BF10F8012BB7
:1049200011F8013B012A28BF9A42F7D0D01A7047EC
:10493000034613F8012B002AFBD1181A01387047DF
:1049400009480A49884208B505D0094A824202D07E
:10495000121A03F0CFF90748074A0021121A03F090
:10496000D7F9014808BD00BF70E4032054850B004F
:10497000F4E40320F8E40320F8E7032070B5074EC1
:10498000074C02F059FFA41BA4080025AC4200D13B
:1049900070BD56F8043B98470135F7E70C850B00CE
:1049A00030850B0000F048B908B500F0C1FCBDE847
:1049B000084002F0F9BE01F017BE01F015BE01F08B
:1049C0001BBE01F019BE000008B5034A03490C20C4
:1049D00001F05EFDFEE700BF71610B00947F0B00EC
:1049E0000078B0FA80F040097047012303707047E7
:1049F00070470000014B01221A70704774E40320D5
:104A0000014B00221A70704718E60320014B012267
:104A10001A70704738E6032098B502F1080323F0B6
:104A2000070300AFADEB030D1446684603F062F9CF
:104A3000002368460DF8043003F058F9034B0038A2
:104A400018BF01201870BD4698BD00BFB9E503200E
:104A500010B510210446FFF7B4FF204610BD43698E
:104A600013B183690C301847704713B50021044611
:104A7000084601F025FB0023204601A9019301F01F
:104A800037FB019C0CB1012323710021012001F0AF
:104A900017FB2CB1236820469B689847002323719D
:104AA00002B010BD012A02D1016000207047022A25
:104AB00004BF0B680360F8E70368184737B504467E
:104AC00080680D4630B10023CDE900331A4602213B
:104AD00001F016FBA06830B10023CDE900531A465F
:104AE000194601F00DFB03B030BD0EB403B503ABA6
:104AF000002153F8042B019301F0F9FF02B05DF897
:104B000004EB03B07047000073B5044608462279F1
:104B1000A36832B1A3B90B4902B0BDE8704001F0FF
:104B2000ABBF094A267B094D0949647B012E18BF9A
:104B30002946CDE900140749FFF7D7FF02B070BD41
:104B4000054AEFE7BA7F0B00B17F0B00B67F0B0081
:104B5000B27F0B00D07F0B00A97F0B0010B58368DC
:104B6000044613B1032201469847204610BD0000B9
:104B700037B5134B036004468068C8B100256FF059
:104B80000043CDE9003502212B462A4601F0B8FA50
:104B9000A068294601F0DCFA237903F0FF0513B180
:104BA00001F086FAF8E7A068294601F099FAA560B5
:104BB00004F10C00FFF7D2FF204603B030BD00BF68
:104BC00044800B0010B50446FFF7D2FF20461C219D
:104BD000FFF7F7FE204610BDF0B58C4600251449BE
:104BE000057104468560016092E8030085B002AF5C
:104BF00004F10C0687E8030096E8030082E803004E
:104C000097E8030086E803009168A0696161D168B4
:104C10009560D060A161CDE90035064A2346614622
:104C200004F1080001F054FA204605B0F0BD00BFC1
:104C300044800B006B4A0B0013B51F4C50212046DB
:104C400000F035FD21461D4800F094FD01210320B0
:104C500002F062FE0121042002F05EFE0121052027
:104C600002F05AFE0121062002F056FEFF231448EE
:104C70000093402200236FF03F01006801F0ECFC3C
:104C80000146062002F072FE0121032002F055FECB
:104C90000121042002F051FE0121052002F04DFE09
:104CA00008486FF00041FFF709FF0749074802B0C5
:104CB000BDE8104001F0F9B998E5032004E50320B0
:104CC00070E403201CE60320ED7F0B0034E5032095
:104CD00038B50D46C0F1FF010320144602F046FE30
:104CE000C5F1FF01042002F041FEC4F1FF010520DF
:104CF000BDE8384002F03ABE2DE9F04F2DED028BB1
:104D0000BD4D2B788DB0002B31D0BC4904A802F0EA
:104D100062F8BB4904A802F0ADF8BA4902F0AAF85B
:104D2000B94902F0A7F8B94B1978B94B1B7804467A
:104D30000BB9B84B1B7801EB43010A2208A802F01B
:104D40006FF808A9204602F095F8B34C01462046BA
:104D500002F032F808A801F0B3FF04A801F0B0FF98
:104D60002268AE49AE4800F0FCFF00232B70AD4E28
:104D7000AD48314600F0D4FC002800F0A480AB4DD3
:104D8000AB4C0FCD0FC495E8030084E80300B6F9DF
:104D90000000FFF797FAA74B0022FFF7FDFAA64B9A
:104DA0000022FFF7F9FA0022002304460D46FFF720
:104DB00079FDA24B0022002800F0E581204629461B
:104DC000FFF734F9FFF782FDFFF77CFA00229A4BD8
:104DD000FFF70CFC954B04460D46C3E90045B6F9B8
:104DE0000200FFF76FFA934B0022FFF7D5FA924BC0
:104DF0000022FFF7D1FA0022002380468946FFF700
:104E000051FD8E4B0022002800F0C28140464946E9
:104E1000FFF70CF9DFF844A2DFF810B2FFF756FDF8
:104E2000FFF750FADAE90089834B0022FFF7DEFB37
:104E300042464B46FFF7F8F8CDE90201CBE9020103
:104E4000B6F90400FFF73EFA7A4B0022FFF7A4FA06
:104E5000794B0022FFF7A0FA0022002306460F46F6
:104E6000FFF720FD754B0022002800F096813046A8
:104E70003946FFF7DBF8FFF729FDFFF723FA6E4B02
:104E80000022FFF7B3FB624B1B78CBE90401D3B9D7
:104E9000604B1B78BBB954A3D3E9002320462946B5
:104EA000FFF7F6FC78B152A3D3E900232046294648
:104EB000FFF7F8FC38B1DDE9022340464946FFF729
:104EC000B5F8CAE90001DFF868A1584DDFF890B1E4
:104ED00003245B4BFAE80267D3E90089B5EC027B57
:104EE00042464B4630463946B0EE478AF0EE678A76
:104EF000FFF79AF853EC182BFFF7D4FC68B9424639
:104F00004B4630463946FFF791F802460B4651ECC6
:104F1000180BFFF7C7FC00283CD09BF800100029B5
:104F200038D1484B1E6801361E60734203F00303FC
:104F300006F0030658BF5E42022E00F03381032EB6
:104F400000F03681012E0CD1304B0320197802F08D
:104F5000F4FC3146042002F0F0FC0121052002F0AF
:104F6000ECFC394801266FF000418BF80060FFF738
:104F7000A5FD364B986840B16FF000420023CDE9A3
:104F8000002331461A4601F0BBF830486FF000416B
:104F9000FFF794FD013C9CD12D4B1A78002A00F0BC
:104FA000A1812C481C706FF00041FFF787FD194B61
:104FB0001B78002B00F035811C491F4B264DD1E991
:104FC00002010022FFF7E8F9064628680F46FFF7BE
:104FD00079F902460B4630463946FFF727F8FFF7C6
:104FE00075FC3FE0AFF300809A9999999999C93F70
:104FF0009A9999999999C9BF38E60320B8E6032090
:10500000A8E6032088E6032098E60320B8E50320FD
:1050100030E5032031E50320A4E50320FA7F0B00EF
:1050200034E5032074E6032004E50320E8E50320CB
:1050300000E603200000103F000024400000E03F95
:1050400080E40320C8E60320BCE5032058E60320E3
:1050500074E403203CE6032094E50320E0E503200C
:1050600018E6032040F2F9632860802200936FF075
:105070007F01234601F0F0FA9F4BA04D1860814656
:10508000FFF720F99AA3D3E9002306460F46FEF75F
:10509000CBFF024621F0004395A1D1E90001FEF7C4
:1050A000C3FFFFF713FC964B286000223946804669
:1050B0003046FEF7B9FF21F0004302468CA1D1E94A
:1050C0000001FEF7B1FFFFF701FCA9F5FF73002B0C
:1050D000B8BF5B428B4E8C4F3060FF3BFF2B71DDC6
:1050E000FF233B60B8F1FF0F72DDFF232B60FF2829
:1050F00073DDFF233360296832683868834CFFF71B
:10510000E7FD0A22396808A801F08AFE08A97F484D
:1051100001F06CFE08A801F0D3FD0A2229687C4D3D
:1051200008A801F07DFE08A97A4801F05FFE08A8F2
:1051300001F0C6FD0A22316808A801F071FE08A935
:10514000754801F053FE08A801F0BAFDA368032BCF
:1051500047D1704C6E4DA368032B52D16E4C6C4DF1
:10516000A368032B5DD0294608A801F0F4FD214671
:1051700008A801F07FFE0146204601F01DFE08A8A8
:1051800001F09EFDECE720462946FEF74DFF19E6AB
:1051900040464946FEF748FF3CE630463946FEF7B2
:1051A00043FF68E6042002F0C8FB01210320D2E699
:1051B000052002F0C2FB0121042002F0BEFB012108
:1051C0003046CCE614EA230438BF1C463C6089E72D
:1051D000B8F1000F8BDA002388E700288BDA002370
:1051E00088E7294608A801F0B6FD214608A801F085
:1051F00041FE0146204601F0DFFD08A801F060FDF8
:10520000A4E7294608A801F0A6FD214608A801F058
:1052100031FE0146204601F0CFFD08A801F050FD07
:1052200099E73E4B1B78002B5CD03D493D4B3E4CF3
:105230000022D1E90201FFF7AFF8064620680F46C9
:10524000FFF740F802460B4630463946FEF7EEFEC1
:10525000FFF73CFB10F1400F03DA6FF03F032360D0
:1052600002E040282ADC2060FF2300934022002334
:105270006FF03F0120682D4D254E01F0EDF90A2217
:10528000014608A801F0CCFD08A9284801F0AEFDB0
:1052900008A801F015FDAB68032B11D0314608A812
:1052A00001F059FD294608A801F0E4FD0146284611
:1052B00001F082FD08A801F003FDECE74023CEE7F2
:1052C000FF2300932068002340226FF03F0101F08C
:1052D000C3F9014606200DB0BDEC028BBDE8F04FCE
:1052E00002F044BB0DB0BDEC028BBDE8F08F00BFF7
:1052F0000000000000E87740D8E50320B4E5032073
:1053000000EC83402CE5032078E40320B8E603207A
:1053100025800B00A8E6032088E6032030E5032063
:10532000E8E503200000244070E4032098E6032011
:105330001FB502F067F94FF4165102F057F9104803
:1053400000F094FB50B10E4800F067FD0D4B1B7848
:105350009BB105B05DF804EBFFF7CEBC684601F0E9
:10536000D3F80099064800F071FC684601F0A8FCEB
:105370000549034800F099FEE8E705B05DF804FB35
:1053800034E50320B9E50320ED7F0B0038B5274C49
:10539000274D2278002A3ED12B68594201F00301A3
:1053A00003F0030358BF4B42032B15D8DFE803F08B
:1053B000230217231F4B1A701F4B1978032081F00B
:1053C0000101197002F0B9FA0121042002F0B5FAC6
:1053D0000121052002F0B1FA00232B6038BD154BE6
:1053E0001A7001232370154B1A60154B00221A60A6
:1053F0005A609A60F0E70021052002F09EFA012130
:10540000042002F09AFA0121032002F096FA094BD7
:1054100001221A70E0E70B4B1A680B4B19680B4B13
:105420001868FFF755FC00232370D5E731E503200A
:10543000C8E6032030E50320B8E5032094E5032007
:105440007CE603202CE50320B4E5032078E4032068
:1054500070B5002188B0012001F03AF800234149DD
:10546000414C009340F25B72404B4148414D00F08B
:1054700021FA414800F00EF90821204600F022F9F7
:105480003E4B23602978BFF35B8F11F001010BD1F4
:1054900028460391FFF7A4FA039928B1384801F090
:1054A00063FB2846FFF7A1FA354BE3600223236133
:1054B000344BA361344B236200260123334A344D1D
:1054C000A384267526770492324C3348079504AAA4
:1054D0004FF4FA710694FFF77FFB04A8FFF73EFB39
:1054E0002E4A0492012304AA4FF4FA712C48CDE904
:1054F0000645FFF771FB04A8FFF730FB294A049229
:10550000012304AA4FF47A712748CDE90645FFF735
:1055100063FB04A8FFF722FB244B049304AA334641
:105520004FF4FA612248CDE90645FFF755FB04A880
:10553000FFF714FB1F49204801F00DFC1F492048CC
:1055400001F009FC1D491F4801F005FC19491E48DE
:1055500001F001FC1D491E4808B0BDE8704001F093
:10556000FABB00BF06800B0004E50320194A0B00BC
:1055700034E50320F8E4032098E5032088800B003D
:10558000FCE4032030800B0080969800F5490B0066
:10559000B94A0B00A54A0B003CE60320014A0B0068
:1055A000BCE503208D530B0058E603200D4A0B0089
:1055B0001CE6032015800B00B8E6032023800B00B7
:1055C000A8E6032088E6032098E6032019800B0054
:1055D000A4E50320704710B528210446FFF7F1F930
:1055E000204610BD10B5044600F11801C06801F056
:1055F000F3FA208A0021BDE8104002F09EB910B5F0
:1056000004460121008A02F098F9E068BDE81040E4
:1056100001F0C8BAF8B51E4603685B690F46144628
:1056200005469847012E88BF47F04007E86847F0D5
:10563000800101F03FFB2644B44206D0E868002117
:1056400001F038FB04F8010BF6E72B6828469B694C
:1056500098470120F8BDF8B51E4603685B690F4600
:10566000144605469847012E88BF47F04007E86872
:10567000394601F01FFB2644B44205D014F8011B43
:10568000E86801F017FBF7E72B6828469B69984705
:105690000120F8BD0022027042708270C270027157
:1056A00042718271C271027242728272704700222C
:1056B00041F007010170027182704270C271427242
:1056C00070470000024AC0E90021002202727047C0
:1056D0006C800B0013B5036801AADC680123A047A6
:1056E0009DF8040002B010BD38B505460A240F210C
:1056F0002846FFF7EFFF33284FF0010004D000F0F9
:10570000B7FF013CF3D1204638BD10B50446018AED
:10571000C06801F033FA2046BDE81040FFF7E4BF4F
:10572000F7B50C4627210546FFF7D4FF00F0080027
:10573000002814BF012600260FD02B686A46DF68B8
:10574000282106232846B847BDF800302380BDF83D
:1057500002306380BDF80430A380304603B0F0BD52
:1057600013B503688DF804201C6901AA0123A04722
:1057700002B010BD70B503689B6804460D4698479B
:10578000064630B901F03EFF274901F088F930465E
:1057900070BD2A7820212046FFF7E2FF6A78212198
:1057A0002046FFF7DDFFAA7822212046FFF7D8FF29
:1057B000EA7823212046FFF7D3FF2A7924212046C7
:1057C000FFF7CEFF6A7925212046FFF7C9FFAB79A5
:1057D0001BB126212046FFF77DFFAA7A2E21204605
:1057E000FFF7BEFFAB785B06D1D5EA7932212046C0
:1057F000FFF7B6FF2A7A33212046FFF7B1FF63682F
:10580000002B0ADB6A7A227220463021FFF7A8FFBC
:1058100031212046FFF75EFFB9E7002222723021D6
:105820002046FFF79DFFB2E750800B0091F85C30F7
:1058300010B50446016013B1886D00F071FC20467C
:1058400010BD10B5036893F85C20044612B1986D42
:1058500000F06EFC204610BDF8B51F469DF82430C0
:1058600004460D4616462BB1012380F85C305830B3
:1058700000F04EFC089B23630023636306B1A6641B
:1058800025B1294604F1380001F0B8FA069B2365DA
:10589000079BE069A4F84C70FF2BB8BFFF23A4F866
:1058A000543008B1FFF78BF8B4F85400FFF785F8CF
:1058B000E061F8BD2DE9FF410446002517469846F2
:1058C0000E4601F0D1FD0D49E56104F1380001F00B
:1058D00042FA9DF82830A564CDE90283FF220F2308
:1058E000CDE90032204684F85C503B462A463146DA
:1058F000FFF7B2FF204604B0BDE8F081B17F0B0096
:1059000010B50446204601F00BFD0028FAD02046D1
:1059100001F0F0FAC0B210BD2DE9F0470546884607
:10592000FFF7EEFFEB691870EB6993F800A04FF0FA
:1059300001090AF0F00A00274C462846FFF7E0FF6D
:105940002646EB69985500F07F0313FB09F31F44CB
:1059500001340306A4B2BFB24FEAC919EDD4631EE5
:10596000BAF1300F88F800301ED12846FFF7C8FF83
:10597000EB6918552846FFF7C3FFF41C0236B6B290
:10598000EB69A4B298550226B6B2BE420ED22846A2
:10599000FFF7B6FFB5F85430A34284BFEB69185542
:1059A0000134A4B20136EFE70026EDE7B5F8543034
:1059B000A3422CBF20460020BDE8F0872DE9F3412B
:1059C00015461E461A4607460023964602A802F0D0
:1059D0007F0CBEF17F0F03F10104034488BF4CF03C
:1059E000800CBEF17F0F4FEAD212E4B203F804CC70
:1059F0001ED8C4F10403C4F10500E954224601A9EC
:105A0000284405EB030802F075F9721C2244414654
:105A1000384601F05AFA054600F0B2FB621C786283
:105A20003244A8B2131A5842584102B0BDE8F0817E
:105A30002346CAE70233F0B5054698B20023CE5C90
:105A40009CB256B1B5F854C0844503F1010704D99E
:105A5000441C16543B46A0B2F1E799B2411A0A44DD
:105A6000210A02F8021C02F8013CF0BD38B50446D8
:105A700001F078FB002814BF0125002502D1204643
:105A800001F0A8FC284638BD2DE9F04788B004464F
:105A9000DDF840809DF850A0894617461E46FFF766
:105AA000E5FF0546002840F0CD80214601A8FFF71C
:105AB000BDFEA16C002940F08880B4F84C20A16B99
:105AC0002B46204601F0D0FA00287AD00123238407
:105AD0009DF85430E269042B5B4B40F081801868DC
:105AE00099889B79ADF80C108DF80E300290C2F8B1
:105AF00005009DF80E30BDF80C10A2F80910D37205
:105B00000C23B8F1000F00F081809DF848009DF84B
:105B10004420400140EAC20040F00600C0B2BAF1A1
:105B2000000F01D100F0FD001FB1002E70D140F038
:105B30008000E269D054226DE169581C12120A54A7
:105B40009A1CE169206D88540333E2694946204676
:105B5000FFF770FF0346B8F1000F0BD0E269414632
:105B60002046FFF767FFE269139903462046FFF7D7
:105B700061FF034667B1E26939462046FFF75AFFE5
:105B800003462EB1E26931462046FFF753FF034634
:105B9000053BE2699BB210212046FFF70FFF00F0A2
:105BA000EFFAC4E909004FF47A76204601F0B8FB19
:105BB00088BB00F0E5FAA36AC01A236D73439842CC
:105BC000F3D9204601F006FC35E002A800F062FEA1
:105BD000B4F84C202B4602A9204601F025FB73E7C0
:105BE000D3F80700D3F80B10DB7B0DF1080CACE801
:105BF00003008CF8003002AB03CBC2F80500C2F8FA
:105C000009109CF8003053730E237AE7022086E7D0
:105C100040F0C0008DE702A92046FFF77DFE042872
:105C2000CFD1E369DE78002ECBD100F0A9FA0125AF
:105C3000A06284F82C6001A8FFF703FE284608B094
:105C4000BDE8F0870025F9E7707F0B007FB50123E1
:105C50000422CDE904320023CDE90233CDE900333B
:105C60001A46FFF711FF07B05DF804FB2DE9F74F67
:105C7000DDF83C809DF834509DF8389004468B4602
:105C800016461F46FFF7F2FE8246002851D02146F5
:105C900001A8FFF7CBFDB4F85420E069002102F021
:105CA00037F80523E26959462046FFF7C3FE6B1E0D
:105CB000012B15D8218CE369013189B22184090AAD
:105CC0001954421CE369218C92B20230995480B27B
:105CD000B8F1000F04D0238C5A1C2284A8F800309D
:105CE00000210B188F42E2699BB20AD9B4F854C064
:105CF0009C4506D916F801C002F803C0013189B2EB
:105D0000EFE79DF8301000290CBF30213121B9F1A7
:105D1000000F01D041F00801022D0ED141F0040125
:105D2000053B9BB22046FFF749FE824601A8FFF7DC
:105D300088FD504603B0BDE8F08F012D08BF41F04B
:105D40000201EDE71FB5089C0394002402949DF81E
:105D50001C4001949DF818400094FFF787FF04B0A1
:105D600010BD30B587B00446104605910492FEF789
:105D7000DFFD00250346CDE90155DDE9042100954D
:105D80002046FFF7DFFF07B030BD73B504460E466F
:105D9000FFF76CFE0546C8B1214601A8FFF746FD96
:105DA000E36962221A70E36902225A70E369320AD7
:105DB0009A70E369DE70E1690422204601F085F8FB
:105DC000051E01A818BF0125FFF73BFD284602B0BC
:105DD00070BD73B504460E46FFF748FE0546C8B1D0
:105DE000214601A8FFF722FDE36972221A70E369D8
:105DF00002225A70E369320A9A70E369DE70E1693F
:105E00000422204601F061F8051E01A818BF0125F3
:105E1000FFF717FD284602B070BD2DE9F04F2DEDBC
:105E2000028B87B000AF0446FFF720FE8146F8B131
:105E3000214607F11400FFF7F9FC00F0A1F9236DEA
:105E40004FF47A725343A26A821A9A42064603D8E2
:105E5000626A821A934221D294F82C307BB1204698
:105E600001F0B8FA4FF0000907F11400FFF7E9FC60
:105E700048461C37BD46BDEC028BBDE8F08FE26999
:105E8000C0211170E2695370E1690222204601F0DD
:105E90001CF8C4E90966012384F82C30204601F07F
:105EA0003FFA0028E0D007F113012046FFF734FD48
:105EB00083460028D8D0E369A662197801F0F00281
:105EC000302A7FD1D4F830A0BAF1000FCCD097F8A7
:105ED00013C06A4608EE102A03EB0C02517895783D
:105EE00005EB0125ADB205F108026946D208A1EB28
:105EF000C20295460CF10302FA6003EB020E0DEBB1
:105F000005026846C7F808D07A60D7E901218A42BD
:105F100006D00A461EF8018B02F8018BBA60F4E73E
:105F20000022425593F80080F96808F00608ABEBB0
:105F30000C02033AB8F1020FA2EB0502294425D165
:105F400013F801E01944023A91F801B00CF105018F
:105F5000294419440BEB0E2BD047E36940221A70F9
:105F6000E3691FFA8BFB83F80180E3694FEA1B2288
:105F70009A70E36983F803B0E1690422204600F0D7
:105F8000A4FF666218EE103A9D466DE7B8F1040F63
:105F900015D113F801E01944023A91F801B00CF15F
:105FA0000501294419440BEB0E2BD047E36950221D
:105FB0001A70E36902221FFA8BFB5A70D5E7194465
:105FC000D047DFE7502A08D19A78D97801EB02212F
:105FD00089B22046FFF7D9FE46E7402A12D1626B0C
:105FE000002A3FF441AFBBF1040F7FF43DAF11F045
:105FF000060F7FF439AF9978D87800EB012080B292
:10600000904731E7602A08D19A78D97801EB0221CC
:1060100089B22046FFF7DDFE26E7702ADFD0902AFE
:106020003FF422AFC02A0AD1D0221A70E3690022BD
:106030005A70E1690222204600F047FF14E7D02A97
:1060400004BF002384F82C300EE7F7B504460F4652
:106050001646FFF70BFD054610B3214601A8FFF7D2
:10606000E5FB238C01339BB2EBB12384238CE269E3
:106070001B0A5371E369228C9A71E269072339463E
:106080002046FFF7D7FCE3691E54043883B2E26967
:1060900082212046FFF792FC054601A8FFF7D1FBBD
:1060A000284603B0F0BD0123DFE70022FFF7CDBF94
:1060B00008B5024B1B68DB68019308BD480203006A
:1060C00008B5024B1B68DB69019308BD4802030059
:1060D00008B5024B1B681B6A019308BD4802030008
:1060E00008B5024B1B685B6A019308BD48020300B8
:1060F00008B5024B1B689B6A019308BD4802030068
:1061000008B5024B1B68DB6A019308BD4802030017
:1061100008B5024B1B681B6B019308BD48020300C6
:1061200008B5024B1B689B6B019308BD4802030036
:1061300008B5024B1B681B6C019308BD48020300A5
:1061400008B5024B1B685B6C019308BD4802030055
:1061500008B5024B1B681B6F019308BD4802030082
:1061600008B5024B1B685B68019308BD1802030069
:1061700008B5024B1B68DB68019308BD18020300D9
:1061800008B5024B1B685B69019308BD1802030048
:1061900008B5024B1B685B68019308BD2C02030025
:1061A00008B5024B1B689B68019308BD2C020300D5
:1061B00008B5024B1B68DB68019308BD2C02030085
:1061C00008B5024B1B681B69019308BD2C02030034
:1061D00008B5024B1B689B6A019308BD2C020300A3
:1061E00008B5024B1B689B6F019308BD2C0203008E
:1061F00008B5024B1B681B6A019308BD2802030007
:1062000008B5024B1B685B6A019308BD28020300B6
:1062100008B5024B1B689B6A019308BD2802030066
:1062200008B5024B1B68DB6A019308BD2802030016
:1062300008B5024B1B681B6B019308BD28020300C5
:1062400008B5024B1B685B6B019308BD2802030075
:1062500008B5024B1B681B6C019308BD28020300A4
:1062600008B5024B1B685B69019308BD6C02030013
:1062700008B5024B1B685B69019308BD640203000B
:1062800008B5024B1B681B6A019308BD640203003A
:1062900008B5024B1B689B6A019308BD64020300AA
:1062A00008B5024B1B689B68019308BD6802030098
:1062B00008B5024B1B68DB68019308BD6802030048
:1062C00008B5024B1B689B69019308BD38020300A7
:1062D00008B5024B1B68DB69019308BD3802030057
:1062E00008B5024B1B681B6A019308BD3802030006
:1062F00008B5024B1B689B6A019308BD3802030076
:1063000008B5024B1B681B6B019308BD38020300E4
:1063100008B5024B1B689B6B019308BD3802030054
:1063200008B5024B1B681B68019308BD30020300CF
:1063300008B5024B1B685B69019308BD300203007E
:1063400008B5024B1B68DB69019308BD30020300EE
:1063500008B5024B1B681B6A019308BD300203009D
:1063600008B5024B1B685B6A019308BD300203004D
:1063700008B5024B1B68DB6B019308BD30020300BC
:1063800008B5024B1B681B6C019308BD300203006B
:1063900008B5024B1B685B6C019308BD300203001B
:1063A00008B5024B1B68DB68019308BD3C02030083
:1063B00008B5024B1B681B69019308BD3C02030032
:1063C00008B5024B1B685B69019308BD3C020300E2
:1063D00008B5024B1B689B69019308BD3C02030092
:1063E00008B5024B1B68DB69019308BD3C02030042
:1063F00008B5024B1B681B6A019308BD3C020300F1
:1064000008B5024B1B689B6A019308BD3C02030060
:1064100008B5024B1B681B6C019308BD3C020300CE
:1064200008B5024B1B681B68019308BD4C020300B2
:1064300008B5024B1B685B68019308BD4C02030062
:1064400008B5024B1B681B69019308BD4C02030091
:1064500008B5024B1B685B69019308BD4C02030041
:1064600008B5024B1B689B69019308BD4C020300F1
:1064700008B5024B1B68DB69019308BD4C020300A1
:1064800008B5024B1B681B6A019308BD4C02030050
:1064900008B5024B1B685B6B019308BD60020300EB
:1064A00008B5024B1B681B6D019308BD6002030019
:1064B00008B5024B1B685B68019308BD200203000E
:1064C00008B5024B1B685B69019308BD20020300FD
:1064D00008B5024B1B68DB6A019308BD200203006C
:1064E00008B5034B1B68D3F88830019308BD000042
:1064F0002002030008B5034B1B68D3F894300193C6
:1065000008BD00002002030008B5024B1B68DB69D0
:10651000019308BD4402030008B5024B1B68DB6B06
:10652000019308BD4402030008B5024B1B685B6879
:10653000019308BD4002030008B5024B1B689B682D
:10654000019308BD4002030008B5024B1B68DB68DD
:10655000019308BD4002030008B5024B1B681B698C
:10656000019308BD4002030008B5024B1B685B693C
:10657000019308BD4002030008B5024B1B689B69EC
:10658000019308BD4002030008B5024B1B68DB699C
:10659000019308BD4002030008B5024B1B681B6A4B
:1065A000019308BD4002030008B5024B1B681B6B3A
:1065B000019308BD4002030008B5024B1B685B6BEA
:1065C000019308BD4002030008B5024B1B681B6C19
:1065D000019308BD4002030008B5024B1B685B6CC9
:1065E000019308BD4002030008B5024B1B681B68FD
:1065F000019308BD1C02030008B5024B1B685B68D1
:10660000019308BD1C02030008B5024B1B689B6880
:10661000019308BD1C02030008B5024B1B685B6AAE
:10662000019308BD1C02030008B5024B1B68DB6B1D
:10663000019308BD1C02030008B5024B1B681B6CCC
:10664000019308BD1C02030008B5024B1B685B6C7C
:10665000019308BD1C0203008A4210B507D0441AFA
:106660000298C01A4443501A94FBF0F0184410BD2D
:106670000021FFF725BF0000024800230360FFF759
:106680005FBD00BFCCE60320002240681146FFF743
:1066900083BF002240681146FFF78EBF406800228A
:1066A000FFF782BF4068002281F00101FFF76CBF55
:1066B000002340681A461946FFF75EBF0023406872
:1066C0001A461946FFF750BF002240681146FFF7EF
:1066D00043BF002240681146FFF72EBF40680022EA
:1066E0000221FFF731BF002340681A46FFF71CBFA5
:1066F000024B03225A60024A1A607047D0E6032018
:10670000B4800B007047F8B5064615460C468F1846
:10671000BC4206D0336814F8011B9B68304698478A
:10672000F6E72846F8BD007C0022FFF761BD007C3B
:106730000021FFF765BD007C0021FFF769BD007CEB
:106740000021FFF76DBD007C0021FFF771BD10B582
:1067500014210446FEF735F9204610BD38B504462D
:1067600015464FF47A730022C4E90123094B2174C2
:10677000084623602946FFF76BFDBF3008D16B69DF
:10678000DB0705D56868FFF737FFE868FFF734FFD8
:10679000204638BDF0800B00704710B51821044624
:1067A000FEF70FF9204610BDF0B5037D062B8DB026
:1067B0000E4600F104074FF0000412D000F1080566
:1067C00015F8011D0A22304600F073F9AF42044467
:1067D00019D0002CF4D02E21304600F051F9044499
:1067E000EEE72F236A4639460A208DF80040FFF76E
:1067F0003FFD6846FEF79CF833680246DB68694651
:1068000030469847044620460DB0F0BD10B5054B04
:106810000446112240F8043B002101F079FA204699
:1068200010BD00BF18810B000346074A10B543F89E
:10683000042B01F1100251F8044B43F8044B914230
:10684000F9D10A781A7010BD18810B00037D042B52
:1068500004D14068003818BF01207047062B07D1CB
:1068600043683BB983682BB9C3681BB90069F1E77A
:10687000002070470120704710B59DF8084044EA99
:10688000032343EA024242EA0161042341600375A3
:1068900010BD000007B5064B0360CB7800938B78E2
:1068A0004A780978FFF7E8FF03B05DF804FB00BF02
:1068B00018810B00014B024A1A607047D8E603208A
:1068C00024810B00002340681A46FFF72DBE406864
:1068D00000220221FFF738BE002240681146FFF770
:1068E0002BBE002240681146FFF736BE00234068E9
:1068F0001A461946FFF738BE002340681A46194663
:10690000FFF73ABE40680021FFF75EBE40680021F5
:10691000FFF762BE4068002281F00101FFF734BE3C
:1069200040680022FFF740BE002240681146FFF792
:1069300043BE002240681146FFF72EBE2DE9F0430A
:1069400095B014460D460746FFF760FF00211C2254
:106950000DA8009101F0DCF940230C9320466B4612
:106960000CAA0021FFF7A4FC044600284BD10246E4
:1069700001216868FFF7F0FD022180462246686821
:10698000FFF7EAFD009E81462146002E3BD00029FC
:1069900039D17368022B03D00A2B11D0F669F4E7C2
:1069A000B8F1000FFAD0716906A8043107ADFFF7FE
:1069B00071FF0FCD3C1D0FC42B6823704146EDE7DE
:1069C000B9F1000FEAD07469102201A801F0A0F912
:1069D00006238DF8143001AD04F10803183418684B
:1069E00059682A4603C20833A3421546F7D101A9C4
:1069F00006A807ADFFF718FF0FCD3C1D0FC42B688D
:106A000023704946CAE70098FFF74AFC384615B09C
:106A1000BDE8F083024B034A1A6000225A607047B7
:106A2000DCE6032030810B00F8B506460D468F18D2
:106A30000024BD420CD0336815F8011B9B6830461A
:106A40009847031E01DB1C44F3E7002C08BF1C46DB
:106A50002046F8BD13B50446084659B10191FDF72B
:106A600067FF23680199DB680246204602B0BDE853
:106A70001040184702B010BD08B5FFF7EBFF08BD86
:106A800003689B68184738B50D210546FFF7F8FFE6
:106A90000A2104462846FFF7F3FF204438BD38B5E5
:106AA0000546FFF7D7FF04462846FFF7ECFF2044D2
:106AB00038BD30B58BB00023012A8DF8243098BF43
:106AC0000A2209AC0D46B1FBF2F101FB125303F0AF
:106AD000FF03092B94BF30333733DBB2AA4204F8EB
:106AE000013DEFD92146FFF7B5FF0BB030BD2DE9D1
:106AF000F04186B000AF05460E46381D14211446FD
:106B00003B60FFF789FD13280ED8391D2846FFF793
:106B1000A1FF04461EB12846FFF7B5FF04442046F6
:106B20001837BD46BDE8F08100F1080323F00703E4
:106B3000E846ADEB030D2246411C3B686846FFF773
:106B40006BFD69462846FFF785FF0446C546E1E729
:106B5000014B00229A607047E4E603200021FFF712
:106B600017BC0021FFF70CBC10B504460846217085
:106B7000FFF7E6FB00236360204610BD13B5044613
:106B800000780191FFF7EDFF019948B92078019055
:106B9000FFF7C6FB019802B0BDE81040FFF7DEBF6B
:106BA00002B010BD0078FFF7D9BF0000400830B533
:106BB0001860002418688842E5B206D90134082C10
:106BC00002D040081860F5E70725024B5B5D1370A3
:106BD00030BD00BF64810B002DE9F04306468FB045
:106BE00000780C46FFF7BDFF00281BDB3578142228
:106BF000002109A801F08CF80B23002209A92846DE
:106C0000ADF82430FFF7ACFB9DF82D3013B19DF8A3
:106C10002C5055B10027B946B846012523795DB1FE
:106C2000C3B100200FB0BDE8F083DDF830809DF8DF
:106C300034909DF83570F1E7002B35D1A3684345BA
:106C400008D18DF820908DF82170BDF82020A389FF
:106C50009A42E6D00023A1688DF80F300A9804AB61
:106C60000DF10F02FFF7A2FF217985B989B9A36859
:106C700043450ED38DF820908DF82170BDF820206B
:106C8000A3899A4205D1049B434502D1C9E7002953
:106C9000F9D100230193637B00939DF80F20237BA0
:106CA0003078FFF765FBBCE7CDE900552B462A4657
:106CB0000121F5E708B50078FFF73AFBC0B208BD3F
:106CC00010B504460068FFF797FC204610BD10B5CC
:106CD0000446006808B1FFF78FFC0023C4E90133C4
:106CE000236010BD38B504460D4600680131FFF73A
:106CF0008BFC10B1C4E90005012038BD10B5036854
:106D0000044623B143688B4201D3012010BD2046C5
:106D1000FFF7E8FF0028F9D0A368002BF5D122681F
:106D20001370F2E737B50D46114601920446FFF79E
:106D3000E5FF019A28B92046FFF7C9FF204603B0B6
:106D400030BDA2602946206800F0D4FF2268A36805
:106D50000021D154F2E7002313B5C0E90033044603
:106D60008360037341B108460191FDF7E1FD01998C
:106D700002462046FFF7D6FF204602B010BD38B5C8
:106D8000054600680C4668B16A688B689A4207D36A
:106D9000096800F0F3FFA368AB600023A36038BD6F
:106DA000FFF72AFC23682B6063686B60A368AB6005
:106DB0000023C4E90033F1E7884210B5044605D04A
:106DC0000B682BB18A681946FFF7ACFF204610BD4F
:106DD000FFF77DFFFAE710B500230446C0E9003352
:106DE00083600373FFF7E8FF204610BD884210B5AB
:106DF000044601D0FFF7C3FF204610BD13B504467B
:106E000059B108460191FDF793FD019902462046CC
:106E1000FFF788FF204602B010BDFFF758FFF9E7E3
:106E200010B504468AB00023C4E90033A36023737D
:106E3000084601A900F080FC01A92046FFF7DEFF0B
:106E400020460AB010BD70B505460E4609B90020AF
:106E500070BD6AB1846814442146FFF74FFF0028D3
:106E6000F5D02868AB683146184400F087FFAC6065
:106E70000120EDE710B58A6809680446FFF7E3FFD3
:106E800010B92046FFF723FF204610BD054B022214
:106E90001A60054B054A9A600020C3E90000FFF71D
:106EA00007BB00BF00E70320F4E603200000FFFF5C
:106EB00013B503688DF80710DC6B01224FF0FF3328
:106EC0000DF10701A04702B010BD10B40368DC6BE0
:106ED0004FF0FF33A4465DF8044B604713B51346EB
:106EE00002688DF80710D46B0DF107010122A0474D
:106EF00002B010BD10B54369B3F88620B3F88430F2
:106F00009A42044608D06369B3F88420511CA3F860
:106F100084101344187910BD03681B699847002832
:106F2000F1D14FF0FF30F6E7704743691868C0436E
:106F3000C00F704770470000064B994210B500F132
:106F40000C0405D0084600F0B9FD002808BF002455
:106F5000204610BDA4800B0010B5AC210446FDF7FF
:106F600030FD204610BDAC21FDF72BBD2DE9F041D1
:106F70004FF0000886B01C46C0F8048005460E4657
:106F800017464146102202A800F0C2FE631C09D039
:106F90004FF47A73B4FBF3F203FB1244CDE90228F9
:106FA0005C430494686910230093006802AB41F2CB
:106FB000050240F6FF71FFF783F9002807DAFFF7B3
:106FC00033FB03686B60002006B0BDE8F0816869A0
:106FD000002300683A463146FFF792F9031EEEDBC4
:106FE0001846F1E738B584690A4B036005467CB161
:106FF0006368013B63605BB9236820469B689847E0
:10700000A368013BA3601BB923682046DB6898474F
:10701000284638BDA8810B0010B50446FFF7E2FFF3
:1070200020461C21FDF7CDFC204610BD30B587B0B1
:10703000044601AD6846FFF72DFC0FCD04340FC4A4
:107040002B68237007B030BD70B54D69054B044601
:107050008C3544F8043B06460FCD0FC42B682370D3
:10706000304670BD18810B002DE9F0439846036847
:1070700093B00D460024DB6A06461746984728461B
:107080006B46224621460094FFF712F90546002878
:1070900063D1009B002B4BD05B69002B48D006A826
:1070A000FFF7B4FB009B5C696378022B04D1211DC0
:1070B00006A8FFF7BBFF26E00A2B24D111222946A0
:1070C00001A800F025FEA368002B38D004F10803C6
:1070D0000DF1040C183418685968624603C208336D
:1070E000A3429446F7D1062301A90CA88DF81430C9
:1070F000FFF79AFB0DF1340CBCE80F0007AC0FC48E
:10710000DCF80030237006A8FFF7A0FB80B13368DD
:1071100007ADD3F82090124B0C930FCD0DAC0FC4DC
:107120002B6823703A4643460CA93046C8470546AB
:107130000098FFF7B5F8284613B0BDE8F083E36880
:10714000002BC3D14FF6FF70D4F81090FFF798F8DA
:107150008145BBD104F11401AAE72546E8E700BF49
:1071600018810B0038B543691A68002A054610DA01
:10717000B3F88620B3F884309A420AD103681B69B9
:107180009847044628B92B682846DB6A984720466A
:1071900038BD0120FCE710B54369B3F88620B3F889
:1071A00084309A42044605D06369B3F884201344BE
:1071B000187910BD03681B6998470028F4D14FF077
:1071C000FF30F6E7F8B543691746B3F88620B3F801
:1071D00084309A4205460E4616D06969B1F884306B
:1071E000B1F88640E41ABC4228BF3C46043322462C
:1071F0001944304600F07EFD6A69B2F884302344B9
:10720000A2F884302046F8BD03681B69984700281F
:10721000E3D14FF0FF34F5E742690023A2F8843050
:107220004269A2F8863070472DE9F0411F46036895
:107230000C46DB6A8AB0054616469847237DD5F88A
:107240001480042B0CBF02200A2006220121FFF724
:107250005FF8C8F800006B691B68002B08DA2B6820
:107260002846DB6A0024984720460AB0BDE8F08132
:107270002846FFF7D1FFB7B1002303A9F8B2039363
:10728000ADF81030FEF7ECFF0028E8D1686906235E
:107290000093006803AB41F20B0240F6FF71FFF769
:1072A0000FF80028DBD11C22002103A800F030FDDC
:1072B000237D042B1DD14FF407733046ADF80C30FD
:1072C000FEF7E6FFADF80E006068FEF7D9FF049008
:1072D0006B691C22186803A9FFF702F80028BED1C9
:1072E00004340FCC6D698C350FC523682B700124D5
:1072F000BAE740F61C233046ADF80C30FEF7C8FF65
:1073000005AEADF80E00231D04F114071868596886
:10731000324603C20833BB421646F7D1D8E7000015
:1073200030B54269B2F886308BB004462BB1B2F862
:1073300084209A4201D1FFF76FFF61690868002835
:1073400018DBB1F886507F2D14D804310823C5F11D
:1073500080022944FEF7CCFF002813DD6369B3F8EF
:1073600086200AB9A3F884206369B3F88620104404
:10737000A3F886006369B3F88600B3F88430C01AB6
:107380000BB030BDFFF750F903680B2BF2D0FFF7BD
:107390004BF903680B2BEDD020230025CDE90235F6
:1073A000FFF742F903680193084B0949009302AAC9
:1073B0002B463220FFF774F863691868FEF788FFE0
:1073C00063694FF0FF321A60D4E700BF73810B008E
:1073D0006C810B0010B5436904461868002801DB76
:1073E000FEF776FF63694FF0FF321A606069112281
:1073F00000218C3000F08CFC2046BDE81040FFF7E7
:107400000BBF10B5002304460160C0F884308830FB
:10741000FFF7FCF9204610BD73B500234FF47A72D4
:10742000C0E901320E4A0361026043610446AC20A8
:107430000191FDF7C0FA051E05F10C0608D00123E5
:10744000C5E90133074B01992B603046FFF7D9FF9F
:107450002046C4E90565FFF7DFFE02B070BD00BF3E
:10746000A8810B008C810B0010B54FF0FF31044652
:10747000FFF7D2FF204610BD10B504460068002873
:1074800001DBFEF725FF204610BD0C30FFF7F4BFEF
:10749000024B1A68024B1A60704700BF88E4032051
:1074A00004E7032070474174704708B5007CFEF77D
:1074B000A7FF20EAE07008BD08B5007CFEF778FF62
:1074C00020EAE07008BD08B5007CFEF781FF40EAC5
:1074D000E07008BD08B5007CFEF772FF40EAE0707E
:1074E00008BD007CFEF77CBF37B5457C04462DB156
:1074F000207C03B0BDE83040FEF752BF007C019114
:10750000FEF77EFF00280199F2DC284603B030BD6B
:1075100010B514210446FDF754FA204610BD0000B2
:1075200010B54FF47A730446084611460022C4E9A8
:107530000123044B2360012320746374FEF768FF6A
:10754000204610BD10820B00417470477047704791
:1075500008B50021007CFEF783FF40EAE07008BD1B
:1075600008B50121007CFEF77BFF40EAE07008BD12
:1075700008B5007CFEF76CFF20EAE07008BD08B596
:10758000007CFEF75DFF20EAE07008BD13B50446FD
:10759000007C0191FEF75CFF0028019901DC607C12
:1075A00020B1207CFEF764FF20EAE07002B010BD3D
:1075B000007CFEF765BF10B514210446FDF701FA03
:1075C000204610BD10B54FF47A73044608460021DA
:1075D000C4E90113044B2360012320746374114632
:1075E000FEF71EFF204610BD40820B00007C0022EB
:1075F000FEF71EBF10B514220446002100F088FBE0
:10760000204610BD10B50F4C88B003A8FFF7F2FF5D
:107610002178BFF35B8F11F001010FD1204601915A
:10762000FDF7DEF9019948B103AA0748FFF7CAFF41
:107630002046FDF7DAF9054800F052FB024808B091
:1076400010BD00BF08E703200CE703204D750B00B9
:10765000002240681146FEF77FBF002240681146B5
:10766000FEF79ABF002240681146FEF7A5BF4068AA
:107670000022FEF799BF4068002281F00101FEF769
:1076800083BF002340681A461946FEF775BF0023E2
:1076900040681A461946FEF767BF00224068114647
:1076A000FEF74ABF406800220221FEF74DBF0023CB
:1076B00040681A46FEF738BF024B04225A60024A5D
:1076C0001A60704720E7032070820B0010B5044653
:1076D000FDF72EF9013823182046834206D9027897
:1076E000197800F8011B03F80129F6E710BD70B501
:1076F0000C46911E22291DD8254630B9234430223C
:107700009D4210D205F8012BFAE7B0FBF2F602FB1E
:107710001600C1B2092894BF30315731C9B205F8FB
:10772000011B3046E9E7002320462B70FFF7CEFF10
:10773000204670BD0020FCE738B5031E0C461546F8
:107740000EDAB3F1004F4FF02D0214BF5842184625
:1077500001230A702A461944FFF7C9FF204638BDA5
:107760000123F9E7014B1860704700BF8CE4032048
:1077700008B50B4B43B1FFF745FF03681B699847FA
:10778000002801DDAFF30080064B43B100F070F933
:1077900003681B699847002801DDAFF3008008BD2E
:1077A000000000000000000008B5FFF7E1FFFEF751
:1077B000E7FC014B186008BD30E703200548064A86
:1077C000064908B5121A00F095FA054B054A1A60E9
:1077D00008BD00BF00F4032004F40320D8850B008B
:1077E00000F403201E1C279A07B5002300931A46B5
:1077F0006FF07701FEF77EFE03B05DF804FB00003A
:1078000007B543880A2B08D0502B0BD1094B1B68B6
:107810004BB103B05DF804EB1847FFF7E5FF03B089
:107820005DF804FB002300931A466FF07701FEF722
:1078300061FEF4E72CE7032010B512480021FEF7A3
:1078400003FF114B1A68114B9A42114B0CBF0122D6
:1078500000221A7001D0FFF7B1FFFEF781FC044649
:1078600000F05EFA0B4B13B12046AFF3008000210D
:107870000848FEF751FEBDE8104007480021FEF71A
:107880002FBE00BF65770B0000F403201E1C279A53
:1078900028E703200000000001780B00232813B51F
:1078A00002D9002002B010BDA0F10B03022B1AD8A0
:1078B000174C2178BFF35B8F11F001010BD12046EB
:1078C0000191FDF78DF8019928B11248FFF74CF9A5
:1078D0002046FDF78AF80F4B1878FEF739FD00288F
:1078E000DFD10120DEE7012809D800F081F800216E
:1078F000007CFEF7A5FC80F00100C0B2D2E7093899
:107900000128EED800F0B4F8007CFEF771FDF2E734
:10791000F8E40320FCE40320232838B504460D4690
:107920000AD8FF2908D0FFF7B9FF28B12946204619
:10793000BDE83840FEF734BC38BD38B504460D46C6
:10794000FEF736FCFF2810D0062804D84D2323FA72
:1079500000F0C30709D42046FFF7A0FF28B129464D
:107960002046BDE83840FEF72BBC38BD38B504468C
:107970000D46FFF793FFF0B104212046FEF708FC07
:10798000042805D1A9B22046BDE83840FEF720BC46
:1079900002212046FEF7FCFB02280CD12046FEF710
:1079A00007FC012801D0042805D129462046BDE85E
:1079B0003840FEF715BC38BD7047000038B50A4B9B
:1079C00003600123044643610849202000F074F855
:1079D000202560600549A560284600F06DF8C4E9DF
:1079E0000305204638BD00BF18000100A4820B002B
:1079F00030B50E4D2978BFF35B8F11F0010487B0CD
:107A000011D12846FCF7ECFF68B16846FFF7D6FFB6
:107A10006A4621460648FEF7A1FE2846FCF7E5FF28
:107A2000044800F05DF9024807B030BD34E7032098
:107A300038E70320B9790B007047000038B50446D9
:107A400014252A46002100F063F9258040250749C6
:107A500025812846258200F02FF8044960602846D9
:107A600000F02AF8E060204638BD00BFA4820B0079
:107A700030B50E4D2978BFF35B8F11F0010487B04C
:107A800011D12846FCF7ACFF68B101A8FFF7D6FF7B
:107A900001AA21460648FFF743FD2846FCF7A5FF4B
:107AA000044800F01DF9024807B030BD4CE7032040
:107AB00050E70320397A0B00FCF77FBF014900F043
:107AC000F9B800BFC0820B007FB500241023CDE9B8
:107AD0000234036815469E6912686B46CDE900447E
:107AE000B0479DF8043003F00603062B03BF009B4C
:107AF0002B600120204604B070BD0098904214BF56
:107B0000012006207047000010B5034B03600446B7
:107B100000F0CDF8204610BD00830B0010B50446E0
:107B2000FFF7F2FF20460821FCF74BFF204610BD6F
:107B30002DE9F0411F46DDE90834DDF8188098454D
:107B40000646154607D1079900F0B4F818B16571DB
:107B50000020BDE8F0813946304600F0ABF800283F
:107B6000F6D00123C4F800802571A371F0E738B581
:107B700015461C4600F09EF820B10823E36006235A
:107B80002560237138BD73B505460C4601921E462B
:107B900000F090F850B9032E08D82368019A5B6969
:107BA0002946204602B0BDE87040184702B070BDBB
:107BB00010B5034B03600446FFF7A6FF204610BD37
:107BC00060830B0010B50446FFF7F2FF20460C213E
:107BD000FCF7F7FE204610BDF7B5089F9742054613
:107BE0000E4614460AD0A86802680897156A3146FE
:107BF0002246AC4603B0BDE8F04060471946019309
:107C000000F058F8019B0028EDD0062003B0F0BD2D
:107C10002DE9F14F0D461946DDE90A4BDDE90CA6C9
:107C200081461746984600F045F890B1002D346023
:107C3000377109DB61198A450CBF06210121B17139
:107C4000002001B0BDE8F08F0235F9D10123B371F6
:107C5000F6E7544506D15946484600F02BF808B1DE
:107C60007771EDE7D9F808000368CDE90CA6CDE9F6
:107C70000A4BDC693A4643462946A44601B0BDE8B2
:107C8000F04F60472DE9F04107460C4615461E4669
:107C9000FFF76DFF48B9B86803689F692A46334605
:107CA0002146BC46BDE8F0416047BDE8F081704721
:107CB00000207047814208B50ED0406803782A2B17
:107CC0000CD049680B782A2B08BF0131FCF726FE3F
:107CD000B0FA80F0400908BD0120FCE70020FAE777
:107CE000002301461A46184600F0DCB80A2200219B
:107CF00000F0CEB80A44914200F1FF3300D1704742
:107D000010B511F8014B03F8014F9142F9D110BDA4
:107D100002440346934200D1704703F8011BF9E780
:107D200038B5104B1D68AB6B0446B3B91820FEF78D
:107D30005BFC0246A86320B90B4B0C484221FEF7BE
:107D40007BFC0B490B4BC0E900130B4B83600B23EF
:107D5000838100210120C2E90401AB6B00221C6178
:107D60005A6138BD8CE4032099830B00B0830B006B
:107D70000E33CDAB34126DE6ECDE0500034611F890
:107D8000012B03F8012B002AF9D17047012B2DE9B3
:107D9000F04701D0242B06D9FEF746FC16230360DA
:107DA0000020BDE8F087DFF8E4C00D462E4615F848
:107DB000014B14F80C7017F00807F7D12D2C32D1B5
:107DC0002C780127B51C002B5BD0102B09D1302C4F
:107DD00007D12C7804F0DF04582C4DD16C78102397
:107DE000023507F1004808F1FF384FF0000CB8FBEE
:107DF000F3F9664603FB198AA4F1300EBEF1090FB0
:107E000016D87446A34224DDBCF1000F1EDBB14539
:107E10001CD301D1A24519DB06FB03464FF0010C30
:107E200015F8014BE8E72B2C04BF2C78B51CCAE7EA
:107E3000A4F1410EBEF1190F01D8373CE2E7A4F1DD
:107E4000610EBEF1190F04D8573CDBE74FF0FF3C41
:107E5000E6E7BCF1000F05DA22230360464642B98B
:107E600030469EE707B17642002AF9D0BCF1000FF8
:107E700000D0691E1160F3E73024002BB1D1082334
:107E8000AFE7302CA5D00A23ABE700BF0A840B0074
:107E900013460A46014602480068FFF777BF00BF55
:107EA0008CE403202DE9F843DFF8B8800646D8F8C3
:107EB00000001F460D46914600F056F8254B1C6801
:107EC00034B9254C1C60254B13B11B68C4F88830AD
:107ED00063681F2B07DDD8F8000000F047F84FF06B
:107EE000FF30BDE8F8834EB3D4F8880088B91C4B46
:107EF00023B9D8F8000000F038F8F0E74FF48470A8
:107F0000FEF772FB0028F4D00023C0E94033C4F828
:107F10008800636840F8239001229A4000EB8301B7
:107F2000D0F800311343C0F80031022EC1F8807040
:107F300002BFD0F804311343C0F804316368D8F8A5
:107F400000005A1C0233626044F8235000F00EF81F
:107F50000020C6E7F0E7032064E7032000000000EC
:107F6000E9650B00F0E4032070477047704700009C
:107F700000044D5154540400064D5149736470037C
:107F800041490B007D490B00A5490B00A9490B0095
:107F90000000000043616C6C206F6E20707572658C
:107FA000207669727475616C0064656661756C74C5
:107FB00020004D5342004C5342003C5350495365FE
:107FC0007474696E67732064656661756C743E00D5
:107FD0003C53504953657474696E6773202573254B
:107FE00075202573204D4F444525753E0067657308
:107FF000747572654C616D7032006765737475726B
:10800000654C616D70006C61622E74686577636C9D
:108010002E636F6D00323535003030303030303007
:108020003030303030300000000000000000000030
:10803000094B0B00F1490B00514A0B0000000000F6
:1080400000000000714B0B00C54B0B005F4A0B009A
:10805000646576696365206E6F7420666F756E6403
:108060000000000000000000000000000000000010
:1080700000000000E9560B00C9490B00C9490B007C
:108080000000000000000000D5550B00D7550B0084
:108090000B570B0015560B0057560B00E5550B0000
:1080A000FF550B0000000000000000000000000071
:1080B00000000000E7660B00DD660B00D3660B00D6
:1080C000C9660B00BD660B00B1660B0005690B00AD
:1080D0000D690B00A5660B009D660B0093660B00F7
:1080E00089660B003D690B000000000000000000E5
:1080F00005670B004F670B0027670B0007670B0036
:108100002F670B0037670B003F670B0047670B00BB
:108110000000000000000000A9670B0099670B0039
:108120009B670B0061707000000000000000000001
:10813000C5680B00CF680B00D9680B00E3680B0023
:10814000ED680B00F9680B0005690B000D690B0069
:1081500015690B0021690B0029690B0033690B00BD
:108160003D690B00000810182028303877697269C3
:108170006E670072656376206572726F72203D20B3
:10818000256400000000000000000000356F0B00B7
:10819000596F0B008B740B00676F0B00396F0B006E
:1081A0000000000000000000E56F0B0019700B00DC
:1081B000B16E0B00CB6E0B0021730B00F56E0B0044
:1081C00097710B00296F0B0029720B0069700B006F
:1081D000C5710B00D5730B0065710B002B6F0B0085
:1081E000DD6E0B006D6F0B0049700B0025592D25BE
:1081F0006D2D25645425483A254D3A2553257A009E
:1082000061736374696D6500000000000000000088
:10821000A5740B0011750B00E9740B00296A0B00A3
:10822000B9740B00D5740B00C7740B00E3740B001A
:10823000A7740B00AB740B000000000000000000EE
:108240004F750B00B7750B008D750B00296A0B007D
:108250007F750B0051750B0061750B00B1750B003C
:1082600071750B0049750B00000000000000000054
:10827000AF760B00A5760B009B760B0051760B00BA
:108280008F760B0083760B0005690B000D690B00E0
:1082900077760B006F760B0065760B005B760B0034
:1082A0003D690B0000537431395F53705F6D616B32
:1082B000655F7368617265645F74616700000000E8
:1082C00000830B00A5820B0060830B00D4820B009F
:1082D00084830B004E31305F5F637878616269762A
:1082E0003131375F5F636C6173735F747970655FA1
:1082F000696E666F4500000000000000C8820B0038
:10830000097B0B001D7B0B00B17C0B00B17C0B00CB
:10831000877B0B00C97A0B006F7B0B00317B0B0056
:10832000FB7A0B0060830B0030830B00C8820B00CC
:108330004E31305F5F637878616269763132305FE9
:108340005F73695F636C6173735F747970655F6994
:108350006E666F45000000000000000024830B00E3
:10836000B17B0B00C57B0B00B17C0B00B17C0B001B
:10837000877B0B00C97A0B00857C0B00117C0B00FE
:10838000D97B0B0000830B008C830B005374397472
:108390007970655F696E666F005245454E54206D79
:1083A000616C6C6F632073756363656564656400FD
:1083B0002F746D702F6A656E6B696E732D47434322
:1083C0002D31302D706970656C696E652D34385FA4
:1083D00032303230313132345F313630363138304C
:1083E0003633392F7372632F6E65776C69622F6E27
:1083F00065776C69622F6C6962632F7374646C6952
:10840000622F72616E642E630000202020202020E5
:108410002020202828282828202020202020202034
:108420002020202020202020202088101010101034
:108430001010101010101010101004040404040484
:108440000404040410101010101010414141414167
:1084500041010101010101010101010101010101CC
:10846000010101010110101010101042424242425D
:10847000420202020202020202020202020202029C
:108480000202020202101010102000000000000082
:1084900000000000000000000000000000000000DC
:1084A00000000000000000000000000000000000CC
:1084B00000000000000000000000000000000000BC
:1084C00000000000000000000000000000000000AC
:1084D000000000000000000000000000000000009C
:1084E000000000000000000000000000000000008C
:1084F000000000000000000000000000000000007C
:1085000000000000000000000000000051540B00BB
:1085100079660B00F1660B00B5680B00156A0B005D
:10852000516B0B008D6E0B0091740B00B9760B0034
:10853000040000001400000003000000474E550036
:108540004FC08680CD4C4652ECA29E14C2A3B78980
:0485500010FE69B4FC
:108554004000000001000000FF00000000000000D7
:10856400333333333333E33F00820B0090E403208F
:1085740000000000000000000000000000000000F7
:1085840000000000000000000000000000000000E7
:1085940000000000000000000000000000000000D7
:1085A40000000000000000000000000000000000C7
:1085B40000000000000000000000000000000000B7
:1085C40000000000000000000000000000000000A7
:0485D400F4E70320A5
:0485D800000000009F
:1085E20000000102030405060708090A0B0C0D0E20
:1085F2000F101112131415161718191A1B1C1D1E11
:048602001F2028000D
:04860600785634125C
:04000003B0004020E9
:00000001FF
