:02000002B0004C
:1040000000400B00E2850B00000006000C000502DA
:084010000401B41400000000DB
:0440180058800B00C1
:1040200081F0004102E000BF83F0004330B54FEA69
:1040300041044FEA430594EA050F08BF90EA020FD6
:104040001FBF54EA000C55EA020C7FEA645C7FEA69
:10405000655C00F0E2804FEA5454D4EB5555B8BF8C
:104060006D420CDD2C4480EA020281EA030382EAFD
:10407000000083EA010180EA020281EA0303362D8F
:1040800088BF30BD11F0004F4FEA01314FF4801C62
:104090004CEA113102D0404261EB410113F0004F74
:1040A0004FEA03334CEA133302D0524263EB43032B
:1040B00094EA050F00F0A780A4F10104D5F1200EC9
:1040C0000DDB02FA0EFC22FA05F2801841F1000124
:1040D00003FA0EF2801843FA05F359410EE0A5F1F8
:1040E00020050EF1200E012A03FA0EFC28BF4CF029
:1040F000020C43FA05F3C01851EBE37101F00045DF
:1041000007D54FF0000EDCF1000C7EEB00006EEBEB
:104110000101B1F5801F1BD3B1F5001F0CD3490875
:104120005FEA30004FEA3C0C04F101044FEA4452CC
:1041300012F5800F80F09A80BCF1004F08BF5FEA53
:10414000500C50F1000041EB045141EA050130BD33
:104150005FEA4C0C404141EB0101013C28BFB1F545
:10416000801FE9D291F0000F04BF01460020B1FA90
:1041700081F308BF2033A3F10B03B3F120020CDA63
:104180000C3208DD02F1140CC2F10C0201FA0CF041
:1041900021FA02F10CE002F11402D8BFC2F1200CA6
:1041A00001FA02F120FA0CFCDCBF41EA0C0190405C
:1041B000E41AA2BF01EB0451294330BD6FEA0404A5
:1041C0001F3C1CDA0C340EDC04F11404C4F1200290
:1041D00020FA04F001FA02F340EA030021FA04F3A2
:1041E00045EA030130BDC4F10C04C4F1200220FAF9
:1041F00002F001FA04F340EA0300294630BD21FA37
:1042000004F0294630BD94F0000F83F4801306BFFC
:1042100081F480110134013D4EE77FEA645C18BFF0
:104220007FEA655C29D094EA050F08BF90EA020F87
:1042300005D054EA000C04BF1946104630BD91EA7F
:10424000030F1EBF0021002030BD5FEA545C05D182
:104250004000494128BF41F0004130BD14F58004C1
:104260003CBF01F5801130BD01F0004545F0FE4135
:1042700041F470014FF0000030BD7FEA645C1ABF6A
:10428000194610467FEA655C1CBF0B46024650EAA1
:10429000013406BF52EA033591EA030F41F40021CD
:1042A00030BD00BF90F0000F04BF0021704730B553
:1042B0004FF4806404F132044FF000054FF0000128
:1042C00050E700BF90F0000F04BF0021704730B5E9
:1042D0004FF4806404F1320410F0004548BF4042BE
:1042E0004FF000013EE700BF42004FEAE2014FEA13
:1042F00031014FEA02701FBF12F07F4393F07F4FEE
:1043000081F06051704732F07F4208BF704793F0F0
:104310007F4F04BF41F40021704730B54FF4607403
:1043200001F0004521F000411CE700BF50EA010206
:1043300008BF704730B54FF000050AE050EA0102AF
:1043400008BF704730B511F0004502D5404261EB1F
:1043500041014FF4806404F132045FEA915C3FF460
:10436000D8AE4FF003025FEADC0C18BF03325FEAFD
:10437000DC0C18BF033202EBDC02C2F1200300FAAE
:1043800003FC20FA02F001FA03FE40EA0E0021FAD3
:1043900002F11444BDE600BF70B54FF0FF0C4CF4C1
:1043A000E06C1CEA11541DBF1CEA135594EA0C0F73
:1043B00095EA0C0F00F0DEF82C4481EA030621EAAE
:1043C0004C5123EA4C5350EA013518BF52EA0335E9
:1043D00041F4801143F4801338D0A0FB02CE4FF09B
:1043E0000005E1FB02E506F00042E0FB03E54FF0CB
:1043F0000006E1FB03569CF0000F18BF4EF0010EC3
:10440000A4F1FF04B6F5007F64F5407404D25FEABE
:104410004E0E6D4146EB060642EAC62141EA555171
:104420004FEAC52040EA5E504FEACE2EB4F1FD0CB3
:1044300088BFBCF5E06F1ED8BEF1004F08BF5FEA31
:10444000500E50F1000041EB045170BD06F00046E3
:1044500046EA010140EA020081EA0301B4EB5C0490
:10446000C2BFD4EB0C0541EA045170BD41F4801188
:104470004FF0000E013C00F3AB8014F1360FDEBFAD
:10448000002001F0004170BDC4F10004203C35DA89
:104490000C341BDC04F11404C4F1200500FA05F30C
:1044A00020FA04F001FA05F240EA020001F00042AD
:1044B00021F0004110EBD37021FA04F642EB060123
:1044C0005EEA430E08BF20EAD37070BDC4F10C044D
:1044D000C4F1200500FA04F320FA05F001FA04F211
:1044E00040EA020001F0004110EBD37041F10001FD
:1044F0005EEA430E08BF20EAD37070BDC4F1200508
:1045000000FA05F24EEA020E20FA04F301FA05F26F
:1045100043EA020321FA04F001F0004121FA04F217
:1045200020EA020000EBD3705EEA430E08BF20EAE7
:10453000D37070BD94F0000F0FD101F00046400021
:1045400041EB010111F4801F08BF013CF7D041EAA3
:10455000060195F0000F18BF704703F000465200A7
:1045600043EB030313F4801F08BF013DF7D043EA78
:104570000603704794EA0C0F0CEA135518BF95EA2E
:104580000C0F0CD050EA410618BF52EA4306D1D1B5
:1045900081EA030101F000414FF0000070BD50EAD4
:1045A000410606BF1046194652EA430619D094EA5E
:1045B0000C0F02D150EA013613D195EA0C0F05D148
:1045C00052EA03361CBF104619460AD181EA03019C
:1045D00001F0004141F0FE4141F470014FF0000054
:1045E00070BD41F0FE4141F4780170BD70B54FF0EF
:1045F000FF0C4CF4E06C1CEA11541DBF1CEA13556F
:1046000094EA0C0F95EA0C0F00F0A7F8A4EB050450
:1046100081EA030E52EA03354FEA013100F0888047
:104620004FEA03334FF0805545EA131343EA126310
:104630004FEA022245EA111545EA10654FEA0026C5
:104640000EF000419D4208BF964244F1FD0404F57E
:10465000407402D25B084FEA3202B61A65EB0305DA
:104660005B084FEA32024FF480104FF4002CB6EB97
:10467000020E75EB030E22BFB61A754640EA0C0017
:104680005B084FEA3202B6EB020E75EB030E22BF57
:10469000B61A754640EA5C005B084FEA3202B6EB98
:1046A000020E75EB030E22BFB61A754640EA9C0057
:1046B0005B084FEA3202B6EB020E75EB030E22BF27
:1046C000B61A754640EADC0055EA060E18D04FEAE5
:1046D000051545EA16754FEA06164FEAC30343EA85
:1046E00052734FEAC2025FEA1C1CC0D111F4801F52
:1046F0000BD141EA00014FF000004FF0004CB6E74B
:1047000011F4801F04BF01430020B4F1FD0C88BFE9
:10471000BCF5E06F3FF6AFAEB5EB030C04BFB6EBF4
:10472000020C5FEA500C50F1000041EB045170BDE7
:104730000EF0004E4EEA113114EB5C04C2BFD4EB14
:104740000C0541EA045170BD41F480114FF0000E98
:10475000013C90E645EA060E8DE60CEA135594EA14
:104760000C0F08BF95EA0C0F3FF43BAF94EA0C0F17
:104770000AD150EA01347FF434AF95EA0C0F7FF48C
:1047800025AF104619462CE795EA0C0F06D152EAE0
:1047900003353FF4FDAE1046194622E750EA4106C4
:1047A00018BF52EA43067FF4C5AE50EA41047FF4D5
:1047B0000DAF52EA43057FF4EBAE12E74FF0FF3C3A
:1047C00006E000BF4FF0010C02E000BF4FF0010C0B
:1047D0004DF804CD4FEA410C7FEA6C5C4FEA430C84
:1047E00018BF7FEA6C5C1BD001B050EA410C0CBFD3
:1047F00052EA430C91EA030F02BF90EA020F002035
:10480000704710F1000F91EA030F58BF994208BF9B
:1048100090422CBFD8176FEAE37040F00100704758
:104820004FEA410C7FEA6C5C02D150EA013C07D1AF
:104830004FEA430C7FEA6C5CD6D152EA033CD3D0FA
:104840005DF8040B704700BF8446104662468C46F4
:104850001946634600E000BF01B5FFF7B7FF002827
:1048600048BF10F1000F01BD4DF808EDFFF7F4FF50
:104870000CBF012000205DF808FB00BF4DF808EDDB
:10488000FFF7EAFF34BF012000205DF808FB00BFFE
:104890004DF808EDFFF7E0FF94BF012000205DF820
:1048A00008FB00BF4DF808EDFFF7CEFF94BF0120D5
:1048B00000205DF808FB00BF4DF808EDFFF7C4FFCE
:1048C00034BF012000205DF808FB00BF4FEA410C17
:1048D0007FEA6C5C02D150EA013C0AD14FEA430CFA
:1048E0007FEA6C5C02D152EA033C02D14FF0000037
:1048F00070474FF0010070474FEA410212F5001275
:1049000015D211D56FF47873B3EB625212D94FEA16
:10491000C12343F0004343EA505311F0004F23FA00
:1049200002F018BF404270474FF00000704750EA55
:10493000013005D111F0004008BF6FF00040704712
:104940004FF00000704700BF4A0011D212F500126C
:1049500011D20DD56FF47873B3EB62520ED44FEAD7
:10496000C12343F0004343EA505323FA02F0704757
:104970004FF00000704750EA013002D14FF0FF3095
:1049800070474FF00000704710F8012B11F8013B01
:10499000012A28BF9A42F7D0D01A7047034613F86D
:1049A000012B002AFBD1181A0138704709480A491F
:1049B000884208B505D0094A824202D0121A03F093
:1049C00091FA0748074A0021121A03F099FA0148A0
:1049D00008BD00BF18E4032030850B009CE40320D1
:1049E000A0E40320F8E7032070B5074E074C03F05E
:1049F0001FF8A41BA4080025AC4200D170BD56F8D6
:104A0000043B98470135F7E7E8840B000C850B0061
:104A100000F02CB908B500F087F9BDE8084002F0B5
:104A2000BFBF01F009BE01F007BE01F00DBE01F0ED
:104A30000BBE000008B5034A03490C2001F050FDED
:104A4000FEE700BFC1610B006C800B000078B0FA7C
:104A500080F04009704701230370704770470000E1
:104A6000014B01221A7070471DE40320014B002204
:104A70001A70704718E60320014B01221A70704724
:104A800038E60320704710B510210446FFF7CFFF2A
:104A9000204610BD436913B183690C301847704735
:104AA00013B500210446084601F032FB00232046DE
:104AB00001A9019301F044FB019C0CB10123237176
:104AC0000021012001F024FB2CB1236820469B68C3
:104AD00098470023237102B010BD012A02D1016062
:104AE00000207047022A04BF0B680360F8E70368E0
:104AF000184737B5044680680D4630B10023CDE92C
:104B000000331A46022101F023FBA06830B10023D4
:104B1000CDE900531A46194601F01AFB03B030BD27
:104B20000EB403B503AB002153F8042B019302F03C
:104B3000DAF802B05DF804EB03B0704773B50446D1
:104B400008462279A36832B1A3B90B4902B0BDE887
:104B5000704001F0B9BF094A267B094D0949647BC1
:104B6000012E18BF2946CDE900140749FFF7D8FFE9
:104B700002B070BD054AEFE792800B0089800B0000
:104B80008E800B008A800B00A8800B0081800B00B8
:104B900010B58368044613B10322014698472046A6
:104BA00010BD000037B5134B036004468068C8B1E0
:104BB00000256FF00043CDE9003502212B462A463F
:104BC00001F0C6FAA068294601F0EAFA237903F059
:104BD000FF0513B101F094FAF8E7A068294601F047
:104BE000A7FAA56004F10C00FFF7D2FF204603B03E
:104BF00030BD00BF10810B0010B50446FFF7D2FF97
:104C000020461C21FFF713FF204610BDF0B58C464F
:104C100000251449057104468560016092E803008F
:104C200085B002AF04F10C0687E8030096E80300A4
:104C300082E8030097E8030086E803009168A06912
:104C40006161D1689560D060A161CDE90035064A07
:104C50002346614604F1080001F062FA204605B0DF
:104C6000F0BD00BF10810B00A14A0B0013B5204C12
:104C700002F0C4FD4FF4165102F0B4FD502120465D
:104C800000F06FFD21461B4800F0CEFD01210320FE
:104C900002F03EFF0121042002F03AFF012105202D
:104CA00002F036FF0121062002F032FFFF231248F6
:104CB0000093402200236FF03F01006801F0F4FCF4
:104CC0000146062002F04EFF0121032002F031FFD1
:104CD0000121042002F02DFF0121052002F029FF0F
:104CE00006486FF0004102B0BDE81040FFF701BF79
:104CF0009CE5032008E5032018E403201CE60320BC
:104D000038B50D46C0F1FF010320144602F02AFF1A
:104D1000C5F1FF01042002F025FFC4F1FF010520C9
:104D2000BDE8384002F01EBF2DE9F04F2DED048B99
:104D3000BF488BB000F0F4FE002800F07982BC4838
:104D400001F0C5F8BB4D2B78002B31D0BA4902A831
:104D500002F03DF9B94902A802F088F9B84902F019
:104D600085F9B84902F082F9B74B1978B74B1B782F
:104D700004460BB9B64B1B7801EB43010A2206A887
:104D800002F04AF906A9204602F070F9B14C01463A
:104D9000204602F00DF906A802F08EF802A802F0F3
:104DA0008BF82268AC49A24801F035F800232B703B
:104DB000DFF8DC82A948DFF8C4A2A94D414600F023
:104DC00009FD002800F0BA802E460FCE54460FC4CD
:104DD00096E8030084E80300B8F90000FFF772FAD0
:104DE000A04B0022FFF7D8FA9F4B0022FFF7D4FA1E
:104DF0000022002306460F46FFF754FD9B4B00227E
:104E0000002800F0208230463946FFF70FF9FFF7FF
:104E100073FDFFF757FA944B0022FFF7E7FBC5E954
:104E20000001B8F90200FFF74DFA8E4B0022FFF7A0
:104E3000B3FA8D4B0022FFF7AFFA0022002306469B
:104E40000F46FFF72FFD894B0022002800F000825B
:104E500030463946FFF7EAF8FFF74EFDFFF732FA22
:104E6000814B0022FFF7C2FB06460F46B8F904004B
:104E7000C5E90267FFF726FA7A4B0022FFF78CFAA2
:104E8000794B0022FFF788FA0022002380468946EA
:104E9000FFF708FD754B0022002800F0DE81404638
:104EA0004946FFF7C3F8FFF727FDFFF70BFA6E4BF4
:104EB0000022FFF79BFBDAE90223C5E90401304633
:104EC0003946FFF7B1F858A3D3E90023894621F00A
:104ED00000418046FFF7F0FCF8B1654C2378E3B160
:104EE0005A4B1B7813B95A4B1B78B3B1614ADFF8A0
:104EF000A4A192F800B00123BBF1000F40F0B281F1
:104F000013704046584B00224946FFF745FAFFF719
:104F1000F3FC84F800B0CAF80000002200233046F9
:104F20003946FFF7A1FC48B1514B01221A70524B90
:104F30001A781AB14F4900220A701A704F4F484E22
:104F4000DFF854B1DFF854A10324B7EC027BDBE9AE
:104F50000089B0EE478AF0EE678AB6EC027B4246E3
:104F60004B4651EC180BB0EE479AF0EE679AFFF7FC
:104F70005BF853EC192BFFF795FC68B942464B469A
:104F800051EC180BFFF752F802460B4651EC190B87
:104F9000FFF788FC002841D09AF8001000293DD185
:104FA000374A1368013313605A4203F0030802F0D2
:104FB000030358BFC3F10008B8F1020F00F0598194
:104FC000B8F1030F00F05B81B8F1010F0CD11E4B5B
:104FD0000320197802F0ADFD4146042002F0A9FD3E
:104FE0000121052002F0A5FD26484FF001086FF0D1
:104FF00000418AF80080FFF77CFD234B986840B1A0
:105000006FF000420023CDE9002341461A4601F02B
:105010009FF81D486FF00041FFF76BFD013C94D1F4
:105020001A4E33783CE000BF9A9999999999B93F03
:1050300038E5032038E60320B8E60320A8E603207D
:1050400088E6032098E60320C1E5032034E5032029
:1050500035E50320A8E50320C5800B0008E5032003
:10506000E8E503200000103F000024400000E03F7E
:105070001CE40320C0E50320C2E5032000E6032072
:10508000C8E60320C4E5032058E603201DE40320FE
:1050900074E60320BCE5032028E4032018E603207F
:1050A000002B00F0B18102F0A9FB95ED040B022169
:1050B00001F00EFEC24834706FF00041FFF719FD99
:1050C000C04B1B78002B00F01581D5E90201BE4BC7
:1050D000DFF828830022FFF75FF90646D8F80000C2
:1050E0000F46FFF7EFF802460B4630463946FEF70B
:1050F0009DFFFFF701FC40F2F963C8F80000802231
:1051000000936FF07F01234601F0CEFAAF4BB04E13
:1051100018608246FFF7D6F8A7A3D3E9002380469C
:105120008946FEF781FF024621F00043A2A1D1E9A2
:105130000001FEF779FFFFF7DFFBA64B306000228E
:10514000494607464046FEF76FFF21F000430246FE
:1051500099A1D1E90001FEF767FFFFF7CDFBAAF5A2
:10516000FF73002BB8BF5B42DFF89482DFF89492A4
:10517000C8F80000FF3BFF2B40F38B80FF23C9F8EA
:105180000030FF2F40F38C80FF233360FF2840F373
:105190008C80FF23C8F800303168D8F80020D9F897
:1051A00000008D4CFFF7ACFD0A22D9F8001006A8CC
:1051B00001F032FF06A9884801F014FF06A801F0AB
:1051C0007BFE0A223168854E06A801F025FF06A95C
:1051D000834801F007FF06A801F06EFE0A22D8F806
:1051E000001006A801F018FF06A97E4801F0FAFE9B
:1051F00006A801F061FEA368032B5BD1784C774EC3
:10520000A368032B66D1774C744EA368032B71D02F
:10521000314606A801F09BFE214606A801F026FFB4
:105220000146204601F0C4FE06A801F045FEECE769
:1052300006A801F091F906996B4800F061FD06A8F7
:1052400001F03AFE7EE530463946FEF7EDFEDEE53A
:1052500030463946FEF7E8FEFEE540464946FEF791
:10526000E3FE20E6614A13700023CAF80030237081
:1052700053E6042002F05DFC01210320AEE6052088
:1052800002F057FC0121042002F053FC01214046AA
:10529000A8E614EA230438BF1C46C9F8004070E7AA
:1052A000002FBFF673AF00236FE70028BFF674AF7F
:1052B00000236FE7314606A801F049FE214606A803
:1052C00001F0D4FE0146204601F072FE06A801F06E
:1052D000F3FD90E7314606A801F039FE214606A805
:1052E00001F0C4FE0146204601F062FE06A801F06E
:1052F000E3FD85E73E4B1B78002B00F08580324BA9
:105300003C4C0022D5E90201FFF746F8064620682A
:105310000F46FEF7D7FF02460B4630463946FEF7EA
:1053200085FEFFF7E9FA10F1400F03DA6FF03F0353
:10533000236002E040282ADC2060FF230093402203
:1053400000236FF03F0120682B4D244E01F0ACF993
:105350000A22014606A801F05FFE06A9264801F0D0
:1053600041FE06A801F0A8FDAB68032B11D0314621
:1053700006A801F0ECFD294606A801F077FE0146DB
:10538000284601F015FE06A801F096FDECE7402343
:10539000CEE7FF2300932068002340226FF03F01F7
:1053A00001F082F9014606200BB0BDEC048BBDE88C
:1053B000F04F02F0D7BB00BF0000000000E87740CC
:1053C0003CE6032035E5032000002440E0E503200F
:1053D000B8E5032000EC8340B8E60320F0800B0022
:1053E000A8E6032088E6032038E50320C2E5032071
:1053F00034E5032018E4032098E6032098E5032011
:1054000030E5032020E403200BB0BDEC048BBDE8A5
:10541000F08F00BF38B5274C274D2278002A3ED1A7
:105420002B68594201F0030103F0030358BF4B42BC
:10543000032B15D8DFE803F0230217231F4B1A7044
:105440001F4B1978032081F00101197002F071FBE4
:105450000121042002F06DFB0121052002F069FB0F
:1054600000232B6038BD154B1A7001232370154B98
:105470001A60154B00221A605A609A60F0E700210A
:10548000052002F056FB0121042002F052FB01210D
:10549000032002F04EFB094B01221A70E0E70B4B90
:1054A0001A680B4B19680B4B1868FFF729FC00238F
:1054B0002370D5E735E50320C8E6032034E5032053
:1054C000C1E5032098E503207CE6032030E50320B6
:1054D000B8E5032020E4032070B54D4D88B0284680
:1054E00002F0BEF805F11C0001F0B8F9494B0024A8
:1054F000C3E90054C3E90244C3E904446C632C8744
:105500009C619C832146012001F00AF8424B4349EB
:10551000009440F25B72424C4248434D00F024FA42
:10552000424800F011F90821204600F025F9404BCF
:1055300023602978BFF35B8F11F001010BD128465E
:105540000391FFF783FA039928B13A4801F008FC68
:105550002846FFF780FA374BE36002232361364B7E
:10556000A361364B236200260123354A354DA384BF
:10557000267526770492344C3448079504AA4FF4D4
:10558000FA710694FFF742FB04A8FFF701FB304ACB
:105590000492012304AA4FF4FA712E48CDE906457E
:1055A000FFF734FB04A8FFF7F3FA2B4A0492012318
:1055B00004AA4FF47A712948CDE90645FFF726FB86
:1055C00004A8FFF7E5FA264B049304AA33464FF4E8
:1055D000FA612448CDE90645FFF718FB04A8FFF758
:1055E000D7FA2149214801F0B2FC2149214801F0B4
:1055F000AEFC1F49204801F0AAFC1B491F4801F0DE
:10560000A6FC1F491F4808B0BDE8704001F09FBCD0
:10561000CCE40320ACE40320854A0B00D1800B00CE
:1056200008E5032038E50320A0E403209CE50320DF
:1056300054810B00A4E40320FC800B0080969800AA
:10564000614A0B00EF4A0B00DB4A0B003CE60320EB
:105650006D4A0B00C4E5032015540B0058E60320E7
:10566000794A0B001CE60320E0800B00B8E603201B
:10567000EE800B00A8E6032088E6032098E60320CE
:10568000E4800B00A8E50320704710B528210446EC
:10569000FFF7CDF9204610BD10B5044600F1180102
:1056A000C06801F095FB208A0021BDE8104002F09F
:1056B00040BA10B504460121008A02F03AFAE068C7
:1056C000BDE8104001F06ABBF8B51E4603685B698F
:1056D0000F46144605469847012E88BF47F04007FD
:1056E000E86847F0800101F0E1FB2644B44206D0AF
:1056F000E868002101F0DAFB04F8010BF6E72B68FB
:1057000028469B6998470120F8BDF8B51E460368F6
:105710005B690F46144605469847012E88BF47F03F
:105720004007E868394601F0C1FB2644B44205D081
:1057300014F8011BE86801F0B9FBF7E72B6828466D
:105740009B6998470120F8BD002202704270827068
:10575000C270027142718271C271027242728272AF
:105760007047002241F0070101700271827042709F
:10577000C271427270470000024AC0E90021002253
:105780000272704738810B0013B5036801AADC6808
:105790000123A0479DF8040002B010BD38B50546AE
:1057A0000A240F212846FFF7EFFF33284FF00100AE
:1057B00004D000F085FF013CF3D1204638BD10B580
:1057C0000446018AC06801F0D5FA2046BDE81040C1
:1057D000FFF7E4BFF7B50C4627210546FFF7D4FFD6
:1057E00000F00800002814BF012600260FD02B6807
:1057F0006A46DF68282106232846B847BDF80030EE
:105800002380BDF802306380BDF80430A3803046A9
:1058100003B0F0BD13B503688DF804201C6901AA1C
:105820000123A04702B010BD70B503689B68044611
:105830000D469847064630B901F0E0FF274901F0D0
:1058400056F9304670BD2A7820212046FFF7E2FF46
:105850006A7821212046FFF7DDFFAA782221204621
:10586000FFF7D8FFEA7823212046FFF7D3FF2A79F4
:1058700024212046FFF7CEFF6A7925212046FFF735
:10588000C9FFAB791BB126212046FFF77DFFAA7A1D
:105890002E212046FFF7BEFFAB785B06D1D5EA7913
:1058A00032212046FFF7B6FF2A7A33212046FFF740
:1058B000B1FF6368002B0ADB6A7A2272204630212E
:1058C000FFF7A8FF31212046FFF75EFFB9E700226E
:1058D000227230212046FFF79DFFB2E71C810B00AA
:1058E00091F85C3010B50446016013B1886D00F08A
:1058F0003FFC204610BD10B5036893F85C200446B9
:1059000012B1986D00F03CFC204610BDF8B51F4662
:105910009DF8243004460D4616462BB1012380F82D
:105920005C30583000F01CFC089B23630023636349
:1059300006B1A66425B1294604F1380001F05AFBEE
:10594000069B2365079BE069A4F84C70FF2BB8BF4A
:10595000FF23A4F8543008B1FFF767F8B4F85400F7
:10596000FFF761F8E061F8BD2DE9FF41044600252D
:10597000174698460E4601F073FE0D49E56104F1A5
:10598000380001F0E4FA9DF82830A564CDE90283DF
:10599000FF220F23CDE90032204684F85C503B46BD
:1059A0002A463146FFF7B2FF204604B0BDE8F08139
:1059B00089800B0010B50446204601F0ADFD00289B
:1059C000FAD0204601F092FBC0B210BD2DE9F0479D
:1059D00005468846FFF7EEFFEB691870EB6993F810
:1059E00000A04FF001090AF0F00A00274C462846B3
:1059F000FFF7E0FF2646EB69985500F07F0313FBA5
:105A000009F31F4401340306A4B2BFB24FEAC91917
:105A1000EDD4631EBAF1300F88F800301ED128464D
:105A2000FFF7C8FFEB6918552846FFF7C3FFF41CC2
:105A30000236B6B2EB69A4B298550226B6B2BE429F
:105A40000ED22846FFF7B6FFB5F85430A34284BF04
:105A5000EB6918550134A4B20136EFE70026EDE7F3
:105A6000B5F85430A3422CBF20460020BDE8F08793
:105A70002DE9F34115461E461A4607460023964671
:105A800002A802F07F0CBEF17F0F03F10104034472
:105A900088BF4CF0800CBEF17F0F4FEAD212E4B207
:105AA00003F804CC1ED8C4F10403C4F10500E95482
:105AB000224601A9284405EB030802F013FA721CE0
:105AC00022444146384601F0FCFA054600F080FBCE
:105AD000621C78623244A8B2131A5842584102B08C
:105AE000BDE8F0812346CAE70233F0B5054698B217
:105AF0000023CE5C9CB256B1B5F854C0844503F186
:105B0000010704D9441C16543B46A0B2F1E799B2F0
:105B1000411A0A44210A02F8021C02F8013CF0BDB5
:105B200038B5044601F01AFC002814BF01250025F1
:105B300002D1204601F04AFD284638BD2DE9F04744
:105B400088B00446DDF840809DF850A0894617468D
:105B50001E46FFF7E5FF0546002840F0CD802146B0
:105B600001A8FFF7BDFEA16C002940F08880B4F8C1
:105B70004C20A16B2B46204601F072FB00287AD006
:105B8000012323849DF85430E269042B5B4B40F0E1
:105B90008180186899889B79ADF80C108DF80E30CB
:105BA0000290C2F805009DF80E30BDF80C10A2F866
:105BB0000910D3720C23B8F1000F00F081809DF81A
:105BC00048009DF84420400140EAC20040F0060031
:105BD000C0B2BAF1000F01D100F0FD001FB1002EDC
:105BE00070D140F08000E269D054226DE169581C08
:105BF00012120A549A1CE169206D88540333E26939
:105C000049462046FFF770FF0346B8F1000F0BD05E
:105C1000E26941462046FFF767FFE26913990346B0
:105C20002046FFF761FF034667B1E2693946204627
:105C3000FFF75AFF03462EB1E26931462046FFF7CF
:105C400053FF0346053BE2699BB210212046FFF754
:105C50000FFF00F0BDFAC4E909004FF47A76204640
:105C600001F05AFC88BB00F0B3FAA36AC01A236D96
:105C700073439842F3D9204601F0A8FC35E002A80E
:105C800000F030FEB4F84C202B4602A9204601F06B
:105C9000C7FB73E7D3F80700D3F80B10DB7B0DF1DC
:105CA000080CACE803008CF8003002AB03CBC2F860
:105CB0000500C2F809109CF8003053730E237AE7F0
:105CC000022086E740F0C0008DE702A92046FFF7DA
:105CD0007DFE0428CFD1E369DE78002ECBD100F021
:105CE00077FA0125A06284F82C6001A8FFF703FE73
:105CF000284608B0BDE8F0870025F9E748800B008A
:105D00007FB501230422CDE904320023CDE902331B
:105D1000CDE900331A46FFF711FF07B05DF804FB29
:105D20002DE9F74FDDF83C809DF834509DF8389010
:105D300004468B4616461F46FFF7F2FE82460028B1
:105D400051D0214601A8FFF7CBFDB4F85420E069FB
:105D5000002102F0D5F80523E26959462046FFF7F5
:105D6000C3FE6B1E012B15D8218CE369013189B26A
:105D70002184090A1954421CE369218C92B2023031
:105D8000995480B2B8F1000F04D0238C5A1C22849D
:105D9000A8F8003000210B188F42E2699BB20AD9A3
:105DA000B4F854C09C4506D916F801C002F803C0E7
:105DB000013189B2EFE79DF8301000290CBF302186
:105DC0003121B9F1000F01D041F00801022D0ED1AF
:105DD00041F00401053B9BB22046FFF749FE824695
:105DE00001A8FFF788FD504603B0BDE8F08F012DF4
:105DF00008BF41F00201EDE71FB5089C03940024A1
:105E000002949DF81C4001949DF818400094FFF7FF
:105E100087FF04B010BD30B587B004461046059129
:105E20000492FEF7BBFD00250346CDE90155DDE9EF
:105E3000042100952046FFF7DFFF07B030BD73B5A2
:105E400004460E46FFF76CFE0546C8B1214601A880
:105E5000FFF746FDE36962221A70E36902225A7075
:105E6000E369320A9A70E369DE70E1690422204630
:105E700001F027F9051E01A818BF0125FFF73BFD1A
:105E8000284602B070BD73B504460E46FFF748FEC3
:105E90000546C8B1214601A8FFF722FDE369722239
:105EA0001A70E36902225A70E369320A9A70E36950
:105EB000DE70E1690422204601F003F9051E01A805
:105EC00018BF0125FFF717FD284602B070BD2DE968
:105ED000F04F2DED028B87B000AF0446FFF720FE98
:105EE0008146F8B1214607F11400FFF7F9FC00F0F4
:105EF0006FF9236D4FF47A725343A26A821A9A4261
:105F0000064603D8626A821A934221D294F82C3052
:105F10007BB1204601F05AFB4FF0000907F1140055
:105F2000FFF7E9FC48461C37BD46BDEC028BBDE8D7
:105F3000F08FE269C0211170E2695370E1690222B9
:105F4000204601F0BEF8C4E90966012384F82C302C
:105F5000204601F0E1FA0028E0D007F113012046C5
:105F6000FFF734FD83460028D8D0E369A66219788C
:105F700001F0F002302A7FD1D4F830A0BAF1000F3E
:105F8000CCD097F813C06A4608EE102A03EB0C0237
:105F90005178957805EB0125ADB205F10802694607
:105FA000D208A1EBC20295460CF10302FA6003EBA2
:105FB000020E0DEB05026846C7F808D07A60D7E9F3
:105FC00001218A4206D00A461EF8018B02F8018B95
:105FD000BA60F4E70022425593F80080F96808F0AF
:105FE0000608ABEB0C02033AB8F1020FA2EB050274
:105FF000294425D113F801E01944023A91F801B07F
:106000000CF10501294419440BEB0E2BD047E36931
:1060100040221A70E3691FFA8BFB83F80180E36961
:106020004FEA1B229A70E36983F803B0E169042206
:10603000204601F046F8666218EE103A9D466DE77C
:10604000B8F1040F15D113F801E01944023A91F8A0
:1060500001B00CF10501294419440BEB0E2BD0477C
:10606000E36950221A70E36902221FFA8BFB5A700F
:10607000D5E71944D047DFE7502A08D19A78D97874
:1060800001EB022189B22046FFF7D9FE46E7402AFC
:1060900012D1626B002A3FF441AFBBF1040F7FF4D1
:1060A0003DAF11F0060F7FF439AF9978D87800EB47
:1060B000012080B2904731E7602A08D19A78D978D8
:1060C00001EB022189B22046FFF7DDFE26E7702AA8
:1060D000DFD0902A3FF422AFC02A0AD1D0221A7012
:1060E000E36900225A70E1690222204600F0E9FFCC
:1060F00014E7D02A04BF002384F82C300EE70000F8
:1061000008B5024B1B68DB68019308BD4802030019
:1061100008B5024B1B68DB69019308BD4802030008
:1061200008B5024B1B681B6A019308BD48020300B7
:1061300008B5024B1B685B6A019308BD4802030067
:1061400008B5024B1B689B6A019308BD4802030017
:1061500008B5024B1B68DB6A019308BD48020300C7
:1061600008B5024B1B681B6B019308BD4802030076
:1061700008B5024B1B689B6B019308BD48020300E6
:1061800008B5024B1B681B6C019308BD4802030055
:1061900008B5024B1B685B6C019308BD4802030005
:1061A00008B5024B1B681B6F019308BD4802030032
:1061B00008B5024B1B685B68019308BD1802030019
:1061C00008B5024B1B68DB68019308BD1802030089
:1061D00008B5024B1B685B69019308BD18020300F8
:1061E00008B5024B1B685B68019308BD2C020300D5
:1061F00008B5024B1B689B68019308BD2C02030085
:1062000008B5024B1B68DB68019308BD2C02030034
:1062100008B5024B1B681B69019308BD2C020300E3
:1062200008B5024B1B689B6A019308BD2C02030052
:1062300008B5024B1B689B6F019308BD2C0203003D
:1062400008B5024B1B681B6A019308BD28020300B6
:1062500008B5024B1B685B6A019308BD2802030066
:1062600008B5024B1B689B6A019308BD2802030016
:1062700008B5024B1B68DB6A019308BD28020300C6
:1062800008B5024B1B681B6B019308BD2802030075
:1062900008B5024B1B685B6B019308BD2802030025
:1062A00008B5024B1B681B6C019308BD2802030054
:1062B00008B5024B1B685B69019308BD6C020300C3
:1062C00008B5024B1B685B69019308BD64020300BB
:1062D00008B5024B1B681B6A019308BD64020300EA
:1062E00008B5024B1B689B6A019308BD640203005A
:1062F00008B5024B1B689B68019308BD6802030048
:1063000008B5024B1B68DB68019308BD68020300F7
:1063100008B5024B1B689B69019308BD3802030056
:1063200008B5024B1B68DB69019308BD3802030006
:1063300008B5024B1B681B6A019308BD38020300B5
:1063400008B5024B1B689B6A019308BD3802030025
:1063500008B5024B1B681B6B019308BD3802030094
:1063600008B5024B1B689B6B019308BD3802030004
:1063700008B5024B1B681B68019308BD300203007F
:1063800008B5024B1B685B69019308BD300203002E
:1063900008B5024B1B68DB69019308BD300203009E
:1063A00008B5024B1B681B6A019308BD300203004D
:1063B00008B5024B1B685B6A019308BD30020300FD
:1063C00008B5024B1B68DB6B019308BD300203006C
:1063D00008B5024B1B681B6C019308BD300203001B
:1063E00008B5024B1B685B6C019308BD30020300CB
:1063F00008B5024B1B68DB68019308BD3C02030033
:1064000008B5024B1B681B69019308BD3C020300E1
:1064100008B5024B1B685B69019308BD3C02030091
:1064200008B5024B1B689B69019308BD3C02030041
:1064300008B5024B1B68DB69019308BD3C020300F1
:1064400008B5024B1B681B6A019308BD3C020300A0
:1064500008B5024B1B689B6A019308BD3C02030010
:1064600008B5024B1B681B6C019308BD3C0203007E
:1064700008B5024B1B681B68019308BD4C02030062
:1064800008B5024B1B685B68019308BD4C02030012
:1064900008B5024B1B681B69019308BD4C02030041
:1064A00008B5024B1B685B69019308BD4C020300F1
:1064B00008B5024B1B689B69019308BD4C020300A1
:1064C00008B5024B1B68DB69019308BD4C02030051
:1064D00008B5024B1B681B6A019308BD4C02030000
:1064E00008B5024B1B685B6B019308BD600203009B
:1064F00008B5024B1B681B6D019308BD60020300C9
:1065000008B5024B1B685B68019308BD20020300BD
:1065100008B5024B1B685B69019308BD20020300AC
:1065200008B5024B1B68DB6A019308BD200203001B
:1065300008B5034B1B68D3F88830019308BD0000F1
:106540002002030008B5034B1B68D3F89430019375
:1065500008BD00002002030008B5024B1B68DB6980
:10656000019308BD4402030008B5024B1B68DB6BB6
:10657000019308BD4402030008B5024B1B685B6829
:10658000019308BD4002030008B5024B1B689B68DD
:10659000019308BD4002030008B5024B1B68DB688D
:1065A000019308BD4002030008B5024B1B681B693C
:1065B000019308BD4002030008B5024B1B685B69EC
:1065C000019308BD4002030008B5024B1B689B699C
:1065D000019308BD4002030008B5024B1B68DB694C
:1065E000019308BD4002030008B5024B1B681B6AFB
:1065F000019308BD4002030008B5024B1B681B6BEA
:10660000019308BD4002030008B5024B1B685B6B99
:10661000019308BD4002030008B5024B1B681B6CC8
:10662000019308BD4002030008B5024B1B685B6C78
:10663000019308BD4002030008B5024B1B681B68AC
:10664000019308BD1C02030008B5024B1B685B6880
:10665000019308BD1C02030008B5024B1B689B6830
:10666000019308BD1C02030008B5024B1B685B6A5E
:10667000019308BD1C02030008B5024B1B68DB6BCD
:10668000019308BD1C02030008B5024B1B681B6C7C
:10669000019308BD1C02030008B5024B1B685B6C2C
:1066A000019308BD1C0203008A4210B507D0441AAA
:1066B0000298C01A4443501A94FBF0F0184410BDDD
:1066C0000021FFF725BF0000024800230360FFF709
:1066D0005FBD00BFCCE60320002240681146FFF7F3
:1066E00083BF002240681146FFF78EBF406800223A
:1066F000FFF782BF4068002281F00101FFF76CBF05
:10670000002340681A461946FFF75EBF0023406821
:106710001A461946FFF750BF002240681146FFF79E
:1067200043BF002240681146FFF72EBF4068002299
:106730000221FFF731BF002340681A46FFF71CBF54
:10674000024B03225A60024A1A607047D0E60320C7
:1067500080810B007047F8B5064615460C468F1829
:10676000BC4206D0336814F8011B9B68304698473A
:10677000F6E72846F8BD007C0022FFF761BD007CEB
:106780000021FFF765BD007C0021FFF769BD007C9B
:106790000021FFF76DBD007C0021FFF771BD10B532
:1067A00014210446FEF743F9204610BD38B50446CF
:1067B00015464FF47A730022C4E90123094B217472
:1067C000084623602946FFF76BFDBF3008D16B698F
:1067D000DB0705D56868FFF737FFE868FFF734FF88
:1067E000204638BDBC810B00704710B51821044607
:1067F000FEF71DF9204610BDF0B5037D062B8DB0C8
:106800000E4600F104074FF0000412D000F1080515
:1068100015F8011D0A22304600F073F9AF42044416
:1068200019D0002CF4D02E21304600F051F9044448
:10683000EEE72F236A4639460A208DF80040FFF71D
:106840003FFD6846FEF7AAF833680246DB686946F2
:1068500030469847044620460DB0F0BD10B5054BB4
:106860000446112240F8043B002101F049FB204678
:1068700010BD00BFE4810B000346074A10B543F882
:10688000042B01F1100251F8044B43F8044B9142E0
:10689000F9D10A781A7010BDE4810B00037D042B36
:1068A00004D14068003818BF01207047062B07D17B
:1068B00043683BB983682BB9C3681BB90069F1E72A
:1068C000002070470120704710B59DF8084044EA49
:1068D000032343EA024242EA016104234160037553
:1068E00010BD000007B5064B0360CB7800938B7892
:1068F0004A780978FFF7E8FF03B05DF804FB00BFB2
:10690000E4810B00014B024A1A607047D8E603206D
:10691000F0810B00002340681A46FFF72DBE406847
:1069200000220221FFF738BE002240681146FFF71F
:106930002BBE002240681146FFF736BE0023406898
:106940001A461946FFF738BE002340681A46194612
:10695000FFF73ABE40680021FFF75EBE40680021A5
:10696000FFF762BE4068002281F00101FFF734BEEC
:1069700040680022FFF740BE002240681146FFF742
:1069800043BE002240681146FFF72EBE2DE9F043BA
:1069900095B014460D460746FFF760FF00211C2204
:1069A0000DA8009101F0ACFA40230C9320466B46F1
:1069B0000CAA0021FFF7A4FC044600284BD1024694
:1069C00001216868FFF7F0FD0221804622466868D1
:1069D000FFF7EAFD009E81462146002E3BD00029AC
:1069E00039D17368022B03D00A2B11D0F669F4E772
:1069F000B8F1000FFAD0716906A8043107ADFFF7AE
:106A000071FF0FCD3C1D0FC42B6823704146EDE78D
:106A1000B9F1000FEAD07469102201A801F070FAF0
:106A200006238DF8143001AD04F1080318341868FA
:106A300059682A4603C20833A3421546F7D101A973
:106A400006A807ADFFF718FF0FCD3C1D0FC42B683C
:106A500023704946CAE70098FFF74AFC384615B04C
:106A6000BDE8F083024B034A1A6000225A60704767
:106A7000DCE60320FC810B00F8B506460D468F18B6
:106A80000024BD420CD0336815F8011B9B683046CA
:106A90009847031E01DB1C44F3E7002C08BF1C468B
:106AA0002046F8BD13B50446084659B10191FDF7DB
:106AB00075FF23680199DB680246204602B0BDE8F5
:106AC0001040184702B010BD08B5FFF7EBFF08BD36
:106AD00003689B68184738B50D210546FFF7F8FF96
:106AE0000A2104462846FFF7F3FF204438BD38B595
:106AF0000546FFF7D7FF04462846FFF7ECFF204482
:106B000038BD30B58BB00023012A8DF8243098BFF2
:106B10000A2209AC0D46B1FBF2F101FB125303F05E
:106B2000FF03092B94BF30333733DBB2AA4204F89A
:106B3000013DEFD92146FFF7B5FF0BB030BD000096
:106B40002DE9F74F55EC104B06460F4610EE102A74
:106B500010EE100A2B462946FDF7B8FE40B1534906
:106B60003046FFF79FFF8246504603B0BDE8F08FE6
:106B700025F000494E4B4FF0FF3220464946FDF7C5
:106B8000A5FE48B94A4B4FF0FF3220464946FDF773
:106B90007FFE08B94749E3E7474B4FF06042204684
:106BA0002946FDF789FE08B14449D9E7444B4FF027
:106BB000604220462946FDF761FE0028F4D10022FC
:106BC000002320462946FDF759FED0B12D2130463D
:106BD000FFF77EFF05F1004382461D463949DFF885
:106BE000EC904FF0000B00204FF000085FFA8BF3A1
:106BF0009F4208D942464B46FDF7F8FC0BF1010BCA
:106C0000F4E78246EAE722462B46FDF70FFA0D46E7
:106C10000446FDF799FE8046FDF744FB02460B460D
:106C200020462946FDF700FA0A2204460D46304662
:106C30004146FFF766FF8244002F95D02249DFF8D6
:106C40008C903046FFF72EFF4FF000088244002F53
:106C50008AD042464B4620462946FDF79DFB044616
:106C60000D46FDF749FEB0F1000B1CDA2D21304630
:106C7000FFF72EFFCBF1000103460A2230460193B5
:106C8000FFF73FFF019B184482445846FDF71AFB6B
:106C900002460B4620462946FDF7C6F9013F044649
:106CA0000D46FFB2D3E759460023E6E730820B00DA
:106CB000FFFFEF7F34820B00FFFFEF4138820B00B4
:106CC000FFFFEFC10000E03F3C820B0000002440CA
:106CD00038B5C9B20546FFF733FF04462846FFF72B
:106CE000FAFE204438BD2DE9F04186B000AF0546DC
:106CF0000E46381D142114463B60FFF7B5FC1328DF
:106D00000ED8391D2846FFF7CDFE04461EB1284691
:106D1000FFF7E1FE044420461837BD46BDE8F08188
:106D200000F1080323F00703E846ADEB030D22460C
:106D3000411C3B686846FFF797FC69462846FFF709
:106D4000B1FE0446C546E1E7014B00229A60704758
:106D5000E4E603200021FFF743BB0021FFF738BB27
:106D600010B5044608462170FFF712FB002363604C
:106D7000204610BD13B5044600780191FFF7EDFFE2
:106D8000019948B920780190FFF7F2FA019802B012
:106D9000BDE81040FFF7DEBF02B010BD0078FFF77E
:106DA000D9BF0000400830B5186000241868884238
:106DB000E5B206D90134082C02D040081860F5E786
:106DC0000725024B5B5D137030BD00BF3E820B0098
:106DD0002DE9F04306468FB000780C46FFF7BDFF63
:106DE00000281BDB35781422002109A801F088F85F
:106DF0000B23002209A92846ADF82430FFF7D8FA62
:106E00009DF82D3013B19DF82C5055B10027B9468F
:106E1000B846012523795DB1C3B100200FB0BDE8AC
:106E2000F083DDF830809DF834909DF83570F1E7FF
:106E3000002B35D1A368434508D18DF820908DF8FB
:106E40002170BDF82020A3899A42E6D00023A168D2
:106E50008DF80F300A9804AB0DF10F02FFF7A2FF77
:106E6000217985B989B9A36843450ED38DF820905F
:106E70008DF82170BDF82020A3899A4205D1049B8A
:106E8000434502D1C9E70029F9D100230193637B6F
:106E900000939DF80F20237B3078FFF791FABCE731
:106EA000CDE900552B462A460121F5E708B50078C3
:106EB000FFF766FAC0B208BD10B504460068FFF7D8
:106EC000C3FB204610BD10B50446006808B1FFF7AB
:106ED000BBFB0023C4E90133236010BD38B5044671
:106EE0000D4600680131FFF7B7FB10B1C4E900059A
:106EF000012038BD10B50368044623B143688B42B6
:106F000001D3012010BD2046FFF7E8FF0028F9D08B
:106F1000A368002BF5D122681370F2E737B50D4650
:106F2000114601920446FFF7E5FF019A28B9204671
:106F3000FFF7C9FF204603B030BDA2602946206894
:106F400000F0D0FF2268A3680021D154F2E70023AB
:106F500013B5C0E9003304468360037341B10846AA
:106F60000191FDF71BFD019902462046FFF7D6FF70
:106F7000204602B010BD38B5054600680C4668B121
:106F80006A688B689A4207D3096800F0EFFFA3682C
:106F9000AB600023A36038BDFFF756FB23682B606E
:106FA00063686B60A368AB600023C4E90033F1E75A
:106FB000884210B5044605D00B682BB18A68194683
:106FC000FFF7ACFF204610BDFFF77DFFFAE710B5D5
:106FD00000230446C0E9003383600373FFF7E8FF32
:106FE000204610BD884210B5044601D0FFF7C3FF0C
:106FF000204610BD13B5044659B108460191FDF76E
:10700000CDFC019902462046FFF788FF204602B0DA
:1070100010BDFFF758FFF9E710B504468AB000230A
:10702000C4E90033A3602373084601A900F080FC83
:1070300001A92046FFF7DEFF20460AB010BD70B55B
:1070400005460E4609B9002070BD6AB18468144433
:107050002146FFF74FFF0028F5D02868AB6831467E
:10706000184400F083FFAC600120EDE710B58A689A
:1070700009680446FFF7E3FF10B92046FFF723FF36
:10708000204610BD054B02221A60054B054A9A6046
:107090000020C3E90000FFF733BA00BF00E7032078
:1070A000F4E603200000FFFF13B503688DF8071016
:1070B000DC6B01224FF0FF330DF10701A04702B056
:1070C00010BD10B40368DC6B4FF0FF33A4465DF8CD
:1070D000044B604713B5134602688DF80710D46B54
:1070E0000DF107010122A04702B010BD10B54369A0
:1070F000B3F88620B3F884309A42044608D0636916
:10710000B3F88420511CA3F884101344187910BDDF
:1071100003681B6998470028F1D14FF0FF30F6E76C
:10712000704743691868C043C00F7047704700003C
:10713000064B994210B500F10C0405D0084600F04A
:10714000B9FD002808BF0024204610BD70810B0047
:1071500010B5AC210446FDF76AFC204610BDAC21F9
:10716000FDF765BC2DE9F0414FF0000886B01C46E4
:10717000C0F8048005460E4617464146102202A874
:1071800000F0BEFE631C09D04FF47A73B4FBF3F237
:1071900003FB1244CDE902285C4304946869102380
:1071A0000093006802AB41F2050240F6FF71FFF761
:1071B000AFF8002807DAFFF75FFA03686B6000207A
:1071C00006B0BDE8F0816869002300683A463146A0
:1071D000FFF7BEF8031EEEDB1846F1E738B5846909
:1071E0000A4B036005467CB16368013B63605BB991
:1071F000236820469B689847A368013BA3601BB99E
:1072000023682046DB689847284638BD84820B00F7
:1072100010B50446FFF7E2FF20461C21FDF707FCEE
:10722000204610BD30B587B0044601AD6846FFF773
:1072300059FB0FCD04340FC42B68237007B030BD49
:1072400070B54D69054B04468C3544F8043B064641
:107250000FCD0FC42B682370304670BDE4810B0046
:107260002DE9F0439846036893B00D460024DB6A8D
:1072700006461746984728466B4622462146009404
:10728000FFF73EF80546002863D1009B002B4BD04A
:107290005B69002B48D006A8FFF7E0FA009B5C6909
:1072A0006378022B04D1211D06A8FFF7BBFF26E05F
:1072B0000A2B24D11122294601A800F021FEA3683F
:1072C000002B38D004F108030DF1040C18341868B1
:1072D0005968624603C20833A3429446F7D1062395
:1072E00001A90CA88DF81430FFF7C6FA0DF1340C83
:1072F000BCE80F0007AC0FC4DCF80030237006A810
:10730000FFF7CCFA80B1336807ADD3F82090124B69
:107310000C930FCD0DAC0FC42B6823703A46434637
:107320000CA93046C84705460098FEF7E1FF2846FD
:1073300013B0BDE8F083E368002BC3D14FF6FF70B4
:10734000D4F81090FEF7C4FF8145BBD104F11401BD
:10735000AAE72546E8E700BFE4810B0038B543699A
:107360001A68002A054610DAB3F88620B3F884308C
:107370009A420AD103681B699847044628B92B68CA
:107380002846DB6A9847204638BD0120FCE710B547
:107390004369B3F88620B3F884309A42044605D096
:1073A0006369B3F884201344187910BD03681B691E
:1073B00098470028F4D14FF0FF30F6E7F8B543695D
:1073C0001746B3F88620B3F884309A4205460E4635
:1073D00016D06969B1F88430B1F88640E41ABC422D
:1073E00028BF3C46043322461944304600F07AFD5B
:1073F0006A69B2F884302344A2F884302046F8BD8C
:1074000003681B6998470028E3D14FF0FF34F5E784
:1074100042690023A2F884304269A2F8863070479E
:107420002DE9F0411F4603680C46DB6A8AB0054629
:1074300016469847237DD5F81480042B0CBF0220F4
:107440000A2006220121FEF78BFFC8F800006B69B5
:107450001B68002B08DA2B682846DB6A0024984753
:1074600020460AB0BDE8F0812846FFF7D1FFB7B14A
:10747000002303A9F8B20393ADF81030FEF718FF0C
:107480000028E8D1686906230093006803AB41F245
:107490000B0240F6FF71FEF73BFF0028DBD11C22F8
:1074A000002103A800F02CFD237D042B1DD14FF4F7
:1074B00007733046ADF80C30FEF712FFADF80E0042
:1074C0006068FEF705FF04906B691C22186803A929
:1074D000FEF72EFF0028BED104340FCC6D698C3529
:1074E0000FC523682B700124BAE740F61C233046F1
:1074F000ADF80C30FEF7F4FE05AEADF80E00231D1E
:1075000004F1140718685968324603C20833BB42B5
:107510001646F7D1D8E7000030B54269B2F8863098
:107520008BB004462BB1B2F884209A4201D1FFF708
:107530006FFF61690868002818DBB1F886507F2D5D
:1075400014D804310823C5F180022944FEF7F8FE5F
:10755000002813DD6369B3F886200AB9A3F88420F4
:107560006369B3F886201044A3F886006369B3F812
:107570008600B3F88430C01A0BB030BDFFF77CF83A
:1075800003680B2BF2D0FFF777F803680B2BEDD0D5
:1075900020230025CDE90235FFF76EF8036801933B
:1075A000084B0949009302AA2B463220FEF7A0FFA0
:1075B00063691868FEF7B4FE63694FF0FF321A6022
:1075C000D4E700BF4D820B0046820B0010B5436923
:1075D00004461868002801DBFEF7A2FE63694FF03D
:1075E000FF321A606069112200218C3000F088FCA3
:1075F0002046BDE81040FFF70BBF10B5002304463E
:107600000160C0F884308830FFF728F9204610BDAB
:1076100073B500234FF47A72C0E901320E4A036158
:10762000026043610446AC200191FDF7FAF9051EA2
:1076300005F10C0608D00123C5E90133074B019978
:107640002B603046FFF7D9FF2046C4E90565FFF7F8
:10765000DFFE02B070BD00BF84820B0068820B00A9
:1076600010B54FF0FF310446FFF7D2FF204610BDA2
:1076700010B504460068002801DBFEF751FE2046E5
:1076800010BD0C30FFF7F4BF024B1A68024B1A60B2
:10769000704700BF30E4032004E7032070474174C3
:1076A000704708B5007CFEF7D3FE20EAE07008BD05
:1076B00008B5007CFEF7A4FE20EAE07008BD08B51E
:1076C000007CFEF7ADFE40EAE07008BD08B5007C26
:1076D000FEF79EFE40EAE07008BD007CFEF7A8BE03
:1076E00037B5457C04462DB1207C03B0BDE8304061
:1076F000FEF77EBE007C0191FEF7AAFE00280199EC
:10770000F2DC284603B030BD10B514210446FDF765
:107710008EF9204610BD000010B54FF47A73044670
:10772000084611460022C4E90123044B23600123CB
:1077300020746374FEF794FE204610BDEC820B00AB
:10774000417470477047704708B50021007CFEF710
:10775000AFFE40EAE07008BD08B50121007CFEF7ED
:10776000A7FE40EAE07008BD08B5007CFEF798FE71
:1077700020EAE07008BD08B5007CFEF789FE20EA2B
:10778000E07008BD13B50446007C0191FEF788FE49
:107790000028019901DC607C20B1207CFEF790FE7E
:1077A00020EAE07002B010BD007CFEF791BE10B57B
:1077B00014210446FDF73BF9204610BD10B54FF4E7
:1077C0007A73044608460021C4E90113044B236080
:1077D0000123207463741146FEF74AFE204610BD53
:1077E0001C830B00007C0022FEF74ABE10B5142259
:1077F0000446002100F084FB204610BD10B50F4C5C
:1078000088B003A8FFF7F2FF2178BFF35B8F11F078
:1078100001010FD120460191FDF718F9019948B1F6
:1078200003AA0748FFF7CAFF2046FDF714F90548E9
:1078300000F052FB024808B010BD00BF08E703206B
:107840000CE7032045770B00002240681146FEF745
:10785000ABBE002240681146FEF7C6BE002240685B
:107860001146FEF7D1BE40680022FEF7C5BE406853
:10787000002281F00101FEF7AFBE002340681A46E6
:107880001946FEF7A1BE002340681A461946FEF7C6
:1078900093BE002240681146FEF776BE4068002283
:1078A0000221FEF779BE002340681A46FEF764BE47
:1078B000024B04225A60024A1A60704720E70320F4
:1078C0004C830B0010B50446FDF768F80138231807
:1078D0002046834206D90278197800F8011B03F884
:1078E0000129F6E710BD70B50C46911E22291DD85E
:1078F000254630B9234430229D4210D205F8012B91
:10790000FAE7B0FBF2F602FB1600C1B2092894BFF9
:1079100030315731C9B205F8011B3046E9E7002381
:1079200020462B70FFF7CEFF204670BD0020FCE7FD
:1079300038B5031E0C4615460EDAB3F1004F4FF072
:107940002D0214BF5842184601230A702A461944D2
:10795000FFF7C9FF204638BD0123F9E7014B186046
:10796000704700BF34E4032008B50B4B43B1FFF769
:1079700045FF03681B699847002801DDAFF30080CD
:10798000064B43B100F070F903681B699847002863
:1079900001DDAFF3008008BD000000000000000022
:1079A00008B5FFF7E1FFFEF713FC014B186008BDB7
:1079B00030E703200548064A064908B5121A00F0C8
:1079C00091FA054B054A1A6008BD00BF00F4032078
:1079D00004F40320B4850B0000F403201E1C279A36
:1079E00007B5002300931A466FF07701FEF7AAFD52
:1079F00003B05DF804FB000007B543880A2B08D0EC
:107A0000502B0BD1094B1B684BB103B05DF804EB55
:107A10001847FFF7E5FF03B05DF804FB0023009370
:107A20001A466FF07701FEF78DFDF4E72CE703208F
:107A300010B512480021FEF72FFE114B1A68114BAA
:107A40009A42114B0CBF012200221A7001D0FFF79D
:107A5000B1FFFEF7ADFB044600F05AFA0B4B13B131
:107A60002046AFF3008000210848FEF77DFDBDE809
:107A7000104007480021FEF75BBD00BF5D790B0099
:107A800000F403201E1C279A28E7032000000000B2
:107A9000F9790B00232813B502D9002002B010BDDC
:107AA000A0F10B03022B1AD8174C2178BFF35B8F80
:107AB00011F001010BD120460191FCF7C7FF01999C
:107AC00028B11248FFF74CF92046FCF7C4FF0F4BD2
:107AD0001878FEF765FC0028DFD10120DEE70128D9
:107AE00009D800F081F80021007CFEF7D1FB80F07E
:107AF0000100C0B2D2E709380128EED800F0B4F88E
:107B0000007CFEF79DFCF2E7A0E40320A4E4032040
:107B1000232838B504460D460AD8FF2908D0FFF7B8
:107B2000B9FF28B129462046BDE83840FEF760BBC2
:107B300038BD38B504460D46FEF762FBFF2810D06D
:107B4000062804D84D2323FA00F0C30709D42046A1
:107B5000FFF7A0FF28B129462046BDE83840FEF7D0
:107B600057BB38BD38B504460D46FFF793FFF0B15B
:107B700004212046FEF734FB042805D1A9B2204693
:107B8000BDE83840FEF74CBB02212046FEF728FB3B
:107B900002280CD12046FEF733FB012801D004282F
:107BA00005D129462046BDE83840FEF741BB38BD27
:107BB0007047000038B50A4B036001230446436157
:107BC0000849202000F074F8202560600549A56070
:107BD000284600F06DF8C4E90305204638BD00BF13
:107BE0001800010080830B0030B50E4D2978BFF3DB
:107BF0005B8F11F0010487B011D12846FCF726FFF6
:107C000068B16846FFF7D6FF6A4621460648FEF788
:107C1000CDFD2846FCF71FFF044800F05DF902483F
:107C200007B030BD34E7032038E70320B17B0B00F9
:107C30007047000038B5044614252A46002100F09C
:107C40005FF925804025074925812846258200F0D7
:107C50002FF804496060284600F02AF8E0602046CA
:107C600038BD00BF80830B0030B50E4D2978BFF3BF
:107C70005B8F11F0010487B011D12846FCF7E6FEB6
:107C800068B101A8FFF7D6FF01AA21460648FFF711
:107C900043FD2846FCF7DFFE044800F01DF90248CA
:107CA00007B030BD4CE7032050E70320317C0B00C8
:107CB000FCF7B9BE014900F0F9B800BF9C830B0086
:107CC0007FB500241023CDE90234036815469E6970
:107CD00012686B46CDE90044B0479DF8043003F0CC
:107CE0000603062B03BF009B2B600120204604B037
:107CF00070BD0098904214BF01200620704700001C
:107D000010B5034B0360044600F0CDF8204610BDCB
:107D1000DC830B0010B50446FFF7F2FF2046082174
:107D2000FCF785FE204610BD2DE9F0411F46DDE938
:107D30000834DDF8188098450646154607D107999E
:107D400000F0B4F818B165710020BDE8F081394643
:107D5000304600F0ABF80028F6D00123C4F80080CC
:107D60002571A371F0E738B515461C4600F09EF862
:107D700020B10823E36006232560237138BD73B565
:107D800005460C4601921E4600F090F850B9032EAD
:107D900008D82368019A5B692946204602B0BDE8ED
:107DA0007040184702B070BD10B5034B0360044625
:107DB000FFF7A6FF204610BD3C840B0010B504461B
:107DC000FFF7F2FF20460C21FCF731FE204610BDE4
:107DD000F7B5089F974205460E4614460AD0A86894
:107DE00002680897156A31462246AC4603B0BDE8E2
:107DF000F04060471946019300F058F8019B0028B5
:107E0000EDD0062003B0F0BD2DE9F14F0D46194627
:107E1000DDE90A4BDDE90CA681461746984600F0DD
:107E200045F890B1002D3460377109DB61198A453E
:107E30000CBF06210121B171002001B0BDE8F08F17
:107E40000235F9D10123B371F6E7544506D15946FD
:107E5000484600F02BF808B17771EDE7D9F8080033
:107E60000368CDE90CA6CDE90A4BDC693A464346E6
:107E70002946A44601B0BDE8F04F60472DE9F04126
:107E800007460C4615461E46FFF76DFF48B9B86811
:107E900003689F692A4633462146BC46BDE8F04147
:107EA0006047BDE8F081704700207047814208B507
:107EB0000ED0406803782A2B0CD049680B782A2B07
:107EC00008BF0131FCF760FDB0FA80F0400908BD41
:107ED0000120FCE70020FAE7002301461A46184675
:107EE00000F04CB80A44914200F1FF3300D17047D2
:107EF00010B511F8014B03F8014F9142F9D110BDB3
:107F000002440346934200D1704703F8011BF9E78E
:107F100038B5104B1D68AB6B0446B3B91820FEF79B
:107F20008BFB0246A86320B90B4B0C484221FEF79D
:107F3000ABFB0B490B4BC0E900130B4B83600B23CE
:107F4000838100210120C2E90401AB6B00221C6186
:107F50005A6138BD34E4032075840B008C840B0017
:107F60000E33CDAB34126DE6ECDE0500034611F89E
:107F7000012B03F8012B002AF9D170472DE9F843B2
:107F8000DFF8B8800646D8F800001F460D46914637
:107F900000F056F8254B1C6834B9254C1C60254B65
:107FA00013B11B68C4F8883063681F2B07DDD8F84D
:107FB000000000F047F84FF0FF30BDE8F8834EB303
:107FC000D4F8880088B91C4B23B9D8F8000000F019
:107FD00038F8F0E74FF48470FEF72EFB0028F4D059
:107FE0000023C0E94033C4F88800636840F8239058
:107FF00001229A4000EB8301D0F800311343C0F80E
:108000000031022EC1F8807002BFD0F80431134352
:10801000C0F804316368D8F800005A1C023362606B
:1080200044F8235000F00EF80020C6E7F0E70320E4
:1080300064E703200000000039660B0098E4032089
:10804000704770477047000000044D5154540400BD
:10805000064D514973647003AD490B00E9490B00AB
:10806000114A0B00154A0B000000000043616C6CC4
:10807000206F6E2070757265207669727475616C00
:108080000064656661756C7420004D5342004C536A
:1080900042003C53504953657474696E67732064A1
:1080A000656661756C743E003C5350495365747449
:1080B000696E67732025732575202573204D4F4405
:1080C0004525753E00676573747572654C616D700A
:1080D000006C61622E74686577636C2E636F6D004F
:1080E00032353500303030303030303030303030B4
:1080F0003000000000000000000000003D4B0B00BD
:108100005D4A0B00874A0B000000000000000000E1
:10811000A54B0B00F94B0B00954A0B006465766983
:108120006365206E6F7420666F756E6400000000DA
:10813000000000000000000000000000000000003F
:108140009D570B00354A0B00354A0B00000000001C
:108150000000000089560B008B560B00BF570B0028
:10816000C9560B000B570B0099560B00B3560B006A
:1081700000000000000000000000000000000000FF
:1081800037670B002D670B0023670B0019670B0087
:108190000D670B0001670B0055690B005D690B0053
:1081A000F5660B00ED660B00E3660B00D9660B006D
:1081B0008D690B00000000000000000055670B00F7
:1081C0009F670B0077670B0057670B007F670B00FB
:1081D00087670B008F670B0097670B00000000009C
:1081E00000000000F9670B00E9670B00EB670B006C
:1081F00061707000000000000000000015690B00B5
:108200001F690B0029690B0033690B003D690B00E6
:1082100049690B0055690B005D690B0065690B002E
:1082200071690B0079690B0083690B008D690B0084
:108230006E616E00696E66006F7666002E00000843
:10824000101820283038776972696E67007265638C
:1082500076206572726F72203D2025640000000058
:1082600000000000000000002D710B0051710B0098
:1082700083760B005F710B0031710B000000000072
:1082800000000000DD710B0011720B00A9700B00E3
:10829000C3700B0019750B00ED700B008F730B0092
:1082A00021710B0021740B0061720B00BD730B0078
:1082B000CD750B005D730B0023710B00D5700B00A7
:1082C00065710B0041720B0025592D256D2D25641C
:1082D0005425483A254D3A2553257A006173637435
:1082E000696D650000000000000000009D760B0035
:1082F00009770B00E1760B00796A0B00B1760B0071
:10830000CD760B00BF760B00DB760B009F760B0063
:10831000A3760B00000000000000000047770B0070
:10832000AF770B0085770B00796A0B0077770B002E
:1083300049770B0059770B00A9770B0069770B0081
:1083400041770B000000000000000000A7780B0040
:108350009D780B0093780B0049780B0087780B0011
:108360007B780B0055690B005D690B006F780B0083
:1083700067780B005D780B0053780B008D690B005C
:1083800000537431395F53705F6D616B655F736863
:10839000617265645F74616700000000DC830B003C
:1083A00081830B003C840B00B0830B0060840B00C6
:1083B0004E31305F5F637878616269763131375F63
:1083C0005F636C6173735F747970655F696E666F0C
:1083D0004500000000000000A4830B00017D0B009D
:1083E000157D0B00A97E0B00A97E0B007F7D0B0085
:1083F000C17C0B00677D0B00297D0B00F37C0B001B
:108400003C840B000C840B00A4830B004E31305FC6
:108410005F637878616269763132305F5F73695F7C
:10842000636C6173735F747970655F696E666F45C5
:10843000000000000000000000840B00A97D0B007C
:10844000BD7D0B00A97E0B00A97E0B007F7D0B007C
:10845000C17C0B007D7E0B00097E0B00D17D0B00E3
:10846000DC830B0068840B00537439747970655F8A
:10847000696E666F005245454E54206D616C6C6F9D
:108480006320737563636565646564002F746D7044
:108490002F6A656E6B696E732D4743432D31302D06
:1084A000706970656C696E652D34385F32303230BA
:1084B000313132345F313630363138303633392F5E
:1084C0007372632F6E65776C69622F6E65776C6966
:1084D000622F6C6962632F7374646C69622F7261BE
:1084E0006E642E6300000000D9540B00C9660B00B7
:1084F00041670B0005690B00656A0B00496D0B00B5
:0C85000085700B0089760B00B1780B0031
:10850C00040000001400000003000000474E55005A
:10851C000964CC75F942B8C9CB6DF3F7AE59A59F78
:04852C0049767E66A8
:108530004000000001010000FF00000000000000FA
:10854000333333333333E33FDC820B0038E403202F
:10855000000000000000000000000000000000001B
:10856000000000000000000000000000000000000B
:1085700000000000000000000000000000000000FB
:1085800000000000000000000000000000000000EB
:1085900000000000000000000000000000000000DB
:1085A00000000000000000000000000000000000CB
:0485B000F4E70320C9
:0485B40000000000C3
:1085BE0000000102030405060708090A0B0C0D0E44
:1085CE000F101112131415161718191A1B1C1D1E35
:0485DE001F20280032
:0485E2007856341281
:04000003B0004020E9
:00000001FF
