:02000002B0004C
:1040000000400B004E830B00000006000C00050270
:084010000401B41400000000DB
:04401800C87D0B0054
:1040200081F0004102E000BF83F0004330B54FEA69
:1040300041044FEA430594EA050F08BF90EA020FD6
:104040001FBF54EA000C55EA020C7FEA645C7FEA69
:10405000655C00F0E2804FEA5454D4EB5555B8BF8C
:104060006D420CDD2C4480EA020281EA030382EAFD
:10407000000083EA010180EA020281EA0303362D8F
:1040800088BF30BD11F0004F4FEA01314FF4801C62
:104090004CEA113102D0404261EB410113F0004F74
:1040A0004FEA03334CEA133302D0524263EB43032B
:1040B00094EA050F00F0A780A4F10104D5F1200EC9
:1040C0000DDB02FA0EFC22FA05F2801841F1000124
:1040D00003FA0EF2801843FA05F359410EE0A5F1F8
:1040E00020050EF1200E012A03FA0EFC28BF4CF029
:1040F000020C43FA05F3C01851EBE37101F00045DF
:1041000007D54FF0000EDCF1000C7EEB00006EEBEB
:104110000101B1F5801F1BD3B1F5001F0CD3490875
:104120005FEA30004FEA3C0C04F101044FEA4452CC
:1041300012F5800F80F09A80BCF1004F08BF5FEA53
:10414000500C50F1000041EB045141EA050130BD33
:104150005FEA4C0C404141EB0101013C28BFB1F545
:10416000801FE9D291F0000F04BF01460020B1FA90
:1041700081F308BF2033A3F10B03B3F120020CDA63
:104180000C3208DD02F1140CC2F10C0201FA0CF041
:1041900021FA02F10CE002F11402D8BFC2F1200CA6
:1041A00001FA02F120FA0CFCDCBF41EA0C0190405C
:1041B000E41AA2BF01EB0451294330BD6FEA0404A5
:1041C0001F3C1CDA0C340EDC04F11404C4F1200290
:1041D00020FA04F001FA02F340EA030021FA04F3A2
:1041E00045EA030130BDC4F10C04C4F1200220FAF9
:1041F00002F001FA04F340EA0300294630BD21FA37
:1042000004F0294630BD94F0000F83F4801306BFFC
:1042100081F480110134013D4EE77FEA645C18BFF0
:104220007FEA655C29D094EA050F08BF90EA020F87
:1042300005D054EA000C04BF1946104630BD91EA7F
:10424000030F1EBF0021002030BD5FEA545C05D182
:104250004000494128BF41F0004130BD14F58004C1
:104260003CBF01F5801130BD01F0004545F0FE4135
:1042700041F470014FF0000030BD7FEA645C1ABF6A
:10428000194610467FEA655C1CBF0B46024650EAA1
:10429000013406BF52EA033591EA030F41F40021CD
:1042A00030BD00BF90F0000F04BF0021704730B553
:1042B0004FF4806404F132044FF000054FF0000128
:1042C00050E700BF90F0000F04BF0021704730B5E9
:1042D0004FF4806404F1320410F0004548BF4042BE
:1042E0004FF000013EE700BF42004FEAE2014FEA13
:1042F00031014FEA02701FBF12F07F4393F07F4FEE
:1043000081F06051704732F07F4208BF704793F0F0
:104310007F4F04BF41F40021704730B54FF4607403
:1043200001F0004521F000411CE700BF50EA010206
:1043300008BF704730B54FF000050AE050EA0102AF
:1043400008BF704730B511F0004502D5404261EB1F
:1043500041014FF4806404F132045FEA915C3FF460
:10436000D8AE4FF003025FEADC0C18BF03325FEAFD
:10437000DC0C18BF033202EBDC02C2F1200300FAAE
:1043800003FC20FA02F001FA03FE40EA0E0021FAD3
:1043900002F11444BDE600BF70B54FF0FF0C4CF4C1
:1043A000E06C1CEA11541DBF1CEA135594EA0C0F73
:1043B00095EA0C0F00F0DEF82C4481EA030621EAAE
:1043C0004C5123EA4C5350EA013518BF52EA0335E9
:1043D00041F4801143F4801338D0A0FB02CE4FF09B
:1043E0000005E1FB02E506F00042E0FB03E54FF0CB
:1043F0000006E1FB03569CF0000F18BF4EF0010EC3
:10440000A4F1FF04B6F5007F64F5407404D25FEABE
:104410004E0E6D4146EB060642EAC62141EA555171
:104420004FEAC52040EA5E504FEACE2EB4F1FD0CB3
:1044300088BFBCF5E06F1ED8BEF1004F08BF5FEA31
:10444000500E50F1000041EB045170BD06F00046E3
:1044500046EA010140EA020081EA0301B4EB5C0490
:10446000C2BFD4EB0C0541EA045170BD41F4801188
:104470004FF0000E013C00F3AB8014F1360FDEBFAD
:10448000002001F0004170BDC4F10004203C35DA89
:104490000C341BDC04F11404C4F1200500FA05F30C
:1044A00020FA04F001FA05F240EA020001F00042AD
:1044B00021F0004110EBD37021FA04F642EB060123
:1044C0005EEA430E08BF20EAD37070BDC4F10C044D
:1044D000C4F1200500FA04F320FA05F001FA04F211
:1044E00040EA020001F0004110EBD37041F10001FD
:1044F0005EEA430E08BF20EAD37070BDC4F1200508
:1045000000FA05F24EEA020E20FA04F301FA05F26F
:1045100043EA020321FA04F001F0004121FA04F217
:1045200020EA020000EBD3705EEA430E08BF20EAE7
:10453000D37070BD94F0000F0FD101F00046400021
:1045400041EB010111F4801F08BF013CF7D041EAA3
:10455000060195F0000F18BF704703F000465200A7
:1045600043EB030313F4801F08BF013DF7D043EA78
:104570000603704794EA0C0F0CEA135518BF95EA2E
:104580000C0F0CD050EA410618BF52EA4306D1D1B5
:1045900081EA030101F000414FF0000070BD50EAD4
:1045A000410606BF1046194652EA430619D094EA5E
:1045B0000C0F02D150EA013613D195EA0C0F05D148
:1045C00052EA03361CBF104619460AD181EA03019C
:1045D00001F0004141F0FE4141F470014FF0000054
:1045E00070BD41F0FE4141F4780170BD70B54FF0EF
:1045F000FF0C4CF4E06C1CEA11541DBF1CEA13556F
:1046000094EA0C0F95EA0C0F00F0A7F8A4EB050450
:1046100081EA030E52EA03354FEA013100F0888047
:104620004FEA03334FF0805545EA131343EA126310
:104630004FEA022245EA111545EA10654FEA0026C5
:104640000EF000419D4208BF964244F1FD0404F57E
:10465000407402D25B084FEA3202B61A65EB0305DA
:104660005B084FEA32024FF480104FF4002CB6EB97
:10467000020E75EB030E22BFB61A754640EA0C0017
:104680005B084FEA3202B6EB020E75EB030E22BF57
:10469000B61A754640EA5C005B084FEA3202B6EB98
:1046A000020E75EB030E22BFB61A754640EA9C0057
:1046B0005B084FEA3202B6EB020E75EB030E22BF27
:1046C000B61A754640EADC0055EA060E18D04FEAE5
:1046D000051545EA16754FEA06164FEAC30343EA85
:1046E00052734FEAC2025FEA1C1CC0D111F4801F52
:1046F0000BD141EA00014FF000004FF0004CB6E74B
:1047000011F4801F04BF01430020B4F1FD0C88BFE9
:10471000BCF5E06F3FF6AFAEB5EB030C04BFB6EBF4
:10472000020C5FEA500C50F1000041EB045170BDE7
:104730000EF0004E4EEA113114EB5C04C2BFD4EB14
:104740000C0541EA045170BD41F480114FF0000E98
:10475000013C90E645EA060E8DE60CEA135594EA14
:104760000C0F08BF95EA0C0F3FF43BAF94EA0C0F17
:104770000AD150EA01347FF434AF95EA0C0F7FF48C
:1047800025AF104619462CE795EA0C0F06D152EAE0
:1047900003353FF4FDAE1046194622E750EA4106C4
:1047A00018BF52EA43067FF4C5AE50EA41047FF4D5
:1047B0000DAF52EA43057FF4EBAE12E74FF0FF3C3A
:1047C00006E000BF4FF0010C02E000BF4FF0010C0B
:1047D0004DF804CD4FEA410C7FEA6C5C4FEA430C84
:1047E00018BF7FEA6C5C1BD001B050EA410C0CBFD3
:1047F00052EA430C91EA030F02BF90EA020F002035
:10480000704710F1000F91EA030F58BF994208BF9B
:1048100090422CBFD8176FEAE37040F00100704758
:104820004FEA410C7FEA6C5C02D150EA013C07D1AF
:104830004FEA430C7FEA6C5CD6D152EA033CD3D0FA
:104840005DF8040B704700BF8446104662468C46F4
:104850001946634600E000BF01B5FFF7B7FF002827
:1048600048BF10F1000F01BD4DF808EDFFF7F4FF50
:104870000CBF012000205DF808FB00BF4DF808EDDB
:10488000FFF7EAFF34BF012000205DF808FB00BFFE
:104890004DF808EDFFF7E0FF94BF012000205DF820
:1048A00008FB00BF4DF808EDFFF7CEFF94BF0120D5
:1048B00000205DF808FB00BF4DF808EDFFF7C4FFCE
:1048C00034BF012000205DF808FB00BF4FEA410221
:1048D00012F5001215D211D56FF47873B3EB625252
:1048E00012D94FEAC12343F0004343EA505311F079
:1048F000004F23FA02F018BF404270474FF000000B
:10490000704750EA013005D111F0004008BF6FF048
:10491000004070474FF00000704700BF10F8012BB7
:1049200011F8013B012A28BF9A42F7D0D01A7047EC
:10493000034613F8012B002AFBD1181A01387047DF
:1049400009480A49884208B505D0094A824202D07E
:10495000121A03F07FF90748074A0021121A03F0E0
:1049600087F9014808BD00BF78E403209C820B0052
:10497000FCE4032000E50320F8E7032070B5074EB0
:10498000074C02F00DFFA41BA4080025AC4200D187
:1049900070BD56F8043B98470135F7E754820B0089
:1049A00078820B0000F02CB908B500F089F9BDE859
:1049B000084002F0ADBE01F0B5BD01F0B3BD01F09D
:1049C000B9BD01F0B7BD000008B5034A03490C208A
:1049D00001F0FCFCFEE700BFAD600B00DC7D0B00CE
:1049E0000078B0FA80F040097047012303707047E7
:1049F00070470000014B01221A7070477CE40320CD
:104A0000014B00221A70704718E60320014B012267
:104A10001A70704738E60320704710B5102104461D
:104A2000FFF7CFFF204610BD436913B183690C30F7
:104A30001847704713B500210446084601F0DEFA16
:104A40000023204601A9019301F0F0FA019C0CB16A
:104A5000012323710021012001F0D0FA2CB1236839
:104A600020469B6898470023237102B010BD012A9D
:104A700002D1016000207047022A04BF0B68036066
:104A8000F8E70368184737B5044680680D4630B12B
:104A90000023CDE900331A46022101F0CFFAA068C5
:104AA00030B10023CDE900531A46194601F0C6FA89
:104AB00003B030BD0EB403B503AB002153F8042B93
:104AC000019301F0B2FF02B05DF804EB03B0704750
:104AD00073B5044608462279A36832B1A3B90B49DD
:104AE00002B0BDE8704001F065BF094A267B094D60
:104AF0000949647B012E18BF2946CDE900140749F6
:104B0000FFF7D8FF02B070BD054AEFE7027E0B0049
:104B1000F97D0B00FE7D0B00FA7D0B00187E0B006B
:104B2000F17D0B0010B58368044613B103220146E2
:104B30009847204610BD000037B5134B036004466C
:104B40008068C8B100256FF00043CDE9003502212F
:104B50002B462A4601F072FAA068294601F096FA1F
:104B6000237903F0FF0513B101F040FAF8E7A068DC
:104B7000294601F053FAA56004F10C00FFF7D2FFBB
:104B8000204603B030BD00BF8C7E0B0010B504463C
:104B9000FFF7D2FF20461C21FFF713FF204610BD70
:104BA000F0B58C4600251449057104468560016006
:104BB00092E8030085B002AF04F10C0687E8030019
:104BC00096E8030082E8030097E8030086E8030004
:104BD0009168A0696161D1689560D060A161CDE9FB
:104BE0000035064A2346614604F1080001F00EFA3A
:104BF000204605B0F0BD00BF8C7E0B00354A0B008F
:104C000013B5204C02F0B2FC4FF4165102F0A2FC96
:104C10005021204600F01BFD21461B4800F07AFD84
:104C20000121032002F02CFE0121042002F028FEC5
:104C30000121052002F024FE0121062002F020FEC1
:104C4000FF2312480093402200236FF03F010068C9
:104C500001F0A0FC0146062002F03CFE01210320E9
:104C600002F01FFE0121042002F01BFE012105209D
:104C700002F017FE06486FF0004102B0BDE8104098
:104C8000FFF701BFA0E503200CE5032078E4032033
:104C90001CE6032038B50D46C0F1FF010320144681
:104CA00002F018FEC5F1FF01042002F013FEC4F16A
:104CB000FF010520BDE8384002F00CBE00000000F6
:104CC0002DE9F04F2DED048BC9488BB000F09EFE0E
:104CD000002800F03A82C64801F06FF8C54E3378DC
:104CE000002B3CD0C449C54D02A802F012F8C449BB
:104CF00002A802F05DF8C34902F05AF8C24902F076
:104D000057F8C24B0A221978044606A802F026F882
:104D100006A9204602F04CF80146284601F0EAFFB9
:104D200006A801F06BFF02A801F068FF2A68B849E5
:104D3000AF4800F0E6FF02F019FC2946044606A839
:104D400001F0E7FFB34906A802F03EF801682046EB
:104D500001F043FE06A801F051FF00233370AE4F6F
:104D6000AE48AF4D394600F0ABFC002876D02E4659
:104D70000FCEAC4C0FC496E8030084E80300B7F9EB
:104D80000000FFF79FFAA84B0022FFF705FBA74B97
:104D90000022FFF701FB0022002380468946FFF72F
:104DA00081FDA34B0022002800F0DA8140464946ED
:104DB000FFF73CF9FFF78AFDFFF784FA9B4B0022CF
:104DC000FFF714FCC5E90001B7F90200FFF77AFA12
:104DD000954B0022FFF7E0FA944B0022FFF7DCFA34
:104DE0000022002380468946FFF75CFD904B00229D
:104DF000002800F0BA8140464946FFF717F9FFF74F
:104E000065FDFFF75FFA894B0022FFF7EFFBC5E96D
:104E10000201B7F90400FFF755FA834B0022FFF7B0
:104E2000BBFA824B0022FFF7B7FA002200230646A6
:104E30000F46FFF737FD7E4B0022002800F09A81D5
:104E400030463946FFF7F2F8FFF740FDFFF73AFA30
:104E5000764B0022FFF7CAFBC5E90401714F704E83
:104E6000DFF8F4B1DFF8F4A10324B7EC027BDBE94F
:104E70000089B0EE478AF0EE678AB6EC027B4246C4
:104E80004B4651EC180BB0EE479AF0EE679AFFF7DD
:104E9000CBF853EC192BFFF705FD68B942464B469A
:104EA00051EC180BFFF7C2F802460B4651EC190BF8
:104EB000FFF7F8FC002841D09AF8001000293DD1F6
:104EC0005C4A1368013313605A4203F0030802F08E
:104ED000030358BFC3F10008B8F1020F00F04F817F
:104EE000B8F1030F00F05181B8F1010F0CD1474B1D
:104EF0000320197802F0D5FC4146042002F0D1FCD1
:104F00000121052002F0CDFC4B484FF001086FF065
:104F100000418AF80080FFF7B6FD484B986840B121
:104F20006FF000420023CDE9002341461A4601F00C
:104F300085F842486FF00041FFF7A5FD013C94D190
:104F40003F4B1A78002A00F0BB813E481C706FF07E
:104F50000041FFF798FD3C4B1B78002B00F050817F
:104F6000D5E90201314BDFF8F8800022FFF714FA8F
:104F70000646D8F800000F46FFF7A4F902460B4694
:104F800030463946FFF752F8FFF7A0FC40F2F963CC
:104F9000C8F80000802200936FF07F01234601F0E3
:104FA000F9FA2A4B2A4E18608246FFF78BF90EA3B6
:104FB000D3E9002380468946FFF736F8024621F000
:104FC000004309A1D1E90001FFF72EF8FFF77EFCAD
:104FD000204B30600022494607464046FFF724F840
:104FE00040E000BFAFF300800000000000E8774021
:104FF0003CE5032038E60320B8E60320ACE50320B7
:10500000A8E6032088E6032098E60320C0E50320F5
:10501000357E0B00417E0B0074E603200CE5032077
:10502000E8E5032000E603200000103F00002440D4
:105030000000E03FC8E60320C4E5032058E6032053
:105040007CE403203CE6032039E50320E0E503206F
:10505000BCE5032000EC834088E4032018E603202D
:105060009CE5032021F000430246A2A1D1E9000102
:10507000FEF7DAFFFFF72AFCAAF5FF73002BB8BF93
:105080005B42DFF87882DFF87892C8F80000FF3BD7
:10509000FF2B40F38480FF23C9F80030FF2F40F33B
:1050A0008580FF233360FF2840F38580FF23C8F805
:1050B00000303168D8F80020D9F80000844CFFF7A0
:1050C000E9FD0A22D9F8001006A801F047FE06A95A
:1050D0007F4801F029FE06A801F090FD0A22316800
:1050E0007C4E06A801F03AFE06A97B4801F01CFEA2
:1050F00006A801F083FD0A22D8F8001006A801F0E6
:105100002DFE06A9754801F00FFE06A801F076FDF8
:10511000A368032B54D1704C6E4EA368032B5FD150
:105120006E4C6C4EA368032B6AD0314606A801F082
:10513000B0FD214606A801F03BFE0146204601F0E5
:10514000D9FD06A801F05AFDECE706A801F07AF9AE
:105150000699634800F04AFD06A801F04FFDBDE541
:1051600040464946FEF760FF24E640464946FEF7C2
:105170005BFF44E630463946FEF756FF64E60420FE
:1051800002F08FFB01210320B8E6052002F089FB25
:105190000121042002F085FB01214046B2E614EA19
:1051A000230438BF1C46C9F8004077E7002FBFF63C
:1051B0007AAF002376E70028BFF67BAF002376E7BF
:1051C000314606A801F065FD214606A801F0F0FD74
:1051D0000146204601F08EFD06A801F00FFD97E77D
:1051E000314606A801F055FD214606A801F0E0FD74
:1051F0000146204601F07EFD06A801F0FFFC8CE789
:10520000384B1B78002B5BD0374B384C0022D5E94C
:105210000201FFF7C1F8064620680F46FFF752F873
:1052200002460B4630463946FEF700FFFFF74EFBBD
:1052300010F1400F03DA6FF03F03236002E04028D3
:105240002ADC2060FF230093402200236FF03F01FF
:105250002068274D1F4E01F09DF90A22014606A83D
:1052600001F07CFD06A9224801F05EFD06A801F0D0
:10527000C5FCAB68032B11D0314606A801F009FD2F
:10528000294606A801F094FD0146284601F032FDAA
:1052900006A801F0B3FCECE74023CEE7FF23009320
:1052A0002068002340226FF03F0101F073F90146AE
:1052B00006200BB0BDEC048BBDE8F04F02F00ABB3A
:1052C0000BB0BDEC048BBDE8F08F00BFAFF30080E6
:1052D000B8E603206B7E0B00A8E6032088E60320D7
:1052E0003CE5032038E503200000244078E4032057
:1052F00098E603200000000000E8774034E5032032
:1053000080E4032070B5314D02F030F92C68002C98
:1053100006461CDA2D2101F051FB61420A222C4C79
:10532000304601F064FB304601F04BFB2278002A46
:1053300040D12B68594201F0030103F0030358BF29
:105340004B42032B17D8DFE803F02504192521462B
:10535000E4E7204B1A70204B1978032081F00101FB
:10536000197002F09EFA0121042002F09AFA01213C
:10537000052002F096FA00232B6070BD154B1A70C1
:1053800001232370154B1A60154B00221A605A60D6
:105390009A60F0E70021052002F083FA0121042041
:1053A00002F07FFA0121032002F07BFA094B01226F
:1053B0001A70E0E70B4B1A680B4B19680B4B186817
:1053C000FFF768FC00232370D5E700BFC8E6032081
:1053D00039E5032038E50320C0E503209CE50320E0
:1053E0007CE6032034E50320BCE5032080E40320B1
:1053F00070B5002188B0012001F008F80023414970
:10540000414C009340F25B72404B4148414D00F0EB
:1054100021FA414800F00EF90821204600F022F957
:105420003E4B23602978BFF35B8F11F001010BD154
:1054300028460391FFF7D4FA039928B1384801F0C0
:1054400031FB2846FFF7D1FA354BE3600223236195
:10545000344BA361344B236200260123334A344D7D
:10546000A384267526770492324C3348079504AA04
:105470004FF4FA710694FFF793FB04A8FFF752FB71
:105480002E4A0492012304AA4FF4FA712C48CDE964
:105490000645FFF785FB04A8FFF744FB294A049261
:1054A000012304AA4FF47A712748CDE90645FFF796
:1054B00077FB04A8FFF736FB244B049304AA33467A
:1054C0004FF47A712248CDE90645FFF769FB04A83D
:1054D000FFF728FB1F49204801F0DBFB1F4920484C
:1054E00001F0D7FB1D491F4801F0D3FB19491E48A5
:1054F00001F0CFFB1D491E4808B0BDE8704001F027
:10550000C8BB00BF4C7E0B000CE50320194A0B0002
:105510003CE5032000E50320A0E50320D07E0B003E
:1055200004E50320787E0B0080969800F5490B0077
:10553000834A0B006F4A0B003CE60320014A0B0034
:10554000C4E5032005530B0058E603200D4A0B0069
:105550001CE603205B7E0B00B8E60320697E0B008F
:10556000A8E6032088E6032098E603205F7E0B0070
:10557000ACE50320704710B528210446FFF721FA57
:10558000204610BD10B5044600F11801C06801F0B6
:10559000C1FA208A0021BDE8104002F082B910B59E
:1055A00004460121008A02F07CF9E068BDE8104061
:1055B00001F096BAF8B51E4603685B690F461446BB
:1055C00005469847012E88BF47F04007E86847F036
:1055D000800101F00DFB2644B44206D0E8680021AA
:1055E00001F006FB04F8010BF6E72B6828469B69DF
:1055F00098470120F8BDF8B51E4603685B690F4661
:10560000144605469847012E88BF47F04007E868D2
:10561000394601F0EDFA2644B44205D014F8011BD6
:10562000E86801F0E5FAF7E72B6828469B69984798
:105630000120F8BD0022027042708270C2700271B7
:1056400042718271C271027242728272704700228C
:1056500041F007010170027182704270C2714272A2
:1056600070470000024AC0E9002100220272704720
:10567000B47E0B0013B5036801AADC680123A047C0
:105680009DF8040002B010BD38B505460A240F216C
:105690002846FFF7EFFF33284FF0010004D000F059
:1056A00085FF013CF3D1204638BD10B50446018A80
:1056B000C06801F001FA2046BDE81040FFF7E4BFE2
:1056C000F7B50C4627210546FFF7D4FF00F0080088
:1056D000002814BF012600260FD02B686A46DF6819
:1056E000282106232846B847BDF800302380BDF89E
:1056F00002306380BDF80430A380304603B0F0BDB3
:1057000013B503688DF804201C6901AA0123A04782
:1057100002B010BD70B503689B6804460D469847FB
:10572000064630B901F022FF274901F056F930460C
:1057300070BD2A7820212046FFF7E2FF6A782121F8
:105740002046FFF7DDFFAA7822212046FFF7D8FF89
:10575000EA7823212046FFF7D3FF2A792421204627
:10576000FFF7CEFF6A7925212046FFF7C9FFAB7905
:105770001BB126212046FFF77DFFAA7A2E21204665
:10578000FFF7BEFFAB785B06D1D5EA793221204620
:10579000FFF7B6FF2A7A33212046FFF7B1FF63688F
:1057A000002B0ADB6A7A227220463021FFF7A8FF1D
:1057B00031212046FFF75EFFB9E700222272302137
:1057C0002046FFF79DFFB2E7987E0B0091F85C3012
:1057D00010B50446016013B1886D00F03FFC20460F
:1057E00010BD10B5036893F85C20044612B1986DA3
:1057F00000F03CFC204610BDF8B51F469DF8243053
:1058000004460D4616462BB1012380F85C30583013
:1058100000F01CFC089B23630023636306B1A664AD
:1058200025B1294604F1380001F086FA069B23656C
:10583000079BE069A4F84C70FF2BB8BFFF23A4F8C6
:10584000543008B1FFF7BBF8B4F85400FFF7B5F8CF
:10585000E061F8BD2DE9FF41044600251746984652
:105860000E4601F0B5FD0D49E56104F1380001F087
:1058700010FA9DF82830A564CDE90283FF220F239A
:10588000CDE90032204684F85C503B462A4631463A
:10589000FFF7B2FF204604B0BDE8F081F97D0B00B0
:1058A00010B50446204601F0EFFC0028FAD020464F
:1058B00001F0D4FAC0B210BD2DE9F0470546884684
:1058C000FFF7EEFFEB691870EB6993F800A04FF05B
:1058D00001090AF0F00A00274C462846FFF7E0FFCE
:1058E0002646EB69985500F07F0313FB09F31F442C
:1058F00001340306A4B2BFB24FEAC919EDD4631E46
:10590000BAF1300F88F800301ED12846FFF7C8FFE3
:10591000EB6918552846FFF7C3FFF41C0236B6B2F0
:10592000EB69A4B298550226B6B2BE420ED2284602
:10593000FFF7B6FFB5F85430A34284BFEB691855A2
:105940000134A4B20136EFE70026EDE7B5F8543094
:10595000A3422CBF20460020BDE8F0872DE9F3418B
:1059600015461E461A4607460023964602A802F030
:105970007F0CBEF17F0F03F10104034488BF4CF09C
:10598000800CBEF17F0F4FEAD212E4B203F804CCD0
:105990001ED8C4F10403C4F10500E954224601A94C
:1059A000284405EB030802F055F9721C22444146D5
:1059B000384601F03EFA054600F080FB621C786232
:1059C0003244A8B2131A5842584102B0BDE8F081DF
:1059D0002346CAE70233F0B5054698B20023CE5CF1
:1059E0009CB256B1B5F854C0844503F1010704D9FF
:1059F000441C16543B46A0B2F1E799B2411A0A443E
:105A0000210A02F8021C02F8013CF0BD38B5044638
:105A100001F05CFB002814BF0125002502D12046BF
:105A200001F08CFC284638BD2DE9F04788B00446CB
:105A3000DDF840809DF850A0894617461E46FFF7C6
:105A4000E5FF0546002840F0CD80214601A8FFF77C
:105A5000BDFEA16C002940F08880B4F84C20A16BF9
:105A60002B46204601F0B4FA00287AD00123238483
:105A70009DF85430E269042B5B4B40F0818018683C
:105A800099889B79ADF80C108DF80E300290C2F811
:105A900005009DF80E30BDF80C10A2F80910D37265
:105AA0000C23B8F1000F00F081809DF848009DF8AC
:105AB0004420400140EAC20040F00600C0B2BAF102
:105AC000000F01D100F0FD001FB1002E70D140F099
:105AD0008000E269D054226DE169581C12120A5408
:105AE0009A1CE169206D88540333E26949462046D7
:105AF000FFF770FF0346B8F1000F0BD0E269414693
:105B00002046FFF767FFE269139903462046FFF737
:105B100061FF034667B1E26939462046FFF75AFF45
:105B200003462EB1E26931462046FFF753FF034694
:105B3000053BE2699BB210212046FFF70FFF00F002
:105B4000BDFAC4E909004FF47A76204601F09CFBC7
:105B500088BB00F0B3FAA36AC01A236D734398425E
:105B6000F3D9204601F0EAFB35E002A800F030FE50
:105B7000B4F84C202B4602A9204601F009FB73E73C
:105B8000D3F80700D3F80B10DB7B0DF1080CACE861
:105B900003008CF8003002AB03CBC2F80500C2F85A
:105BA00009109CF8003053730E237AE7022086E731
:105BB00040F0C0008DE702A92046FFF77DFE0428D3
:105BC000CFD1E369DE78002ECBD100F077FA012542
:105BD000A06284F82C6001A8FFF703FE284608B0F5
:105BE000BDE8F0870025F9E7B87D0B007FB50123FC
:105BF0000422CDE904320023CDE90233CDE900339C
:105C00001A46FFF711FF07B05DF804FB2DE9F74FC7
:105C1000DDF83C809DF834509DF8389004468B4662
:105C200016461F46FFF7F2FE8246002851D0214655
:105C300001A8FFF7CBFDB4F85420E069002102F081
:105C400017F80523E26959462046FFF7C3FE6B1E8D
:105C5000012B15D8218CE369013189B22184090A0D
:105C60001954421CE369218C92B20230995480B2DB
:105C7000B8F1000F04D0238C5A1C2284A8F80030FD
:105C800000210B188F42E2699BB20AD9B4F854C0C4
:105C90009C4506D916F801C002F803C0013189B24B
:105CA000EFE79DF8301000290CBF30213121B9F108
:105CB000000F01D041F00801022D0ED141F0040186
:105CC000053B9BB22046FFF749FE824601A8FFF73D
:105CD00088FD504603B0BDE8F08F012D08BF41F0AC
:105CE0000201EDE71FB5089C0394002402949DF87F
:105CF0001C4001949DF818400094FFF787FF04B002
:105D000010BD30B587B00446104605910492FEF7E9
:105D10000FFE00250346CDE90155DDE9042100957C
:105D20002046FFF7DFFF07B030BD73B504460E46CF
:105D3000FFF76CFE0546C8B1214601A8FFF746FDF6
:105D4000E36962221A70E36902225A70E369320A37
:105D50009A70E369DE70E1690422204601F069F877
:105D6000051E01A818BF0125FFF73BFD284602B01C
:105D700070BD73B504460E46FFF748FE0546C8B130
:105D8000214601A8FFF722FDE36972221A70E36938
:105D900002225A70E369320A9A70E369DE70E1699F
:105DA0000422204601F045F8051E01A818BF012570
:105DB000FFF717FD284602B070BD2DE9F04F2DED1D
:105DC000028B87B000AF0446FFF720FE8146F8B192
:105DD000214607F11400FFF7F9FC00F06FF9236D7D
:105DE0004FF47A725343A26A821A9A42064603D843
:105DF000626A821A934221D294F82C307BB12046F9
:105E000001F09CFA4FF0000907F11400FFF7E9FCDC
:105E100048461C37BD46BDEC028BBDE8F08FE269F9
:105E2000C0211170E2695370E1690222204601F03D
:105E300000F8C4E90966012384F82C30204601F0FB
:105E400023FA0028E0D007F113012046FFF734FDC4
:105E500083460028D8D0E369A662197801F0F002E1
:105E6000302A7FD1D4F830A0BAF1000FCCD097F807
:105E700013C06A4608EE102A03EB0C02517895789D
:105E800005EB0125ADB205F108026946D208A1EB88
:105E9000C20295460CF10302FA6003EB020E0DEB11
:105EA00005026846C7F808D07A60D7E901218A421E
:105EB00006D00A461EF8018B02F8018BBA60F4E79F
:105EC0000022425593F80080F96808F00608ABEB11
:105ED0000C02033AB8F1020FA2EB0502294425D1C6
:105EE00013F801E01944023A91F801B00CF10501F0
:105EF000294419440BEB0E2BD047E36940221A705A
:105F0000E3691FFA8BFB83F80180E3694FEA1B22E8
:105F10009A70E36983F803B0E1690422204600F037
:105F200088FF666218EE103A9D466DE7B8F1040FDF
:105F300015D113F801E01944023A91F801B00CF1BF
:105F40000501294419440BEB0E2BD047E36950227D
:105F50001A70E36902221FFA8BFB5A70D5E71944C5
:105F6000D047DFE7502A08D19A78D97801EB02218F
:105F700089B22046FFF7D9FE46E7402A12D1626B6C
:105F8000002A3FF441AFBBF1040F7FF43DAF11F0A5
:105F9000060F7FF439AF9978D87800EB012080B2F2
:105FA000904731E7602A08D19A78D97801EB02212D
:105FB00089B22046FFF7DDFE26E7702ADFD0902A5F
:105FC0003FF422AFC02A0AD1D0221A70E36900221E
:105FD0005A70E1690222204600F02BFF14E7D02A14
:105FE00004BF002384F82C300EE7000008B5024BF4
:105FF0001B68DB68019308BD4802030008B5024B2B
:106000001B68DB69019308BD4802030008B5024B19
:106010001B681B6A019308BD4802030008B5024BC8
:106020001B685B6A019308BD4802030008B5024B78
:106030001B689B6A019308BD4802030008B5024B28
:106040001B68DB6A019308BD4802030008B5024BD8
:106050001B681B6B019308BD4802030008B5024B87
:106060001B689B6B019308BD4802030008B5024BF7
:106070001B681B6C019308BD4802030008B5024B66
:106080001B685B6C019308BD4802030008B5024B16
:106090001B681B6F019308BD4802030008B5024B43
:1060A0001B685B68019308BD1802030008B5024B2A
:1060B0001B68DB68019308BD1802030008B5024B9A
:1060C0001B685B69019308BD1802030008B5024B09
:1060D0001B685B68019308BD2C02030008B5024BE6
:1060E0001B689B68019308BD2C02030008B5024B96
:1060F0001B68DB68019308BD2C02030008B5024B46
:106100001B681B69019308BD2C02030008B5024BF4
:106110001B689B6A019308BD2C02030008B5024B63
:106120001B689B6F019308BD2C02030008B5024B4E
:106130001B681B6A019308BD2802030008B5024BC7
:106140001B685B6A019308BD2802030008B5024B77
:106150001B689B6A019308BD2802030008B5024B27
:106160001B68DB6A019308BD2802030008B5024BD7
:106170001B681B6B019308BD2802030008B5024B86
:106180001B685B6B019308BD2802030008B5024B36
:106190001B681B6C019308BD2802030008B5024B65
:1061A0001B685B69019308BD6C02030008B5024BD4
:1061B0001B685B69019308BD6402030008B5024BCC
:1061C0001B681B6A019308BD6402030008B5024BFB
:1061D0001B689B6A019308BD6402030008B5024B6B
:1061E0001B689B68019308BD6802030008B5024B59
:1061F0001B68DB68019308BD6802030008B5024B09
:106200001B689B69019308BD3802030008B5024B67
:106210001B68DB69019308BD3802030008B5024B17
:106220001B681B6A019308BD3802030008B5024BC6
:106230001B689B6A019308BD3802030008B5024B36
:106240001B681B6B019308BD3802030008B5024BA5
:106250001B689B6B019308BD3802030008B5024B15
:106260001B681B68019308BD3002030008B5024B90
:106270001B685B69019308BD3002030008B5024B3F
:106280001B68DB69019308BD3002030008B5024BAF
:106290001B681B6A019308BD3002030008B5024B5E
:1062A0001B685B6A019308BD3002030008B5024B0E
:1062B0001B68DB6B019308BD3002030008B5024B7D
:1062C0001B681B6C019308BD3002030008B5024B2C
:1062D0001B685B6C019308BD3002030008B5024BDC
:1062E0001B68DB68019308BD3C02030008B5024B44
:1062F0001B681B69019308BD3C02030008B5024BF3
:106300001B685B69019308BD3C02030008B5024BA2
:106310001B689B69019308BD3C02030008B5024B52
:106320001B68DB69019308BD3C02030008B5024B02
:106330001B681B6A019308BD3C02030008B5024BB1
:106340001B689B6A019308BD3C02030008B5024B21
:106350001B681B6C019308BD3C02030008B5024B8F
:106360001B681B68019308BD4C02030008B5024B73
:106370001B685B68019308BD4C02030008B5024B23
:106380001B681B69019308BD4C02030008B5024B52
:106390001B685B69019308BD4C02030008B5024B02
:1063A0001B689B69019308BD4C02030008B5024BB2
:1063B0001B68DB69019308BD4C02030008B5024B62
:1063C0001B681B6A019308BD4C02030008B5024B11
:1063D0001B685B6B019308BD6002030008B5024BAC
:1063E0001B681B6D019308BD6002030008B5024BDA
:1063F0001B685B68019308BD2002030008B5024BCF
:106400001B685B69019308BD2002030008B5024BBD
:106410001B68DB6A019308BD2002030008B5034B2B
:106420001B68D3F88830019308BD000020020300E8
:1064300008B5034B1B68D3F89430019308BD0000E6
:106440002002030008B5024B1B68DB69019308BDFD
:106450004402030008B5024B1B68DB6B019308BDC7
:106460004402030008B5024B1B685B68019308BD3A
:106470004002030008B5024B1B689B68019308BDEE
:106480004002030008B5024B1B68DB68019308BD9E
:106490004002030008B5024B1B681B69019308BD4D
:1064A0004002030008B5024B1B685B69019308BDFD
:1064B0004002030008B5024B1B689B69019308BDAD
:1064C0004002030008B5024B1B68DB69019308BD5D
:1064D0004002030008B5024B1B681B6A019308BD0C
:1064E0004002030008B5024B1B681B6B019308BDFB
:1064F0004002030008B5024B1B685B6B019308BDAB
:106500004002030008B5024B1B681B6C019308BDD9
:106510004002030008B5024B1B685B6C019308BD89
:106520004002030008B5024B1B681B68019308BDBD
:106530001C02030008B5024B1B685B68019308BD91
:106540001C02030008B5024B1B689B68019308BD41
:106550001C02030008B5024B1B685B6A019308BD6F
:106560001C02030008B5024B1B68DB6B019308BDDE
:106570001C02030008B5024B1B681B6C019308BD8D
:106580001C02030008B5024B1B685B6C019308BD3D
:106590001C0203008A4210B507D0441A0298C01AA0
:1065A0004443501A94FBF0F0184410BD0021FFF74B
:1065B00025BF0000024800230360FFF75FBD00BF56
:1065C000CCE60320002240681146FFF783BF00227B
:1065D00040681146FFF78EBF40680022FFF782BF78
:1065E0004068002281F00101FFF76CBF0023406882
:1065F0001A461946FFF75EBF002340681A4619463F
:10660000FFF750BF002240681146FFF743BF00224A
:1066100040681146FFF72EBF406800220221FFF7B5
:1066200031BF002340681A46FFF71CBF024B03220C
:106630005A60024A1A607047D0E60320FC7E0B00C5
:106640007047F8B5064615460C468F18BC4206D072
:10665000336814F8011B9B6830469847F6E72846D4
:10666000F8BD007C0022FFF761BD007C0021FFF730
:1066700065BD007C0021FFF769BD007C0021FFF7AC
:106680006DBD007C0021FFF771BD10B514210446DB
:10669000FEF797F9204610BD38B5044615464FF46D
:1066A0007A730022C4E90123094B21740846236050
:1066B0002946FFF76BFDBF3008D16B69DB0705D5B5
:1066C0006868FFF737FFE868FFF734FF204638BDFA
:1066D000387F0B00704710B518210446FEF771F99A
:1066E000204610BDF0B5037D062B8DB00E4600F19F
:1066F00004074FF0000412D000F1080515F8011D41
:106700000A22304600F073F9AF42044419D0002C3D
:10671000F4D02E21304600F051F90444EEE72F2347
:106720006A4639460A208DF80040FFF73FFD68466B
:10673000FEF7FEF833680246DB6869463046984744
:10674000044620460DB0F0BD10B5054B044611229D
:1067500040F8043B002101F08BFA204610BD00BF39
:10676000607F0B000346074A10B543F8042B01F184
:10677000100251F8044B43F8044B9142F9D10A78C6
:106780001A7010BD607F0B00037D042B04D140689C
:10679000003818BF01207047062B07D143683BB96A
:1067A00083682BB9C3681BB90069F1E70020704703
:1067B0000120704710B59DF8084044EA032343EADE
:1067C000024242EA016104234160037510BD0000EA
:1067D00007B5064B0360CB7800938B784A7809782D
:1067E000FFF7E8FF03B05DF804FB00BF607F0B001C
:1067F000014B024A1A607047D8E603206C7F0B00F9
:10680000002340681A46FFF72DBE4068002202218F
:10681000FFF738BE002240681146FFF72BBE00226A
:1068200040681146FFF736BE002340681A461946F5
:10683000FFF738BE002340681A461946FFF73ABEF4
:1068400040680021FFF75EBE40680021FFF762BE8E
:106850004068002281F00101FFF734BE4068002249
:10686000FFF740BE002240681146FFF743BE0022FA
:1068700040681146FFF72EBE2DE9F04395B014464F
:106880000D460746FFF760FF00211C220DA800916E
:1068900001F0EEF940230C9320466B460CAA002130
:1068A000FFF7A4FC044600284BD10246012168688A
:1068B000FFF7F0FD0221804622466868FFF7EAFDF7
:1068C000009E81462146002E3BD0002939D17368B5
:1068D000022B03D00A2B11D0F669F4E7B8F1000FB0
:1068E000FAD0716906A8043107ADFFF771FF0FCD2B
:1068F0003C1D0FC42B6823704146EDE7B9F1000F32
:10690000EAD07469102201A801F0B2F906238DF8CB
:10691000143001AD04F108031834186859682A4688
:1069200003C20833A3421546F7D101A906A807AD53
:10693000FFF718FF0FCD3C1D0FC42B68237049468D
:10694000CAE70098FFF74AFC384615B0BDE8F08367
:10695000024B034A1A6000225A607047DCE60320AB
:10696000787F0B00F8B506460D468F180024BD420F
:106970000CD0336815F8011B9B6830469847031EFE
:1069800001DB1C44F3E7002C08BF1C462046F8BD81
:1069900013B50446084659B10191FDF7C9FF2368B4
:1069A0000199DB680246204602B0BDE81040184756
:1069B00002B010BD08B5FFF7EBFF08BD03689B6888
:1069C000184738B50D210546FFF7F8FF0A210446A0
:1069D0002846FFF7F3FF204438BD38B50546FFF7DA
:1069E000D7FF04462846FFF7ECFF204438BD30B5FA
:1069F0008BB00023012A8DF8243098BF0A2209ACFD
:106A00000D46B1FBF2F101FB125303F0FF03092B1A
:106A100094BF30333733DBB2AA4204F8013DEFD9DB
:106A20002146FFF7B5FF0BB030BD2DE9F04186B030
:106A300000AF05460E46381D142114463B60FFF793
:106A400089FD13280ED8391D2846FFF7A1FF0446FB
:106A50001EB12846FFF7B5FF044420461837BD464F
:106A6000BDE8F08100F1080323F00703E846ADEB31
:106A7000030D2246411C3B686846FFF76BFD6946E3
:106A80002846FFF785FF0446C546E1E7014B002293
:106A90009A607047E4E603200021FFF717BC00214D
:106AA000FFF70CBC10B5044608462170FFF7E6FB63
:106AB00000236360204610BD13B5044600780191A1
:106AC000FFF7EDFF019948B920780190FFF7C6FB69
:106AD000019802B0BDE81040FFF7DEBF02B010BD64
:106AE0000078FFF7D9BF0000400830B518600024D7
:106AF00018688842E5B206D90134082C02D0400853
:106B00001860F5E70725024B5B5D137030BD00BFD1
:106B1000AC7F0B002DE9F04306468FB000780C46A1
:106B2000FFF7BDFF00281BDB35781422002109A8E0
:106B300001F09EF80B23002209A92846ADF8243065
:106B4000FFF7ACFB9DF82D3013B19DF82C5055B1DB
:106B50000027B946B846012523795DB1C3B10020AD
:106B60000FB0BDE8F083DDF830809DF834909DF8DB
:106B70003570F1E7002B35D1A368434508D18DF876
:106B800020908DF82170BDF82020A3899A42E6D08C
:106B90000023A1688DF80F300A9804AB0DF10F02A5
:106BA000FFF7A2FF217985B989B9A36843450ED3C0
:106BB0008DF820908DF82170BDF82020A3899A428D
:106BC00005D1049B434502D1C9E70029F9D100232F
:106BD0000193637B00939DF80F20237B3078FFF7B0
:106BE00065FBBCE7CDE900552B462A460121F5E7B8
:106BF00008B50078FFF73AFBC0B208BD10B50446EF
:106C00000068FFF797FC204610BD10B504460068E9
:106C100008B1FFF78FFC0023C4E90133236010BDE6
:106C200038B504460D4600680131FFF78BFC10B102
:106C3000C4E90005012038BD10B50368044623B13E
:106C400043688B4201D3012010BD2046FFF7E8FFC7
:106C50000028F9D0A368002BF5D122681370F2E761
:106C600037B50D46114601920446FFF7E5FF019A3C
:106C700028B92046FFF7C9FF204603B030BDA26007
:106C80002946206800F0E6FF2268A3680021D1545D
:106C9000F2E7002313B5C0E90033044683600373B1
:106CA00041B108460191FDF743FE01990246204695
:106CB000FFF7D6FF204602B010BD38B50546006884
:106CC0000C4668B16A688B689A4207D3096801F07C
:106CD00005F8A368AB600023A36038BDFFF72AFC6A
:106CE00023682B6063686B60A368AB600023C4E912
:106CF0000033F1E7884210B5044605D00B682BB18C
:106D00008A681946FFF7ACFF204610BDFFF77DFFEC
:106D1000FAE710B500230446C0E90033836003732B
:106D2000FFF7E8FF204610BD884210B5044601D0A9
:106D3000FFF7C3FF204610BD13B5044659B10846FE
:106D40000191FDF7F5FD019902462046FFF788FF06
:106D5000204602B010BDFFF758FFF9E710B5044612
:106D60008AB00023C4E90033A3602373084601A955
:106D700000F096FC01A92046FFF7DEFF20460AB08E
:106D800010BD70B505460E4609B9002070BD6AB148
:106D9000846814442146FFF74FFF0028F5D0286887
:106DA000AB683146184400F099FFAC600120EDE774
:106DB00010B58A6809680446FFF7E3FF10B920465A
:106DC000FFF723FF204610BD13B5044629B920461E
:106DD000FFF71BFF204602B010BD08460191FDF7EA
:106DE000A7FD019902462046FFF7CBFF0028EED011
:106DF000F0E70000054B02221A60054B054A9A6035
:106E00000020C3E90000FFF7F1BA00BF00E703204C
:106E1000F4E603200000FFFF13B503688DF80710A8
:106E2000DC6B01224FF0FF330DF10701A04702B0E8
:106E300010BD10B40368DC6B4FF0FF33A4465DF85F
:106E4000044B604713B5134602688DF80710D46BE6
:106E50000DF107010122A04702B010BD10B5436932
:106E6000B3F88620B3F884309A42044608D06369A8
:106E7000B3F88420511CA3F884101344187910BD72
:106E800003681B6998470028F1D14FF0FF30F6E7FF
:106E9000704743691868C043C00F704770470000CF
:106EA000064B994210B500F10C0405D0084600F0DD
:106EB000B9FD002808BF0024204610BDEC7E0B0061
:106EC00010B5AC210446FDF77CFD204610BDAC2179
:106ED000FDF777BD2DE9F0414FF0000886B01C4664
:106EE000C0F8048005460E4617464146102202A807
:106EF00000F0BEFE631C09D04FF47A73B4FBF3F2CA
:106F000003FB1244CDE902285C4304946869102312
:106F10000093006802AB41F2050240F6FF71FFF7F3
:106F20006DF9002807DAFFF71DFB03686B6000208E
:106F300006B0BDE8F0816869002300683A46314632
:106F4000FFF77CF9031EEEDB1846F1E738B58469DC
:106F50000A4B036005467CB16368013B63605BB923
:106F6000236820469B689847A368013BA3601BB930
:106F700023682046DB689847284638BDF07F0B0021
:106F800010B50446FFF7E2FF20461C21FDF719FD6E
:106F9000204610BD30B587B0044601AD6846FFF706
:106FA00017FC0FCD04340FC42B68237007B030BD1D
:106FB00070B54D69054B04468C3544F8043B0646D4
:106FC0000FCD0FC42B682370304670BD607F0B005F
:106FD0002DE9F0439846036893B00D460024DB6A20
:106FE00006461746984728466B4622462146009497
:106FF000FFF7FCF80546002863D1009B002B4BD01F
:107000005B69002B48D006A8FFF79EFB009B5C69DC
:107010006378022B04D1211D06A8FFF7BBFF26E0F1
:107020000A2B24D11122294601A800F021FEA368D1
:10703000002B38D004F108030DF1040C1834186843
:107040005968624603C20833A3429446F7D1062327
:1070500001A90CA88DF81430FFF784FB0DF1340C56
:10706000BCE80F0007AC0FC4DCF80030237006A8A2
:10707000FFF78AFB80B1336807ADD3F82090124B3D
:107080000C930FCD0DAC0FC42B6823703A464346CA
:107090000CA93046C84705460098FFF79FF82846D8
:1070A00013B0BDE8F083E368002BC3D14FF6FF7047
:1070B000D4F81090FFF782F88145BBD104F1140198
:1070C000AAE72546E8E700BF607F0B0038B54369B3
:1070D0001A68002A054610DAB3F88620B3F884301F
:1070E0009A420AD103681B699847044628B92B685D
:1070F0002846DB6A9847204638BD0120FCE710B5DA
:107100004369B3F88620B3F884309A42044605D028
:107110006369B3F884201344187910BD03681B69B0
:1071200098470028F4D14FF0FF30F6E7F8B54369EF
:107130001746B3F88620B3F884309A4205460E46C7
:1071400016D06969B1F88430B1F88640E41ABC42BF
:1071500028BF3C46043322461944304600F07AFDED
:107160006A69B2F884302344A2F884302046F8BD1E
:1071700003681B6998470028E3D14FF0FF34F5E717
:1071800042690023A2F884304269A2F88630704731
:107190002DE9F0411F4603680C46DB6A8AB00546BC
:1071A00016469847237DD5F81480042B0CBF022087
:1071B0000A2006220121FFF749F8C8F800006B6990
:1071C0001B68002B08DA2B682846DB6A00249847E6
:1071D00020460AB0BDE8F0812846FFF7D1FFB7B1DD
:1071E000002303A9F8B20393ADF81030FEF7D6FFE1
:1071F0000028E8D1686906230093006803AB41F2D8
:107200000B0240F6FF71FEF7F9FF0028DBD11C22CC
:10721000002103A800F02CFD237D042B1DD14FF489
:1072200007733046ADF80C30FEF7D0FFADF80E0016
:107230006068FEF7C3FF04906B691C22186803A9FD
:10724000FEF7ECFF0028BED104340FCC6D698C35FD
:107250000FC523682B700124BAE740F61C23304683
:10726000ADF80C30FEF7B2FF05AEADF80E00231DF1
:1072700004F1140718685968324603C20833BB4248
:107280001646F7D1D8E7000030B54269B2F886302B
:107290008BB004462BB1B2F884209A4201D1FFF79B
:1072A0006FFF61690868002818DBB1F886507F2DF0
:1072B00014D804310823C5F180022944FEF7B6FF33
:1072C000002813DD6369B3F886200AB9A3F8842087
:1072D0006369B3F886201044A3F886006369B3F8A5
:1072E0008600B3F88430C01A0BB030BDFFF73AF90E
:1072F00003680B2BF2D0FFF735F903680B2BEDD0A9
:1073000020230025CDE90235FFF72CF9036801930E
:10731000084B0949009302AA2B463220FFF75EF87A
:1073200063691868FEF772FF63694FF0FF321A60F5
:10733000D4E700BFBB7F0B00B47F0B0010B54369DF
:1073400004461868002801DBFEF760FF63694FF010
:10735000FF321A606069112200218C3000F088FC35
:107360002046BDE81040FFF70BBF10B500230446D0
:107370000160C0F884308830FFF7E6F9204610BD80
:1073800073B500234FF47A72C0E901320E4A0361EB
:10739000026043610446AC200191FDF70CFB051E21
:1073A00005F10C0608D00123C5E90133074B01990B
:1073B0002B603046FFF7D9FF2046C4E90565FFF78B
:1073C000DFFE02B070BD00BFF07F0B00D47F0B006A
:1073D00010B54FF0FF310446FFF7D2FF204610BD35
:1073E00010B504460068002801DBFEF70FFF2046B9
:1073F00010BD0C30FFF7F4BF024B1A68024B1A6045
:10740000704700BF90E4032004E7032070474174F5
:10741000704708B5007CFEF791FF20EAE07008BDD8
:1074200008B5007CFEF762FF20EAE07008BD08B5F1
:10743000007CFEF76BFF40EAE07008BD08B5007CF9
:10744000FEF75CFF40EAE07008BD007CFEF766BF17
:1074500037B5457C04462DB1207C03B0BDE83040F3
:10746000FEF73CBF007C0191FEF768FF0028019900
:10747000F2DC284603B030BD10B514210446FDF7F8
:10748000A0FA204610BD000010B54FF47A730446F0
:10749000084611460022C4E90123044B236001235E
:1074A00020746374FEF752FF204610BD58800B0015
:1074B000417470477047704708B50021007CFEF7A3
:1074C0006DFF40EAE07008BD08B50121007CFEF7C1
:1074D00065FF40EAE07008BD08B5007CFEF756FF86
:1074E00020EAE07008BD08B5007CFEF747FF20EAFF
:1074F000E07008BD13B50446007C0191FEF746FF1D
:107500000028019901DC607C20B1207CFEF74EFF51
:1075100020EAE07002B010BD007CFEF74FBF10B54E
:1075200014210446FDF74DFA204610BD10B54FF466
:107530007A73044608460021C4E90113044B236012
:107540000123207463741146FEF708FF204610BD26
:1075500088800B00007C0022FEF708BF10B51422C3
:107560000446002100F084FB204610BD10B50F4CEE
:1075700088B003A8FFF7F2FF2178BFF35B8F11F00B
:1075800001010FD120460191FDF72AFA019948B176
:1075900003AA0748FFF7CAFF2046FDF726FA054869
:1075A00000F052FB024808B010BD00BF08E70320FE
:1075B0000CE70320B5740B00002240681146FEF76B
:1075C00069BF002240681146FEF784BF0022406870
:1075D0001146FEF78FBF40680022FEF783BF406868
:1075E000002281F00101FEF76DBF002340681A46BA
:1075F0001946FEF75FBF002340681A461946FEF79A
:1076000051BF002240681146FEF734BF4068002297
:107610000221FEF737BF002340681A46FEF722BF5B
:10762000024B04225A60024A1A60704720E7032086
:10763000B8800B0010B50446FDF77AF9013823181D
:107640002046834206D90278197800F8011B03F816
:107650000129F6E710BD70B50C46911E22291DD8F0
:10766000254630B9234430229D4210D205F8012B23
:10767000FAE7B0FBF2F602FB1600C1B2092894BF8C
:1076800030315731C9B205F8011B3046E9E7002314
:1076900020462B70FFF7CEFF204670BD0020FCE790
:1076A00038B5031E0C4615460EDAB3F1004F4FF005
:1076B0002D0214BF5842184601230A702A46194465
:1076C000FFF7C9FF204638BD0123F9E7014B1860D9
:1076D000704700BF94E4032008B50B4B43B1FFF79C
:1076E00045FF03681B699847002801DDAFF3008060
:1076F000064B43B100F070F903681B6998470028F6
:1077000001DDAFF3008008BD0000000000000000B4
:1077100008B5FFF7E1FFFEF7D1FC014B186008BD8B
:1077200030E703200548064A064908B5121A00F05A
:1077300091FA054B054A1A6008BD00BF00F403200A
:1077400004F4032020830B0000F403201E1C279A5E
:1077500007B5002300931A466FF07701FEF768FE25
:1077600003B05DF804FB000007B543880A2B08D07E
:10777000502B0BD1094B1B684BB103B05DF804EBE8
:107780001847FFF7E5FF03B05DF804FB0023009303
:107790001A466FF07701FEF74BFEF4E72CE7032063
:1077A00010B512480021FEF7EDFE114B1A68114B7F
:1077B0009A42114B0CBF012200221A7001D0FFF730
:1077C000B1FFFEF76BFC044600F05AFA0B4B13B105
:1077D0002046AFF3008000210848FEF73BFEBDE8DD
:1077E000104007480021FEF719BE00BFCD760B0000
:1077F00000F403201E1C279A28E703200000000045
:1078000069770B00232813B502D9002002B010BD00
:10781000A0F10B03022B1AD8174C2178BFF35B8F12
:1078200011F001010BD120460191FDF7D9F8019922
:1078300028B11248FFF736F92046FDF7D6F80F4B6E
:107840001878FEF723FD0028DFD10120DEE70128AC
:1078500009D800F081F80021007CFEF78FFC80F051
:107860000100C0B2D2E709380128EED800F0B4F820
:10787000007CFEF75BFDF2E700E5032004E5032052
:10788000232838B504460D460AD8FF2908D0FFF74B
:10789000B9FF28B129462046BDE83840FEF71EBC96
:1078A00038BD38B504460D46FEF720FCFF2810D041
:1078B000062804D84D2323FA00F0C30709D4204634
:1078C000FFF7A0FF28B129462046BDE83840FEF763
:1078D00015BC38BD38B504460D46FFF793FFF0B12F
:1078E00004212046FEF7F2FB042805D1A9B2204668
:1078F000BDE83840FEF70ABC02212046FEF7E6FB51
:1079000002280CD12046FEF7F1FB012801D0042803
:1079100005D129462046BDE83840FEF7FFBB38BDFB
:107920007047000038B50A4B0360012304464361E9
:107930000849202000F074F8202560600549A56002
:10794000284600F06DF8C4E90305204638BD00BFA5
:1079500018000100EC800B0030B50E4D2978BFF304
:107960005B8F11F0010487B011D12846FDF738F87C
:1079700068B16846FFF7D6FF6A4621460648FEF71B
:107980008BFE2846FDF731F8044800F05DF9024807
:1079900007B030BD34E7032038E7032021790B001E
:1079A0007047000038B5044614252A46002100F02F
:1079B0005FF925804025074925812846258200F06A
:1079C0002FF804496060284600F02AF8E06020465D
:1079D00038BD00BFEC800B0030B50E4D2978BFF3E9
:1079E0005B8F11F0010487B011D12846FCF7F8FF36
:1079F00068B101A8FFF7D6FF01AA21460648FFF7A4
:107A000043FD2846FCF7F1FF044800F01DF9024849
:107A100007B030BD4CE7032050E70320A1790B00ED
:107A2000FCF7CBBF014900F0F9B800BF08810B009B
:107A30007FB500241023CDE90234036815469E6902
:107A400012686B46CDE90044B0479DF8043003F05E
:107A50000603062B03BF009B2B600120204604B0C9
:107A600070BD0098904214BF0120062070470000AE
:107A700010B5034B0360044600F0CDF8204610BD5E
:107A800048810B0010B50446FFF7F2FF204608219D
:107A9000FCF797FF204610BD2DE9F0411F46DDE9B8
:107AA0000834DDF8188098450646154607D1079931
:107AB00000F0B4F818B165710020BDE8F0813946D6
:107AC000304600F0ABF80028F6D00123C4F800805F
:107AD0002571A371F0E738B515461C4600F09EF8F5
:107AE00020B10823E36006232560237138BD73B5F8
:107AF00005460C4601921E4600F090F850B9032E40
:107B000008D82368019A5B692946204602B0BDE87F
:107B10007040184702B070BD10B5034B03600446B7
:107B2000FFF7A6FF204610BDA8810B0010B5044644
:107B3000FFF7F2FF20460C21FCF743FF204610BD63
:107B4000F7B5089F974205460E4614460AD0A86826
:107B500002680897156A31462246AC4603B0BDE874
:107B6000F04060471946019300F058F8019B002847
:107B7000EDD0062003B0F0BD2DE9F14F0D461946BA
:107B8000DDE90A4BDDE90CA681461746984600F070
:107B900045F890B1002D3460377109DB61198A45D1
:107BA0000CBF06210121B171002001B0BDE8F08FAA
:107BB0000235F9D10123B371F6E7544506D1594690
:107BC000484600F02BF808B17771EDE7D9F80800C6
:107BD0000368CDE90CA6CDE90A4BDC693A46434679
:107BE0002946A44601B0BDE8F04F60472DE9F041B9
:107BF00007460C4615461E46FFF76DFF48B9B868A4
:107C000003689F692A4633462146BC46BDE8F041D9
:107C10006047BDE8F081704700207047814208B599
:107C20000ED0406803782A2B0CD049680B782A2B99
:107C300008BF0131FCF772FEB0FA80F0400908BDC0
:107C40000120FCE70020FAE7002301461A46184607
:107C500000F04CB80A44914200F1FF3300D1704764
:107C600010B511F8014B03F8014F9142F9D110BD45
:107C700002440346934200D1704703F8011BF9E721
:107C800038B5104B1D68AB6B0446B3B91820FEF72E
:107C900049FC0246A86320B90B4B0C484221FEF771
:107CA00069FC0B490B4BC0E900130B4B83600B23A2
:107CB000838100210120C2E90401AB6B00221C6119
:107CC0005A6138BD94E40320E1810B00F8810B0078
:107CD0000E33CDAB34126DE6ECDE0500034611F831
:107CE000012B03F8012B002AF9D170472DE9F84345
:107CF000DFF8B8800646D8F800001F460D469146CA
:107D000000F056F8254B1C6834B9254C1C60254BF7
:107D100013B11B68C4F8883063681F2B07DDD8F8DF
:107D2000000000F047F84FF0FF30BDE8F8834EB395
:107D3000D4F8880088B91C4B23B9D8F8000000F0AB
:107D400038F8F0E74FF48470FEF7ECFB0028F4D02D
:107D50000023C0E94033C4F88800636840F82390EA
:107D600001229A4000EB8301D0F800311343C0F8A0
:107D70000031022EC1F8807002BFD0F804311343E5
:107D8000C0F804316368D8F800005A1C02336260FE
:107D900044F8235000F00EF80020C6E7F0E7032077
:107DA00064E703200000000025650B00F8E40320D1
:107DB000704770477047000000044D515454040050
:107DC000064D51497364700341490B007D490B0016
:107DD000A5490B00A9490B000000000043616C6C31
:107DE000206F6E2070757265207669727475616C93
:107DF0000064656661756C7420004D5342004C53FD
:107E000042003C53504953657474696E6773206433
:107E1000656661756C743E003C53504953657474DB
:107E2000696E67732025732575202573204D4F4497
:107E30004525753E00676573747572654C616D709C
:107E400000207075626C6973686564006C61622EF5
:107E500074686577636C2E636F6D00323535003062
:107E600030303030303030303030303000000000D2
:107E70000000000000000000D14A0B00F1490B0097
:107E80001B4A0B000000000000000000394B0B00F3
:107E90008D4B0B00294A0B00646576696365206E83
:107EA0006F7420666F756E640000000000000000B3
:107EB00000000000000000000000000089560B00D8
:107EC000C9490B00C9490B00000000000000000078
:107ED00075550B0077550B00AB560B00B5550B00D5
:107EE000F7550B0085550B009F550B000000000057
:107EF00000000000000000000000000023660B00EE
:107F000019660B000F660B0005660B00F9650B0088
:107F1000ED650B0041680B0049680B00E1650B0043
:107F2000D9650B00CF650B00C5650B0079680B00A8
:107F3000000000000000000041660B008B660B0093
:107F400063660B0043660B006B660B0073660B00E9
:107F50007B660B0083660B00000000000000000041
:107F6000E5660B00D5660B00D7660B0061707000EC
:107F7000000000000000000001680B000B680B000F
:107F800015680B001F680B0029680B0035680B0093
:107F900041680B0049680B0051680B005D680B00DD
:107FA00065680B006F680B0079680B0000081018FB
:107FB00020283038776972696E67007265637620B1
:107FC0006572726F72203D20256400000000000081
:107FD000000000009D6E0B00C16E0B00F3730B00E0
:107FE000CF6E0B00A16E0B0000000000000000002F
:107FF0004D6F0B00816F0B00196E0B00336E0B0081
:1080000089720B005D6E0B00FF700B00916E0B0010
:1080100091710B00D16F0B002D710B003D730B00A4
:10802000CD700B00936E0B00456E0B00D56E0B00F0
:10803000B16F0B0025592D256D2D25645425483A27
:10804000254D3A2553257A0061736374696D650087
:1080500000000000000000000D740B0079740B009C
:1080600051740B0065690B0021740B003D740B000B
:108070002F740B004B740B000F740B0013740B0068
:108080000000000000000000B7740B001F750B001B
:10809000F5740B0065690B00E7740B00B9740B00F5
:1080A000C9740B0019750B00D9740B00B1740B0067
:1080B000000000000000000017760B000D760B009A
:1080C00003760B00B9750B00F7750B00EB750B0011
:1080D00041680B0049680B00DF750B00D7750B007A
:1080E000CD750B00C3750B0079680B00005374311C
:1080F000395F53705F6D616B655F73686172656452
:108100005F7461670000000048810B00ED800B0088
:10811000A8810B001C810B00CC810B004E31305F1D
:108120005F637878616269763131375F5F636C6174
:1081300073735F747970655F696E666F45000000E8
:108140000000000010810B00717A0B00857A0B0093
:10815000197C0B00197C0B00EF7A0B00317A0B00B5
:10816000D77A0B00997A0B00637A0B00A8810B0079
:1081700078810B0010810B004E31305F5F6378789F
:10818000616269763132305F5F73695F636C61731E
:10819000735F747970655F696E666F4500000000FB
:1081A000000000006C810B00197B0B002D7B0B0085
:1081B000197C0B00197C0B00EF7A0B00317A0B0055
:1081C000ED7B0B00797B0B00417B0B0048810B00A2
:1081D000D4810B00537439747970655F696E666F72
:1081E000005245454E54206D616C6C6F6320737571
:1081F00063636565646564002F746D702F6A656ED6
:108200006B696E732D4743432D31302D7069706556
:108210006C696E652D34385F323032303131323432
:108220005F313630363138303633392F7372632F41
:108230006E65776C69622F6E65776C69622F6C6909
:1082400062632F7374646C69622F72616E642E6353
:1082500000000000F1530B00B5650B002D660B000C
:10826000F1670B0051690B008D6A0B00F56D0B0077
:08827000F9730B0021760B00ED
:10827800040000001400000003000000474E5500F1
:108288002D1FC6140CC9DD75984B69AC5EC6B4DBEE
:0482980093E3D3D3C6
:10829C004000000001000000FF0000000000000092
:1082AC00333333333333E33F48800B0098E40320FC
:1082BC0000000000000000000000000000000000B2
:1082CC0000000000000000000000000000000000A2
:1082DC000000000000000000000000000000000092
:1082EC000000000000000000000000000000000082
:1082FC000000000000000000000000000000000072
:10830C000000000000000000000000000000000061
:04831C00F4E703205F
:048320000000000059
:10832A0000000102030405060708090A0B0C0D0EDA
:10833A000F101112131415161718191A1B1C1D1ECB
:04834A001F202800C8
:04834E007856341217
:04000003B0004020E9
:00000001FF
